{
  "contractName": "X2MStandardTokenFactory",
  "abi": [
    {
      "inputs": [
        {
          "internalType": "address payable",
          "name": "contractToClone",
          "type": "address"
        }
      ],
      "stateMutability": "nonpayable",
      "type": "constructor"
    },
    {
      "anonymous": false,
      "inputs": [
        {
          "indexed": true,
          "internalType": "address",
          "name": "previousOwner",
          "type": "address"
        },
        {
          "indexed": true,
          "internalType": "address",
          "name": "newOwner",
          "type": "address"
        }
      ],
      "name": "OwnershipTransferred",
      "type": "event"
    },
    {
      "anonymous": false,
      "inputs": [
        {
          "indexed": false,
          "internalType": "address",
          "name": "newTokenAddress",
          "type": "address"
        }
      ],
      "name": "TokenCreated",
      "type": "event"
    },
    {
      "inputs": [],
      "name": "clone",
      "outputs": [
        {
          "internalType": "address payable",
          "name": "",
          "type": "address"
        }
      ],
      "stateMutability": "view",
      "type": "function",
      "constant": true
    },
    {
      "inputs": [],
      "name": "owner",
      "outputs": [
        {
          "internalType": "address",
          "name": "",
          "type": "address"
        }
      ],
      "stateMutability": "view",
      "type": "function",
      "constant": true
    },
    {
      "inputs": [],
      "name": "renounceOwnership",
      "outputs": [],
      "stateMutability": "nonpayable",
      "type": "function"
    },
    {
      "inputs": [
        {
          "internalType": "address",
          "name": "newOwner",
          "type": "address"
        }
      ],
      "name": "transferOwnership",
      "outputs": [],
      "stateMutability": "nonpayable",
      "type": "function"
    },
    {
      "inputs": [
        {
          "internalType": "address payable",
          "name": "contractToClone",
          "type": "address"
        }
      ],
      "name": "setMasterContract",
      "outputs": [],
      "stateMutability": "nonpayable",
      "type": "function"
    },
    {
      "inputs": [
        {
          "internalType": "string",
          "name": "tokenName",
          "type": "string"
        },
        {
          "internalType": "string",
          "name": "tokenSymbol",
          "type": "string"
        },
        {
          "internalType": "uint256",
          "name": "tokenInitialAmount",
          "type": "uint256"
        },
        {
          "internalType": "bool",
          "name": "isPool",
          "type": "bool"
        },
        {
          "internalType": "address",
          "name": "dexAddress",
          "type": "address"
        }
      ],
      "name": "createStandardToken",
      "outputs": [],
      "stateMutability": "payable",
      "type": "function",
      "payable": true
    }
  ],
  "bytecode": "0x60806040526003805460ff1916905534801561001a57600080fd5b5060405161088b38038061088b8339818101604052602081101561003d57600080fd5b505160006100496100be565b600080546001600160a01b0319166001600160a01b0383169081178255604051929350917f8be0079c531659141344cd1fd0a4f28419497f9722a3daafe3b4186f6b6457e0908290a350600380546001600160a01b0390921661010002610100600160a81b03199092169190911790556100c2565b3390565b6107ba806100d16000396000f3fe6080604052600436106100555760003560e01c806309ed46071461005a5780632a3a236f1461008b57806356658174146100c0578063715018a6146102035780638da5cb5b14610218578063f2fde38b1461022d575b600080fd5b34801561006657600080fd5b5061006f610260565b604080516001600160a01b039092168252519081900360200190f35b34801561009757600080fd5b506100be600480360360208110156100ae57600080fd5b50356001600160a01b031661026f565b005b6100be600480360360a08110156100d657600080fd5b8101906020810181356401000000008111156100f157600080fd5b82018360208201111561010357600080fd5b8035906020019184600183028401116401000000008311171561012557600080fd5b91908080601f016020809104026020016040519081016040528093929190818152602001838380828437600092019190915250929594936020810193503591505064010000000081111561017857600080fd5b82018360208201111561018a57600080fd5b803590602001918460018302840111640100000000831117156101ac57600080fd5b91908080601f016020809104026020016040519081016040528093929190818152602001838380828437600092019190915250929550508235935050506020810135151590604001356001600160a01b03166102ef565b34801561020f57600080fd5b506100be61053f565b34801561022457600080fd5b5061006f6105e1565b34801561023957600080fd5b506100be6004803603602081101561025057600080fd5b50356001600160a01b03166105f0565b6005546001600160a01b031681565b6102776106e8565b6000546001600160a01b039081169116146102c7576040805162461bcd60e51b81526020600482018190526024820152600080516020610765833981519152604482015290519081900360640190fd5b600380546001600160a01b0390921661010002610100600160a81b0319909216919091179055565b6102f76106e8565b6000546001600160a01b03908116911614610347576040805162461bcd60e51b81526020600482018190526024820152600080516020610765833981519152604482015290519081900360640190fd5b6003546103619061010090046001600160a01b03166106ec565b600580546001600160a01b0319166001600160a01b03929092169190911790556103896106e8565b600480546001600160a01b0319166001600160a01b03928316178082556005546040516301972e7360e51b81526044810188905291841660648301819052861515608484015285851660a484015260c0938301938452895160c4840152895191909416936332e5ce60938a938a938a93928a928a928291602481019160e49091019060208b019080838360005b8381101561042e578181015183820152602001610416565b50505050905090810190601f16801561045b5780820380516001836020036101000a031916815260200191505b5083810382528851815288516020918201918a019080838360005b8381101561048e578181015183820152602001610476565b50505050905090810190601f1680156104bb5780820380516001836020036101000a031916815260200191505b5098505050505050505050600060405180830381600087803b1580156104e057600080fd5b505af11580156104f4573d6000803e3d6000fd5b5050600554604080516001600160a01b039092168252517f2e2b3f61b70d2d131b2a807371103cc98d51adcaa5e9a8f9c32658ad8426e74e9350908190036020019150a15050505050565b6105476106e8565b6000546001600160a01b03908116911614610597576040805162461bcd60e51b81526020600482018190526024820152600080516020610765833981519152604482015290519081900360640190fd5b600080546040516001600160a01b03909116907f8be0079c531659141344cd1fd0a4f28419497f9722a3daafe3b4186f6b6457e0908390a3600080546001600160a01b0319169055565b6000546001600160a01b031690565b6105f86106e8565b6000546001600160a01b03908116911614610648576040805162461bcd60e51b81526020600482018190526024820152600080516020610765833981519152604482015290519081900360640190fd5b6001600160a01b03811661068d5760405162461bcd60e51b815260040180806020018281038252602681526020018061073f6026913960400191505060405180910390fd5b600080546040516001600160a01b03808516939216917f8be0079c531659141344cd1fd0a4f28419497f9722a3daafe3b4186f6b6457e091a3600080546001600160a01b0319166001600160a01b0392909216919091179055565b3390565b6000808260601b9050604051733d602d80600a3d3981f3363d3d373d3d3d363d7360601b81528160148201526e5af43d82803e903d91602b57fd5bf360881b60288201526037816000f094935050505056fe4f776e61626c653a206e6577206f776e657220697320746865207a65726f20616464726573734f776e61626c653a2063616c6c6572206973206e6f7420746865206f776e6572a26469706673582212201f9bce0540b5220c329668bc91bcea3960962774f57b5f16a1038765c22ff5d264736f6c634300060c0033",
  "immutableReferences": {},
  "source": "// SPDX-License-Identifier: UNLICENSED\npragma solidity 0.6.12;\n\nimport \"./X2MStandardToken.sol\";\n\ncontract CloneFactory {\n    function createClone(address target)\n        internal\n        returns (address payable result)\n    {\n        bytes20 targetBytes = bytes20(target);\n        assembly {\n            let clone := mload(0x40)\n            mstore(\n                clone,\n                0x3d602d80600a3d3981f3363d3d373d3d3d363d73000000000000000000000000\n            )\n            mstore(add(clone, 0x14), targetBytes)\n            mstore(\n                add(clone, 0x28),\n                0x5af43d82803e903d91602b57fd5bf30000000000000000000000000000000000\n            )\n            result := create(0, clone, 0x37)\n        }\n    }\n\n    function isClone(address target, address query)\n        internal\n        view\n        returns (bool result)\n    {\n        bytes20 targetBytes = bytes20(target);\n        assembly {\n            let clone := mload(0x40)\n            mstore(\n                clone,\n                0x363d3d373d3d3d363d7300000000000000000000000000000000000000000000\n            )\n            mstore(add(clone, 0xa), targetBytes)\n            mstore(\n                add(clone, 0x1e),\n                0x5af43d82803e903d91602b57fd5bf30000000000000000000000000000000000\n            )\n\n            let other := add(clone, 0x40)\n            extcodecopy(query, other, 0, 0x2d)\n            result := and(\n                eq(mload(clone), mload(other)),\n                eq(mload(add(clone, 0xd)), mload(add(other, 0xd)))\n            )\n        }\n    }\n}\n\ncontract X2MStandardTokenFactory is Ownable, CloneFactory {\n    address payable private masterContract;\n    event TokenCreated(address newTokenAddress);\n    address newOwner;\n    address payable public clone;\n    constructor (address payable contractToClone) public {\n        masterContract = contractToClone;\n    }\n    function setMasterContract(address payable contractToClone) public onlyOwner() {\n        masterContract = contractToClone;\n    }\n\n    function createStandardToken(\n        string memory tokenName,\n        string memory tokenSymbol,\n        uint256 tokenInitialAmount,\n        bool isPool,\n        address dexAddress\n    ) public payable onlyOwner() {\n        clone = createClone(masterContract);\n        newOwner = _msgSender();\n        X2MStandardToken(clone).init(tokenName, tokenSymbol, tokenInitialAmount, newOwner, isPool, dexAddress);\n        emit TokenCreated(clone);\n    }\n}\n",
  "sourcePath": "/home/harsh/usr/projects_learning/learning/hardhat/docs/token-maker-2/contracts/X2MStandardTokenFactory.sol",
  "compiler": {
    "name": "solc",
    "version": "0.6.12+commit.27d51765.Emscripten.clang"
  },
  "schemaVersion": "3.3.4",
  "updatedAt": "2021-06-26T14:19:06.880Z",
  "networkType": "ethereum",
  "devdoc": {
    "kind": "dev",
    "methods": {
      "owner()": {
        "details": "Returns the address of the current owner."
      },
      "renounceOwnership()": {
        "details": "Leaves the contract without owner. It will not be possible to call `onlyOwner` functions anymore. Can only be called by the current owner. NOTE: Renouncing ownership will leave the contract without an owner, thereby removing any functionality that is only available to the owner."
      },
      "transferOwnership(address)": {
        "details": "Transfers ownership of the contract to a new account (`newOwner`). Can only be called by the current owner."
      }
    },
    "version": 1
  },
  "userdoc": {
    "kind": "user",
    "methods": {},
    "version": 1
  }
}