{
  "contractName": "X2MTokenFactory",
  "abi": [
    {
      "inputs": [
        {
          "internalType": "address payable",
          "name": "contractToClone",
          "type": "address"
        }
      ],
      "stateMutability": "nonpayable",
      "type": "constructor"
    },
    {
      "anonymous": false,
      "inputs": [
        {
          "indexed": true,
          "internalType": "address",
          "name": "previousOwner",
          "type": "address"
        },
        {
          "indexed": true,
          "internalType": "address",
          "name": "newOwner",
          "type": "address"
        }
      ],
      "name": "OwnershipTransferred",
      "type": "event"
    },
    {
      "anonymous": false,
      "inputs": [
        {
          "indexed": false,
          "internalType": "address",
          "name": "newTokenAddress",
          "type": "address"
        }
      ],
      "name": "TokenCreated",
      "type": "event"
    },
    {
      "inputs": [],
      "name": "clone",
      "outputs": [
        {
          "internalType": "address payable",
          "name": "",
          "type": "address"
        }
      ],
      "stateMutability": "view",
      "type": "function",
      "constant": true
    },
    {
      "inputs": [],
      "name": "owner",
      "outputs": [
        {
          "internalType": "address",
          "name": "",
          "type": "address"
        }
      ],
      "stateMutability": "view",
      "type": "function",
      "constant": true
    },
    {
      "inputs": [],
      "name": "renounceOwnership",
      "outputs": [],
      "stateMutability": "nonpayable",
      "type": "function"
    },
    {
      "inputs": [
        {
          "internalType": "address",
          "name": "newOwner",
          "type": "address"
        }
      ],
      "name": "transferOwnership",
      "outputs": [],
      "stateMutability": "nonpayable",
      "type": "function"
    },
    {
      "inputs": [
        {
          "internalType": "address payable",
          "name": "contractToClone",
          "type": "address"
        }
      ],
      "name": "setMasterContract",
      "outputs": [],
      "stateMutability": "nonpayable",
      "type": "function"
    },
    {
      "inputs": [
        {
          "internalType": "string",
          "name": "tokenName",
          "type": "string"
        },
        {
          "internalType": "string",
          "name": "tokenSymbol",
          "type": "string"
        },
        {
          "internalType": "uint256",
          "name": "tokenInitialAmount",
          "type": "uint256"
        },
        {
          "internalType": "bool",
          "name": "isPool",
          "type": "bool"
        },
        {
          "internalType": "address",
          "name": "dexAddress",
          "type": "address"
        }
      ],
      "name": "createStandardToken",
      "outputs": [],
      "stateMutability": "payable",
      "type": "function",
      "payable": true
    },
    {
      "inputs": [
        {
          "internalType": "string",
          "name": "name",
          "type": "string"
        },
        {
          "internalType": "string",
          "name": "symbol",
          "type": "string"
        },
        {
          "internalType": "uint256",
          "name": "basicSupply",
          "type": "uint256"
        },
        {
          "internalType": "uint256",
          "name": "decimals",
          "type": "uint256"
        },
        {
          "internalType": "uint256",
          "name": "multiplier",
          "type": "uint256"
        },
        {
          "internalType": "uint256",
          "name": "numMinTokensToSell",
          "type": "uint256"
        },
        {
          "internalType": "uint256",
          "name": "maxTxnAmount",
          "type": "uint256"
        },
        {
          "internalType": "address",
          "name": "dexAddress",
          "type": "address"
        }
      ],
      "name": "createToken",
      "outputs": [],
      "stateMutability": "payable",
      "type": "function",
      "payable": true
    }
  ],
  "bytecode": "0x60806040526003805460ff1916905534801561001a57600080fd5b50604051610c4a380380610c4a8339818101604052602081101561003d57600080fd5b505160006100496100be565b600080546001600160a01b0319166001600160a01b0383169081178255604051929350917f8be0079c531659141344cd1fd0a4f28419497f9722a3daafe3b4186f6b6457e0908290a350600380546001600160a01b0390921661010002610100600160a81b03199092169190911790556100c2565b3390565b610b79806100d16000396000f3fe6080604052600436106100705760003560e01c8063715018a61161004e578063715018a61461021a5780638da5cb5b1461022f578063ea7be26114610244578063f2fde38b1461039457610070565b806309ed4607146100755780632a3a236f146100a657806356658174146100db575b600080fd5b34801561008157600080fd5b5061008a6103c7565b604080516001600160a01b039092168252519081900360200190f35b3480156100b257600080fd5b506100d9600480360360208110156100c957600080fd5b50356001600160a01b03166103d6565b005b6100d9600480360360a08110156100f157600080fd5b810190602081018135600160201b81111561010b57600080fd5b82018360208201111561011d57600080fd5b803590602001918460018302840111600160201b8311171561013e57600080fd5b91908080601f0160208091040260200160405190810160405280939291908181526020018383808284376000920191909152509295949360208101935035915050600160201b81111561019057600080fd5b8201836020820111156101a257600080fd5b803590602001918460018302840111600160201b831117156101c357600080fd5b91908080601f016020809104026020016040519081016040528093929190818152602001838380828437600092019190915250929550508235935050506020810135151590604001356001600160a01b0316610456565b34801561022657600080fd5b506100d96106a6565b34801561023b57600080fd5b5061008a610748565b6100d9600480360361010081101561025b57600080fd5b810190602081018135600160201b81111561027557600080fd5b82018360208201111561028757600080fd5b803590602001918460018302840111600160201b831117156102a857600080fd5b91908080601f0160208091040260200160405190810160405280939291908181526020018383808284376000920191909152509295949360208101935035915050600160201b8111156102fa57600080fd5b82018360208201111561030c57600080fd5b803590602001918460018302840111600160201b8311171561032d57600080fd5b91908080601f0160208091040260200160405190810160405280939291908181526020018383808284376000920191909152509295505082359350505060208101359060408101359060608101359060808101359060a001356001600160a01b0316610757565b3480156103a057600080fd5b506100d9600480360360208110156103b757600080fd5b50356001600160a01b03166109af565b6005546001600160a01b031681565b6103de610aa7565b6000546001600160a01b0390811691161461042e576040805162461bcd60e51b81526020600482018190526024820152600080516020610b24833981519152604482015290519081900360640190fd5b600380546001600160a01b0390921661010002610100600160a81b0319909216919091179055565b61045e610aa7565b6000546001600160a01b039081169116146104ae576040805162461bcd60e51b81526020600482018190526024820152600080516020610b24833981519152604482015290519081900360640190fd5b6003546104c89061010090046001600160a01b0316610aab565b600580546001600160a01b0319166001600160a01b03929092169190911790556104f0610aa7565b600480546001600160a01b0319166001600160a01b03928316178082556005546040516301972e7360e51b81526044810188905291841660648301819052861515608484015285851660a484015260c0938301938452895160c4840152895191909416936332e5ce60938a938a938a93928a928a928291602481019160e49091019060208b019080838360005b8381101561059557818101518382015260200161057d565b50505050905090810190601f1680156105c25780820380516001836020036101000a031916815260200191505b5083810382528851815288516020918201918a019080838360005b838110156105f55781810151838201526020016105dd565b50505050905090810190601f1680156106225780820380516001836020036101000a031916815260200191505b5098505050505050505050600060405180830381600087803b15801561064757600080fd5b505af115801561065b573d6000803e3d6000fd5b5050600554604080516001600160a01b039092168252517f2e2b3f61b70d2d131b2a807371103cc98d51adcaa5e9a8f9c32658ad8426e74e9350908190036020019150a15050505050565b6106ae610aa7565b6000546001600160a01b039081169116146106fe576040805162461bcd60e51b81526020600482018190526024820152600080516020610b24833981519152604482015290519081900360640190fd5b600080546040516001600160a01b03909116907f8be0079c531659141344cd1fd0a4f28419497f9722a3daafe3b4186f6b6457e0908390a3600080546001600160a01b0319169055565b6000546001600160a01b031690565b61075f610aa7565b6000546001600160a01b039081169116146107af576040805162461bcd60e51b81526020600482018190526024820152600080516020610b24833981519152604482015290519081900360640190fd5b6003546107c99061010090046001600160a01b0316610aab565b600580546001600160a01b039283166001600160a01b03199182161791829055600480549091163317808255604051637022257360e01b8152604481018b9052606481018a90526084810189905260a4810188905260c4810187905285851660e482015290841661010482018190526101209282019283528c516101248301528c5193909416936370222573938d938d938d938d938d938d938d938d9390929182916024820191610144019060208e019080838360005b83811015610898578181015183820152602001610880565b50505050905090810190601f1680156108c55780820380516001836020036101000a031916815260200191505b5083810382528b5181528b516020918201918d019080838360005b838110156108f85781810151838201526020016108e0565b50505050905090810190601f1680156109255780820380516001836020036101000a031916815260200191505b509b505050505050505050505050600060405180830381600087803b15801561094d57600080fd5b505af1158015610961573d6000803e3d6000fd5b5050600554604080516001600160a01b039092168252517f2e2b3f61b70d2d131b2a807371103cc98d51adcaa5e9a8f9c32658ad8426e74e9350908190036020019150a15050505050505050565b6109b7610aa7565b6000546001600160a01b03908116911614610a07576040805162461bcd60e51b81526020600482018190526024820152600080516020610b24833981519152604482015290519081900360640190fd5b6001600160a01b038116610a4c5760405162461bcd60e51b8152600401808060200182810382526026815260200180610afe6026913960400191505060405180910390fd5b600080546040516001600160a01b03808516939216917f8be0079c531659141344cd1fd0a4f28419497f9722a3daafe3b4186f6b6457e091a3600080546001600160a01b0319166001600160a01b0392909216919091179055565b3390565b6000808260601b9050604051733d602d80600a3d3981f3363d3d373d3d3d363d7360601b81528160148201526e5af43d82803e903d91602b57fd5bf360881b60288201526037816000f094935050505056fe4f776e61626c653a206e6577206f776e657220697320746865207a65726f20616464726573734f776e61626c653a2063616c6c6572206973206e6f7420746865206f776e6572a26469706673582212200c28b7b55a62e3f5c1e0703f43b2cba874716684fba968ada07fa783fcb6ed9b64736f6c634300060c0033",
  "immutableReferences": {},
  "source": "// SPDX-License-Identifier: UNLICENSED\npragma solidity 0.6.12;\n\nimport \"./X2MFoTToken.sol\";\nimport \"./X2MStandardToken.sol\";\n\ncontract CloneFactory {\n    function createClone(address target)\n        internal\n        returns (address payable result)\n    {\n        bytes20 targetBytes = bytes20(target);\n        assembly {\n            let clone := mload(0x40)\n            mstore(\n                clone,\n                0x3d602d80600a3d3981f3363d3d373d3d3d363d73000000000000000000000000\n            )\n            mstore(add(clone, 0x14), targetBytes)\n            mstore(\n                add(clone, 0x28),\n                0x5af43d82803e903d91602b57fd5bf30000000000000000000000000000000000\n            )\n            result := create(0, clone, 0x37)\n        }\n    }\n\n    function isClone(address target, address query)\n        internal\n        view\n        returns (bool result)\n    {\n        bytes20 targetBytes = bytes20(target);\n        assembly {\n            let clone := mload(0x40)\n            mstore(\n                clone,\n                0x363d3d373d3d3d363d7300000000000000000000000000000000000000000000\n            )\n            mstore(add(clone, 0xa), targetBytes)\n            mstore(\n                add(clone, 0x1e),\n                0x5af43d82803e903d91602b57fd5bf30000000000000000000000000000000000\n            )\n\n            let other := add(clone, 0x40)\n            extcodecopy(query, other, 0, 0x2d)\n            result := and(\n                eq(mload(clone), mload(other)),\n                eq(mload(add(clone, 0xd)), mload(add(other, 0xd)))\n            )\n        }\n    }\n}\n\ncontract X2MTokenFactory is Ownable, CloneFactory {\n    address payable private masterContract;\n    event TokenCreated(address newTokenAddress);\n    address newOwner;\n    address payable public clone;\n    constructor (address payable contractToClone) public {\n        masterContract = contractToClone;\n    }\n    function setMasterContract(address payable contractToClone) public onlyOwner() {\n        masterContract = contractToClone;\n    }\n    function createStandardToken(\n        string memory tokenName,\n        string memory tokenSymbol,\n        uint256 tokenInitialAmount,\n        bool isPool,\n        address dexAddress\n    ) public payable onlyOwner() {\n        clone = createClone(masterContract);\n        newOwner = _msgSender();\n        X2MStandardToken(clone).init(tokenName, tokenSymbol, tokenInitialAmount, newOwner, isPool, dexAddress);\n        emit TokenCreated(clone);\n    }\n    function createToken(\n        string memory name,\n        string memory symbol,\n        uint256 basicSupply,\n        uint256 decimals,\n        uint256 multiplier,\n        uint256 numMinTokensToSell,\n        uint256 maxTxnAmount,\n        address dexAddress\n    ) public payable onlyOwner() {\n        clone = createClone(masterContract);\n        newOwner = msg.sender;\n        X2MFoTToken(clone).init(\n            name,\n            symbol,\n            basicSupply,\n            decimals,\n            multiplier,\n            numMinTokensToSell,\n            maxTxnAmount,\n            dexAddress,\n            newOwner\n        );\n        emit TokenCreated(clone);\n    }\n}\n",
  "sourcePath": "/home/harsh/usr/projects_learning/projects/x2mars/smart-contracts/token-maker/contracts/X2MTokenFactory.sol",
  "compiler": {
    "name": "solc",
    "version": "0.6.12+commit.27d51765.Emscripten.clang"
  },
  "schemaVersion": "3.3.4",
  "updatedAt": "2021-06-29T18:46:14.840Z",
  "networkType": "ethereum",
  "devdoc": {
    "kind": "dev",
    "methods": {
      "owner()": {
        "details": "Returns the address of the current owner."
      },
      "renounceOwnership()": {
        "details": "Leaves the contract without owner. It will not be possible to call `onlyOwner` functions anymore. Can only be called by the current owner. NOTE: Renouncing ownership will leave the contract without an owner, thereby removing any functionality that is only available to the owner."
      },
      "transferOwnership(address)": {
        "details": "Transfers ownership of the contract to a new account (`newOwner`). Can only be called by the current owner."
      }
    },
    "version": 1
  },
  "userdoc": {
    "kind": "user",
    "methods": {},
    "version": 1
  }
}