{
    "contractName": "X2MTokenFactory",
    "abi": [
        {
            "inputs": [
                {
                    "internalType": "address payable",
                    "name": "contractToClone",
                    "type": "address"
                }
            ],
            "stateMutability": "nonpayable",
            "type": "constructor"
        },
        {
            "anonymous": false,
            "inputs": [
                {
                    "indexed": true,
                    "internalType": "address",
                    "name": "previousOwner",
                    "type": "address"
                },
                {
                    "indexed": true,
                    "internalType": "address",
                    "name": "newOwner",
                    "type": "address"
                }
            ],
            "name": "OwnershipTransferred",
            "type": "event"
        },
        {
            "anonymous": false,
            "inputs": [
                {
                    "indexed": false,
                    "internalType": "address",
                    "name": "id",
                    "type": "address"
                },
                {
                    "indexed": false,
                    "internalType": "address",
                    "name": "newTokenAddress",
                    "type": "address"
                }
            ],
            "name": "TokenCreated",
            "type": "event"
        },
        {
            "inputs": [],
            "name": "clone",
            "outputs": [
                {
                    "internalType": "address payable",
                    "name": "",
                    "type": "address"
                }
            ],
            "stateMutability": "view",
            "type": "function",
            "constant": true
        },
        {
            "inputs": [],
            "name": "owner",
            "outputs": [
                {
                    "internalType": "address",
                    "name": "",
                    "type": "address"
                }
            ],
            "stateMutability": "view",
            "type": "function",
            "constant": true
        },
        {
            "inputs": [],
            "name": "renounceOwnership",
            "outputs": [],
            "stateMutability": "nonpayable",
            "type": "function"
        },
        {
            "inputs": [
                {
                    "internalType": "address",
                    "name": "newOwner",
                    "type": "address"
                }
            ],
            "name": "transferOwnership",
            "outputs": [],
            "stateMutability": "nonpayable",
            "type": "function"
        },
        {
            "inputs": [
                {
                    "internalType": "address payable",
                    "name": "contractToClone",
                    "type": "address"
                }
            ],
            "name": "setMasterContract",
            "outputs": [],
            "stateMutability": "nonpayable",
            "type": "function"
        },
        {
            "inputs": [
                {
                    "internalType": "string",
                    "name": "tokenName",
                    "type": "string"
                },
                {
                    "internalType": "string",
                    "name": "tokenSymbol",
                    "type": "string"
                },
                {
                    "internalType": "uint256",
                    "name": "tokenInitialAmount",
                    "type": "uint256"
                },
                {
                    "internalType": "bool",
                    "name": "isPool",
                    "type": "bool"
                },
                {
                    "internalType": "address",
                    "name": "dexAddress",
                    "type": "address"
                }
            ],
            "name": "createStandardToken",
            "outputs": [],
            "stateMutability": "payable",
            "type": "function",
            "payable": true
        },
        {
            "inputs": [
                {
                    "internalType": "string",
                    "name": "name",
                    "type": "string"
                },
                {
                    "internalType": "string",
                    "name": "symbol",
                    "type": "string"
                },
                {
                    "internalType": "uint256",
                    "name": "basicSupply",
                    "type": "uint256"
                },
                {
                    "internalType": "uint256",
                    "name": "decimals",
                    "type": "uint256"
                },
                {
                    "internalType": "uint256",
                    "name": "multiplier",
                    "type": "uint256"
                },
                {
                    "internalType": "uint256",
                    "name": "numMinTokensToSell",
                    "type": "uint256"
                },
                {
                    "internalType": "uint256",
                    "name": "maxTxnAmount",
                    "type": "uint256"
                },
                {
                    "internalType": "address",
                    "name": "dexAddress",
                    "type": "address"
                }
            ],
            "name": "createToken",
            "outputs": [],
            "stateMutability": "payable",
            "type": "function",
            "payable": true
        }
    ],
    "bytecode": "0x60806040526003805460ff1916905534801561001a57600080fd5b50604051610c39380380610c398339818101604052602081101561003d57600080fd5b505160006100496100be565b600080546001600160a01b0319166001600160a01b0383169081178255604051929350917f8be0079c531659141344cd1fd0a4f28419497f9722a3daafe3b4186f6b6457e0908290a350600380546001600160a01b0390921661010002610100600160a81b03199092169190911790556100c2565b3390565b610b68806100d16000396000f3fe6080604052600436106100705760003560e01c8063715018a61161004e578063715018a61461021a5780638da5cb5b1461022f578063ea7be26114610244578063f2fde38b1461039457610070565b806309ed4607146100755780632a3a236f146100a657806356658174146100db575b600080fd5b34801561008157600080fd5b5061008a6103c7565b604080516001600160a01b039092168252519081900360200190f35b3480156100b257600080fd5b506100d9600480360360208110156100c957600080fd5b50356001600160a01b03166103d6565b005b6100d9600480360360a08110156100f157600080fd5b810190602081018135600160201b81111561010b57600080fd5b82018360208201111561011d57600080fd5b803590602001918460018302840111600160201b8311171561013e57600080fd5b91908080601f0160208091040260200160405190810160405280939291908181526020018383808284376000920191909152509295949360208101935035915050600160201b81111561019057600080fd5b8201836020820111156101a257600080fd5b803590602001918460018302840111600160201b831117156101c357600080fd5b91908080601f016020809104026020016040519081016040528093929190818152602001838380828437600092019190915250929550508235935050506020810135151590604001356001600160a01b0316610456565b34801561022657600080fd5b506100d9610695565b34801561023b57600080fd5b5061008a610737565b6100d9600480360361010081101561025b57600080fd5b810190602081018135600160201b81111561027557600080fd5b82018360208201111561028757600080fd5b803590602001918460018302840111600160201b831117156102a857600080fd5b91908080601f0160208091040260200160405190810160405280939291908181526020018383808284376000920191909152509295949360208101935035915050600160201b8111156102fa57600080fd5b82018360208201111561030c57600080fd5b803590602001918460018302840111600160201b8311171561032d57600080fd5b91908080601f0160208091040260200160405190810160405280939291908181526020018383808284376000920191909152509295505082359350505060208101359060408101359060608101359060808101359060a001356001600160a01b0316610746565b3480156103a057600080fd5b506100d9600480360360208110156103b757600080fd5b50356001600160a01b031661099e565b6005546001600160a01b031681565b6103de610a96565b6000546001600160a01b0390811691161461042e576040805162461bcd60e51b81526020600482018190526024820152600080516020610b13833981519152604482015290519081900360640190fd5b600380546001600160a01b0390921661010002610100600160a81b0319909216919091179055565b61045e610a96565b6000546001600160a01b039081169116146104ae576040805162461bcd60e51b81526020600482018190526024820152600080516020610b13833981519152604482015290519081900360640190fd5b6003546104c89061010090046001600160a01b0316610a9a565b600580546001600160a01b0319166001600160a01b039283161790819055166332e5ce608686866104f7610a96565b87876040518763ffffffff1660e01b8152600401808060200180602001878152602001866001600160a01b031681526020018515158152602001846001600160a01b03168152602001838103835289818151815260200191508051906020019080838360005b8381101561057557818101518382015260200161055d565b50505050905090810190601f1680156105a25780820380516001836020036101000a031916815260200191505b5083810382528851815288516020918201918a019080838360005b838110156105d55781810151838201526020016105bd565b50505050905090810190601f1680156106025780820380516001836020036101000a031916815260200191505b5098505050505050505050600060405180830381600087803b15801561062757600080fd5b505af115801561063b573d6000803e3d6000fd5b505050507fd5f9bdf12adf29dab0248c349842c3822d53ae2bb4f36352f301630d018c8139610668610a96565b600554604080516001600160a01b0393841681529290911660208301528051918290030190a15050505050565b61069d610a96565b6000546001600160a01b039081169116146106ed576040805162461bcd60e51b81526020600482018190526024820152600080516020610b13833981519152604482015290519081900360640190fd5b600080546040516001600160a01b03909116907f8be0079c531659141344cd1fd0a4f28419497f9722a3daafe3b4186f6b6457e0908390a3600080546001600160a01b0319169055565b6000546001600160a01b031690565b61074e610a96565b6000546001600160a01b0390811691161461079e576040805162461bcd60e51b81526020600482018190526024820152600080516020610b13833981519152604482015290519081900360640190fd5b6003546107b89061010090046001600160a01b0316610a9a565b600580546001600160a01b0319166001600160a01b03928316179081905516637022257389898989898989896107ec610a96565b6040518a63ffffffff1660e01b81526004018080602001806020018a8152602001898152602001888152602001878152602001868152602001856001600160a01b03168152602001846001600160a01b0316815260200183810383528c818151815260200191508051906020019080838360005b83811015610878578181015183820152602001610860565b50505050905090810190601f1680156108a55780820380516001836020036101000a031916815260200191505b5083810382528b5181528b516020918201918d019080838360005b838110156108d85781810151838201526020016108c0565b50505050905090810190601f1680156109055780820380516001836020036101000a031916815260200191505b509b505050505050505050505050600060405180830381600087803b15801561092d57600080fd5b505af1158015610941573d6000803e3d6000fd5b505050507fd5f9bdf12adf29dab0248c349842c3822d53ae2bb4f36352f301630d018c813961096e610a96565b600554604080516001600160a01b0393841681529290911660208301528051918290030190a15050505050505050565b6109a6610a96565b6000546001600160a01b039081169116146109f6576040805162461bcd60e51b81526020600482018190526024820152600080516020610b13833981519152604482015290519081900360640190fd5b6001600160a01b038116610a3b5760405162461bcd60e51b8152600401808060200182810382526026815260200180610aed6026913960400191505060405180910390fd5b600080546040516001600160a01b03808516939216917f8be0079c531659141344cd1fd0a4f28419497f9722a3daafe3b4186f6b6457e091a3600080546001600160a01b0319166001600160a01b0392909216919091179055565b3390565b6000808260601b9050604051733d602d80600a3d3981f3363d3d373d3d3d363d7360601b81528160148201526e5af43d82803e903d91602b57fd5bf360881b60288201526037816000f094935050505056fe4f776e61626c653a206e6577206f776e657220697320746865207a65726f20616464726573734f776e61626c653a2063616c6c6572206973206e6f7420746865206f776e6572a2646970667358221220ef7d9448cb8174382053f9864a1ec09f49802a1f2c1ee958b0e66007c8bd58db64736f6c634300060c0033",
    "immutableReferences": {},
    "source": "// SPDX-License-Identifier: UNLICENSED\r\npragma solidity 0.6.12;\r\n\r\nimport \"./X2MFoTToken.sol\";\r\nimport \"./X2MStandardToken.sol\";\r\n\r\ncontract CloneFactory {\r\n    function createClone(address target)\r\n        internal\r\n        returns (address payable result)\r\n    {\r\n        bytes20 targetBytes = bytes20(target);\r\n        assembly {\r\n            let clone := mload(0x40)\r\n            mstore(\r\n                clone,\r\n                0x3d602d80600a3d3981f3363d3d373d3d3d363d73000000000000000000000000\r\n            )\r\n            mstore(add(clone, 0x14), targetBytes)\r\n            mstore(\r\n                add(clone, 0x28),\r\n                0x5af43d82803e903d91602b57fd5bf30000000000000000000000000000000000\r\n            )\r\n            result := create(0, clone, 0x37)\r\n        }\r\n    }\r\n\r\n    function isClone(address target, address query)\r\n        internal\r\n        view\r\n        returns (bool result)\r\n    {\r\n        bytes20 targetBytes = bytes20(target);\r\n        assembly {\r\n            let clone := mload(0x40)\r\n            mstore(\r\n                clone,\r\n                0x363d3d373d3d3d363d7300000000000000000000000000000000000000000000\r\n            )\r\n            mstore(add(clone, 0xa), targetBytes)\r\n            mstore(\r\n                add(clone, 0x1e),\r\n                0x5af43d82803e903d91602b57fd5bf30000000000000000000000000000000000\r\n            )\r\n\r\n            let other := add(clone, 0x40)\r\n            extcodecopy(query, other, 0, 0x2d)\r\n            result := and(\r\n                eq(mload(clone), mload(other)),\r\n                eq(mload(add(clone, 0xd)), mload(add(other, 0xd)))\r\n            )\r\n        }\r\n    }\r\n}\r\n\r\ncontract X2MTokenFactory is Ownable, CloneFactory {\r\n    address payable private masterContract;\r\n    event TokenCreated(address id, address newTokenAddress);\r\n    address newOwner;\r\n    address payable public clone;\r\n    constructor (address payable contractToClone) public {\r\n        masterContract = contractToClone;\r\n    }\r\n    function setMasterContract(address payable contractToClone) public onlyOwner() {\r\n        masterContract = contractToClone;\r\n    }\r\n    function createStandardToken(\r\n        string memory tokenName,\r\n        string memory tokenSymbol,\r\n        uint256 tokenInitialAmount,\r\n        bool isPool,\r\n        address dexAddress\r\n    ) public payable onlyOwner() {\r\n        clone = createClone(masterContract);\r\n        X2MStandardToken(clone).init(tokenName, tokenSymbol, tokenInitialAmount, _msgSender(), isPool, dexAddress);\r\n        emit TokenCreated(_msgSender(), clone);\r\n    }\r\n    function createToken(\r\n        string memory name,\r\n        string memory symbol,\r\n        uint256 basicSupply,\r\n        uint256 decimals,\r\n        uint256 multiplier,\r\n        uint256 numMinTokensToSell,\r\n        uint256 maxTxnAmount,\r\n        address dexAddress\r\n    ) public payable onlyOwner() {\r\n        clone = createClone(masterContract);\r\n        X2MFoTToken(clone).init(\r\n            name,\r\n            symbol,\r\n            basicSupply,\r\n            decimals,\r\n            multiplier,\r\n            numMinTokensToSell,\r\n            maxTxnAmount,\r\n            dexAddress,\r\n            _msgSender()\r\n        );\r\n        emit TokenCreated(_msgSender(), clone);\r\n    }\r\n}\r\n",
    "sourcePath": "C:/Users/Harsh/Projects & Learning/Projects/Blockchain/x2mars/token-maker/contracts/X2MTokenFactory.sol",
    "compiler": {
        "name": "solc",
        "version": "0.6.12+commit.27d51765.Emscripten.clang"
    },
    "schemaVersion": "3.3.4",
    "updatedAt": "2021-09-02T23:27:22.252Z",
    "networkType": "ethereum",
    "devdoc": {
        "kind": "dev",
        "methods": {
            "owner()": {
                "details": "Returns the address of the current owner."
            },
            "renounceOwnership()": {
                "details": "Leaves the contract without owner. It will not be possible to call `onlyOwner` functions anymore. Can only be called by the current owner. NOTE: Renouncing ownership will leave the contract without an owner, thereby removing any functionality that is only available to the owner."
            },
            "transferOwnership(address)": {
                "details": "Transfers ownership of the contract to a new account (`newOwner`). Can only be called by the current owner."
            }
        },
        "version": 1
    },
    "userdoc": {
        "kind": "user",
        "methods": {},
        "version": 1
    }
}