{
  "contractName": "FotToken",
  "abi": [
    {
      "anonymous": false,
      "inputs": [
        {
          "indexed": true,
          "internalType": "address",
          "name": "owner",
          "type": "address"
        },
        {
          "indexed": true,
          "internalType": "address",
          "name": "spender",
          "type": "address"
        },
        {
          "indexed": false,
          "internalType": "uint256",
          "name": "value",
          "type": "uint256"
        }
      ],
      "name": "Approval",
      "type": "event"
    },
    {
      "anonymous": false,
      "inputs": [
        {
          "indexed": false,
          "internalType": "address",
          "name": "thisContract",
          "type": "address"
        },
        {
          "indexed": false,
          "internalType": "address",
          "name": "pairAddress",
          "type": "address"
        }
      ],
      "name": "DexPairCreated",
      "type": "event"
    },
    {
      "anonymous": false,
      "inputs": [
        {
          "indexed": true,
          "internalType": "address",
          "name": "previousOwner",
          "type": "address"
        },
        {
          "indexed": true,
          "internalType": "address",
          "name": "newOwner",
          "type": "address"
        }
      ],
      "name": "OwnershipTransferred",
      "type": "event"
    },
    {
      "anonymous": false,
      "inputs": [
        {
          "indexed": false,
          "internalType": "uint256",
          "name": "tokensSwapped",
          "type": "uint256"
        },
        {
          "indexed": false,
          "internalType": "uint256",
          "name": "ethReceived",
          "type": "uint256"
        },
        {
          "indexed": false,
          "internalType": "uint256",
          "name": "tokensIntoLiqudity",
          "type": "uint256"
        }
      ],
      "name": "SwapAndLiquify",
      "type": "event"
    },
    {
      "anonymous": false,
      "inputs": [
        {
          "indexed": false,
          "internalType": "bool",
          "name": "enabled",
          "type": "bool"
        }
      ],
      "name": "SwapAndLiquifyEnabledUpdated",
      "type": "event"
    },
    {
      "anonymous": false,
      "inputs": [
        {
          "indexed": true,
          "internalType": "address",
          "name": "from",
          "type": "address"
        },
        {
          "indexed": true,
          "internalType": "address",
          "name": "to",
          "type": "address"
        },
        {
          "indexed": false,
          "internalType": "uint256",
          "name": "value",
          "type": "uint256"
        }
      ],
      "name": "Transfer",
      "type": "event"
    },
    {
      "inputs": [],
      "name": "inSwapAndLiquify",
      "outputs": [
        {
          "internalType": "bool",
          "name": "",
          "type": "bool"
        }
      ],
      "stateMutability": "view",
      "type": "function"
    },
    {
      "inputs": [],
      "name": "owner",
      "outputs": [
        {
          "internalType": "address",
          "name": "",
          "type": "address"
        }
      ],
      "stateMutability": "view",
      "type": "function"
    },
    {
      "inputs": [],
      "name": "pair",
      "outputs": [
        {
          "internalType": "address",
          "name": "",
          "type": "address"
        }
      ],
      "stateMutability": "view",
      "type": "function"
    },
    {
      "inputs": [],
      "name": "renounceOwnership",
      "outputs": [],
      "stateMutability": "nonpayable",
      "type": "function"
    },
    {
      "inputs": [],
      "name": "router",
      "outputs": [
        {
          "internalType": "contract IUniswapV2Router02",
          "name": "",
          "type": "address"
        }
      ],
      "stateMutability": "view",
      "type": "function"
    },
    {
      "inputs": [
        {
          "internalType": "address",
          "name": "newOwner",
          "type": "address"
        }
      ],
      "name": "transferOwnership",
      "outputs": [],
      "stateMutability": "nonpayable",
      "type": "function"
    },
    {
      "inputs": [
        {
          "internalType": "string",
          "name": "tokenName",
          "type": "string"
        },
        {
          "internalType": "string",
          "name": "tokenSymbol",
          "type": "string"
        },
        {
          "internalType": "uint256",
          "name": "basicSupply",
          "type": "uint256"
        },
        {
          "internalType": "uint256",
          "name": "maxTxnAmount",
          "type": "uint256"
        },
        {
          "internalType": "uint256[4]",
          "name": "fees",
          "type": "uint256[4]"
        },
        {
          "internalType": "address",
          "name": "charityAddress",
          "type": "address"
        },
        {
          "internalType": "address",
          "name": "dexAddress",
          "type": "address"
        },
        {
          "internalType": "address",
          "name": "newOwner",
          "type": "address"
        }
      ],
      "name": "init",
      "outputs": [],
      "stateMutability": "nonpayable",
      "type": "function"
    },
    {
      "inputs": [],
      "name": "name",
      "outputs": [
        {
          "internalType": "string",
          "name": "",
          "type": "string"
        }
      ],
      "stateMutability": "view",
      "type": "function"
    },
    {
      "inputs": [],
      "name": "decimals",
      "outputs": [
        {
          "internalType": "uint256",
          "name": "",
          "type": "uint256"
        }
      ],
      "stateMutability": "view",
      "type": "function"
    },
    {
      "inputs": [],
      "name": "symbol",
      "outputs": [
        {
          "internalType": "string",
          "name": "",
          "type": "string"
        }
      ],
      "stateMutability": "view",
      "type": "function"
    },
    {
      "inputs": [],
      "name": "totalSupply",
      "outputs": [
        {
          "internalType": "uint256",
          "name": "",
          "type": "uint256"
        }
      ],
      "stateMutability": "view",
      "type": "function"
    },
    {
      "inputs": [],
      "name": "pairAddress",
      "outputs": [
        {
          "internalType": "address",
          "name": "",
          "type": "address"
        }
      ],
      "stateMutability": "view",
      "type": "function"
    },
    {
      "inputs": [],
      "name": "amountOfNativeCoinsHeldByContract",
      "outputs": [
        {
          "internalType": "uint256",
          "name": "",
          "type": "uint256"
        }
      ],
      "stateMutability": "view",
      "type": "function"
    },
    {
      "inputs": [
        {
          "internalType": "uint256",
          "name": "amount",
          "type": "uint256"
        }
      ],
      "name": "burnTokens",
      "outputs": [],
      "stateMutability": "nonpayable",
      "type": "function"
    },
    {
      "inputs": [
        {
          "internalType": "address",
          "name": "account",
          "type": "address"
        }
      ],
      "name": "balanceOf",
      "outputs": [
        {
          "internalType": "uint256",
          "name": "",
          "type": "uint256"
        }
      ],
      "stateMutability": "view",
      "type": "function"
    },
    {
      "inputs": [
        {
          "internalType": "address",
          "name": "account",
          "type": "address"
        }
      ],
      "name": "isExcludedFromReward",
      "outputs": [
        {
          "internalType": "bool",
          "name": "",
          "type": "bool"
        }
      ],
      "stateMutability": "view",
      "type": "function"
    },
    {
      "inputs": [
        {
          "internalType": "address",
          "name": "recipient",
          "type": "address"
        },
        {
          "internalType": "uint256",
          "name": "amount",
          "type": "uint256"
        }
      ],
      "name": "transfer",
      "outputs": [
        {
          "internalType": "bool",
          "name": "",
          "type": "bool"
        }
      ],
      "stateMutability": "nonpayable",
      "type": "function"
    },
    {
      "inputs": [
        {
          "internalType": "address",
          "name": "owner",
          "type": "address"
        },
        {
          "internalType": "address",
          "name": "spender",
          "type": "address"
        }
      ],
      "name": "allowance",
      "outputs": [
        {
          "internalType": "uint256",
          "name": "",
          "type": "uint256"
        }
      ],
      "stateMutability": "view",
      "type": "function"
    },
    {
      "inputs": [
        {
          "internalType": "address",
          "name": "spender",
          "type": "address"
        },
        {
          "internalType": "uint256",
          "name": "amount",
          "type": "uint256"
        }
      ],
      "name": "approve",
      "outputs": [
        {
          "internalType": "bool",
          "name": "",
          "type": "bool"
        }
      ],
      "stateMutability": "nonpayable",
      "type": "function"
    },
    {
      "inputs": [
        {
          "internalType": "address",
          "name": "spender",
          "type": "address"
        },
        {
          "internalType": "address",
          "name": "recipient",
          "type": "address"
        },
        {
          "internalType": "uint256",
          "name": "amount",
          "type": "uint256"
        }
      ],
      "name": "transferFrom",
      "outputs": [
        {
          "internalType": "bool",
          "name": "",
          "type": "bool"
        }
      ],
      "stateMutability": "nonpayable",
      "type": "function"
    },
    {
      "inputs": [
        {
          "internalType": "address",
          "name": "spender",
          "type": "address"
        },
        {
          "internalType": "uint256",
          "name": "addedValue",
          "type": "uint256"
        }
      ],
      "name": "increaseAllowance",
      "outputs": [
        {
          "internalType": "bool",
          "name": "",
          "type": "bool"
        }
      ],
      "stateMutability": "nonpayable",
      "type": "function"
    },
    {
      "inputs": [
        {
          "internalType": "address",
          "name": "spender",
          "type": "address"
        },
        {
          "internalType": "uint256",
          "name": "subtractedValue",
          "type": "uint256"
        }
      ],
      "name": "decreaseAllowance",
      "outputs": [
        {
          "internalType": "bool",
          "name": "",
          "type": "bool"
        }
      ],
      "stateMutability": "nonpayable",
      "type": "function"
    },
    {
      "inputs": [
        {
          "internalType": "uint256",
          "name": "txnAmountRequested",
          "type": "uint256"
        },
        {
          "internalType": "bool",
          "name": "deductTransferFee",
          "type": "bool"
        }
      ],
      "name": "calculateReflectionBalanceFromTokenBalance",
      "outputs": [
        {
          "internalType": "uint256",
          "name": "",
          "type": "uint256"
        }
      ],
      "stateMutability": "view",
      "type": "function"
    },
    {
      "inputs": [
        {
          "internalType": "address",
          "name": "account",
          "type": "address"
        }
      ],
      "name": "excludeFromReward",
      "outputs": [],
      "stateMutability": "nonpayable",
      "type": "function"
    },
    {
      "inputs": [
        {
          "internalType": "address",
          "name": "account",
          "type": "address"
        }
      ],
      "name": "includeInReward",
      "outputs": [],
      "stateMutability": "nonpayable",
      "type": "function"
    },
    {
      "inputs": [
        {
          "internalType": "address",
          "name": "account",
          "type": "address"
        }
      ],
      "name": "excludeFromFee",
      "outputs": [],
      "stateMutability": "nonpayable",
      "type": "function"
    },
    {
      "inputs": [
        {
          "internalType": "address",
          "name": "account",
          "type": "address"
        }
      ],
      "name": "includeInFee",
      "outputs": [],
      "stateMutability": "nonpayable",
      "type": "function"
    },
    {
      "inputs": [
        {
          "internalType": "address payable",
          "name": "charityAddress",
          "type": "address"
        }
      ],
      "name": "setCharityAddress",
      "outputs": [],
      "stateMutability": "nonpayable",
      "type": "function"
    },
    {
      "inputs": [
        {
          "internalType": "uint256[]",
          "name": "fees",
          "type": "uint256[]"
        }
      ],
      "name": "setFees",
      "outputs": [],
      "stateMutability": "nonpayable",
      "type": "function"
    },
    {
      "inputs": [
        {
          "internalType": "uint256",
          "name": "maxTxPercent",
          "type": "uint256"
        }
      ],
      "name": "setMaxTxPercent",
      "outputs": [],
      "stateMutability": "nonpayable",
      "type": "function"
    },
    {
      "inputs": [
        {
          "internalType": "bool",
          "name": "_enabled",
          "type": "bool"
        }
      ],
      "name": "setSwapAndLiquifyEnabled",
      "outputs": [],
      "stateMutability": "nonpayable",
      "type": "function"
    },
    {
      "inputs": [],
      "name": "getAllFees",
      "outputs": [
        {
          "internalType": "uint256[4]",
          "name": "",
          "type": "uint256[4]"
        }
      ],
      "stateMutability": "view",
      "type": "function"
    },
    {
      "inputs": [],
      "name": "getAllFeesChargedBurnedAndCharitized",
      "outputs": [
        {
          "internalType": "uint256[3]",
          "name": "",
          "type": "uint256[3]"
        }
      ],
      "stateMutability": "view",
      "type": "function"
    },
    {
      "inputs": [],
      "name": "getCharityAddress",
      "outputs": [
        {
          "internalType": "address",
          "name": "",
          "type": "address"
        }
      ],
      "stateMutability": "view",
      "type": "function"
    },
    {
      "inputs": [],
      "name": "getWhaleProtection",
      "outputs": [
        {
          "internalType": "uint256",
          "name": "",
          "type": "uint256"
        }
      ],
      "stateMutability": "view",
      "type": "function"
    },
    {
      "inputs": [
        {
          "internalType": "uint256",
          "name": "reflectionBalance",
          "type": "uint256"
        }
      ],
      "name": "calculateTokenBalanceFromReflectionBalance",
      "outputs": [
        {
          "internalType": "uint256",
          "name": "",
          "type": "uint256"
        }
      ],
      "stateMutability": "view",
      "type": "function"
    }
  ],
  "bytecode": "0x60806040526003805460ff19169055601f805460ff60a01b1916600160a01b1790553480156200002e57600080fd5b5060006200003b6200008b565b600080546001600160a01b0319166001600160a01b0383169081178255604051929350917f8be0079c531659141344cd1fd0a4f28419497f9722a3daafe3b4186f6b6457e0908290a3506200008f565b3390565b6136ab806200009f6000396000f3fe608060405234801561001057600080fd5b506004361061021c5760003560e01c8063715018a611610125578063b20feaaf116100ad578063dd62ed3e1161007c578063dd62ed3e14610802578063ea2f0b3714610830578063f2fde38b14610856578063f887ea401461087c578063ffe50bfa146108845761021c565b8063b20feaaf146107a1578063c49b9a80146107be578063d543dbeb146107dd578063d871e252146107fa5761021c565b806395d89b41116100f457806395d89b4114610731578063a457c2d714610739578063a8aa1b3114610765578063a8b089821461076d578063a9059cbb146107755761021c565b8063715018a6146106bb5780637f72ab12146106c357806388f82020146107035780638da5cb5b146107295761021c565b8063313ce567116101a857806352390c021161017757806352390c02146104ad57806365b64714146104d3578063690323f6146106535780636d1b229d1461067857806370a08231146106955761021c565b8063313ce5671461042d5780633685d41914610435578063395093511461045b578063437823ec146104875761021c565b806318160ddd116101ef57806318160ddd146103205780631ad0639314610328578063220f66961461034c57806323b872dd146103545780632ae0357f1461038a5761021c565b806306fdde0314610221578063095ea7b31461029e5780630c9be46d146102de578063118fb5d314610306575b600080fd5b6102296108a1565b6040805160208082528351818301528351919283929083019185019080838360005b8381101561026357818101518382015260200161024b565b50505050905090810190601f1680156102905780820380516001836020036101000a031916815260200191505b509250505060405180910390f35b6102ca600480360360408110156102b457600080fd5b506001600160a01b038135169060200135610937565b604080519115158252519081900360200190f35b610304600480360360208110156102f457600080fd5b50356001600160a01b0316610a7b565b005b61030e610b74565b60408051918252519081900360200190f35b61030e610be2565b610330610be8565b604080516001600160a01b039092168252519081900360200190f35b6102ca610bf7565b6102ca6004803603606081101561036a57600080fd5b506001600160a01b03813581169160208101359091169060400135610c07565b610304600480360360208110156103a057600080fd5b8101906020810181356401000000008111156103bb57600080fd5b8201836020820111156103cd57600080fd5b803590602001918460208302840111640100000000831117156103ef57600080fd5b919080806020026020016040519081016040528093929190818152602001838360200280828437600092019190915250929550610d32945050505050565b61030e610e54565b6103046004803603602081101561044b57600080fd5b50356001600160a01b0316610e5a565b6102ca6004803603604081101561047157600080fd5b506001600160a01b03813516906020013561101b565b6103046004803603602081101561049d57600080fd5b50356001600160a01b0316611069565b610304600480360360208110156104c357600080fd5b50356001600160a01b03166110e5565b61030460048036036101608110156104ea57600080fd5b81019060208101813564010000000081111561050557600080fd5b82018360208201111561051757600080fd5b8035906020019184600183028401116401000000008311171561053957600080fd5b91908080601f016020809104026020016040519081016040528093929190818152602001838380828437600092019190915250929594936020810193503591505064010000000081111561058c57600080fd5b82018360208201111561059e57600080fd5b803590602001918460018302840111640100000000831117156105c057600080fd5b91908080601f0160208091040260200160405190810160405280939291908181526020018383808284376000920191909152505060408051608081810183529497863597602088013597919690955060c082019450919201906004908390839080828437600092019190915250919450506001600160a01b0382358116935060208301358116926040013516905061126b565b61030e6004803603604081101561066957600080fd5b508035906020013515156115fc565b6103046004803603602081101561068e57600080fd5b5035611691565b61030e600480360360208110156106ab57600080fd5b50356001600160a01b03166116fa565b6103046117c1565b6106cb611863565b6040518082606080838360005b838110156106f05781810151838201526020016106d8565b5050505090500191505060405180910390f35b6102ca6004803603602081101561071957600080fd5b50356001600160a01b0316611899565b6103306118b7565b6102296118c6565b6102ca6004803603604081101561074f57600080fd5b506001600160a01b038135169060200135611927565b6103306119a3565b6103306119b2565b6102ca6004803603604081101561078b57600080fd5b506001600160a01b0381351690602001356119c1565b6107a9611a29565b604051815181528082608080838360206106d8565b610304600480360360208110156107d457600080fd5b50351515611a67565b610304600480360360208110156107f357600080fd5b5035611b12565b61030e611b90565b61030e6004803603604081101561081857600080fd5b506001600160a01b0381358116916020013516611b96565b6103046004803603602081101561084657600080fd5b50356001600160a01b0316611cb9565b6103046004803603602081101561086c57600080fd5b50356001600160a01b0316611d32565b610330611e2a565b61030e6004803603602081101561089a57600080fd5b5035611e39565b60048054604080516020601f600260001961010060018816150201909516949094049384018190048102820181019092528281526060939092909183018282801561092d5780601f106109025761010080835404028352916020019161092d565b820191906000526020600020905b81548152906001019060200180831161091057829003601f168201915b5050505050905090565b600080610942611e8e565b6001600160a01b0316141561098c576040805162461bcd60e51b815260206004820152601c6024820152600080516020613656833981519152604482015290519081900360640190fd5b6001600160a01b0383166109e7576040805162461bcd60e51b815260206004820152601e60248201527f5370656e6465722063616e6e6f74206265207a65726f20616464726573730000604482015290519081900360640190fd5b81601860006109f4611e8e565b6001600160a01b03166001600160a01b03168152602001908152602001600020541015610a5f576040805162461bcd60e51b8152602060048201526014602482015273496e73756666696369656e742062616c616e636560601b604482015290519081900360640190fd5b610a71610a6a611e8e565b8484611e92565b5060015b92915050565b610a83611e8e565b6000546001600160a01b03908116911614610ad3576040805162461bcd60e51b81526020600482018190526024820152600080516020613600833981519152604482015290519081900360640190fd5b600e5415610b60576001600160a01b038116610b205760405162461bcd60e51b81526004018080602001828103825260368152602001806136206036913960400191505060405180910390fd5b601780546001600160a01b0319166001600160a01b038381169190911791829055166000908152601b60205260409020805460ff19166001179055610b71565b601780546001600160a01b03191690555b50565b6000610b7e611e8e565b6000546001600160a01b03908116911614610bce576040805162461bcd60e51b81526020600482018190526024820152600080516020613600833981519152604482015290519081900360640190fd5b503060009081526018602052604090205490565b60075490565b6017546001600160a01b031690565b601f54600160a81b900460ff1681565b60006001600160a01b038416610c52576040805162461bcd60e51b815260206004820152601c6024820152600080516020613656833981519152604482015290519081900360640190fd5b6001600160a01b038316610cad576040805162461bcd60e51b815260206004820181905260248201527f526563697069656e742063616e6e6f74206265207a65726f2061646472657373604482015290519081900360640190fd5b610cb8848484611fec565b610d2884610cc4611e8e565b610d2385604051806060016040528060218152602001613589602191396001600160a01b038a166000908152601a6020526040812090610d02611e8e565b6001600160a01b0316815260208101919091526040016000205491906121e8565b611e92565b5060019392505050565b610d3a611e8e565b6000546001600160a01b03908116911614610d8a576040805162461bcd60e51b81526020600482018190526024820152600080516020613600833981519152604482015290519081900360640190fd5b8051600414610de0576040805162461bcd60e51b815260206004820152601c60248201527f4e6f7420656e6f75676820656c656d656e747320696e20617272617900000000604482015290519081900360640190fd5b610dfd81600081518110610df057fe5b602002602001015161227f565b610e1a81600181518110610e0d57fe5b6020026020010151612284565b610e3781600281518110610e2a57fe5b6020026020010151612289565b610b7181600381518110610e4757fe5b602002602001015161228e565b60165490565b610e62611e8e565b6000546001600160a01b03908116911614610eb2576040805162461bcd60e51b81526020600482018190526024820152600080516020613600833981519152604482015290519081900360640190fd5b6001600160a01b0381166000908152601c602052604090205460ff16610f1f576040805162461bcd60e51b815260206004820152601b60248201527f4163636f756e7420697320616c726561647920696e636c756465640000000000604482015290519081900360640190fd5b60005b601d5481101561101757816001600160a01b0316601d8281548110610f4357fe5b6000918252602090912001546001600160a01b0316141561100f57601d80546000198101908110610f7057fe5b600091825260209091200154601d80546001600160a01b039092169183908110610f9657fe5b600091825260208083209190910180546001600160a01b0319166001600160a01b039485161790559184168152601882526040808220829055601c90925220805460ff19169055601d805480610fe857fe5b600082815260209020810160001990810180546001600160a01b0319169055019055611017565b600101610f22565b5050565b6000610a71611028611e8e565b84610d2385601a6000611039611e8e565b6001600160a01b03908116825260208083019390935260409182016000908120918c168152925290205490612293565b611071611e8e565b6000546001600160a01b039081169116146110c1576040805162461bcd60e51b81526020600482018190526024820152600080516020613600833981519152604482015290519081900360640190fd5b6001600160a01b03166000908152601b60205260409020805460ff19166001179055565b6110ed611e8e565b6000546001600160a01b0390811691161461113d576040805162461bcd60e51b81526020600482018190526024820152600080516020613600833981519152604482015290519081900360640190fd5b6001600160a01b0381166000908152601c602052604090205460ff16156111ab576040805162461bcd60e51b815260206004820152601b60248201527f4163636f756e7420697320616c7265616479206578636c756465640000000000604482015290519081900360640190fd5b6001600160a01b03811660009081526019602052604090205415611205576001600160a01b0381166000908152601960205260409020546111eb90611e39565b6001600160a01b0382166000908152601860205260409020555b6001600160a01b03166000818152601c60205260408120805460ff19166001908117909155601d805491820181559091527f6d4407e7be21f808e6509aa9fa9143369579dd7d760fe20a2c09680fc146134f0180546001600160a01b0319169091179055565b6001600160a01b0381166112c6576040805162461bcd60e51b815260206004820152601f60248201527f45524332303a204e6577204f776e65722063616e6e6f74206265207a65726f00604482015290519081900360640190fd5b600960165587516005906112e19060049060208c01906133cd565b5087516112f59060059060208b01906133cd565b50600687905560165461131890600a0a61131289620f42406122f4565b906122f4565b60078190556000198161132757fe5b0619600855600654600090611342906113128461271061234d565b60165490915061135c90600a0a61131283620f42406122f4565b60155560165461137690600a0a61131289620f42406122f4565b6009556113828361238f565b6000849050806001600160a01b031663c45a01556040518163ffffffff1660e01b815260040160206040518083038186803b1580156113c057600080fd5b505afa1580156113d4573d6000803e3d6000fd5b505050506040513d60208110156113ea57600080fd5b5051604080516315ab88c960e31b815290516001600160a01b039283169263c9c653969230929186169163ad5c464891600480820192602092909190829003018186803b15801561143a57600080fd5b505afa15801561144e573d6000803e3d6000fd5b505050506040513d602081101561146457600080fd5b5051604080516001600160e01b031960e086901b1681526001600160a01b0393841660048201529290911660248301525160448083019260209291908290030181600087803b1580156114b657600080fd5b505af11580156114ca573d6000803e3d6000fd5b505050506040513d60208110156114e057600080fd5b5051601f80546001600160a01b03199081166001600160a01b0393841617909155601e80549091168383161790556007549085166000908152601860209081526040808320939093556008546019825283832055601b9052818120805460ff19908116600190811790925530835292909120805490921617905586516115659061227f565b602087015161157390612284565b604087015161158190612289565b606087015161158f9061228e565b601780546001600160a01b0319166001600160a01b0388811691909117909155601f546040805130815291909216602082015281517f9e89f982e2561a2acd5603851db0695c2bcdf5ef5e1463c08cf70b79a3333b2b929181900390910190a15050505050505050505050565b6000600754831115611655576040805162461bcd60e51b815260206004820152601f60248201527f416d6f756e74206d757374206265206c657373207468616e20737570706c7900604482015290519081900360640190fd5b8161167657600061166584612423565b50909750610a759650505050505050565b600061168184612423565b509750610a759650505050505050565b611699611e8e565b6000546001600160a01b039081169116146116e9576040805162461bcd60e51b81526020600482018190526024820152600080516020613600833981519152604482015290519081900360640190fd5b610b716116f4611e8e565b82612470565b60006001600160a01b038216611757576040805162461bcd60e51b815260206004820181905260248201527f42616c616e6365207265717565737420666f72207a65726f2061646472657373604482015290519081900360640190fd5b6001600160a01b0382166000908152601c602052604090205460ff161561179757506001600160a01b0381166000908152601860205260409020546117bc565b6001600160a01b0382166000908152601960205260409020546117b990611e39565b90505b919050565b6117c9611e8e565b6000546001600160a01b03908116911614611819576040805162461bcd60e51b81526020600482018190526024820152600080516020613600833981519152604482015290519081900360640190fd5b600080546040516001600160a01b03909116907f8be0079c531659141344cd1fd0a4f28419497f9722a3daafe3b4186f6b6457e0908390a3600080546001600160a01b0319169055565b61186b61344b565b61187361344b565b505060408051606081018252601254815260135460208201526014549181019190915290565b6001600160a01b03166000908152601c602052604090205460ff1690565b6000546001600160a01b031690565b60058054604080516020601f600260001961010060018816150201909516949094049384018190048102820181019092528281526060939092909183018282801561092d5780601f106109025761010080835404028352916020019161092d565b6000610a71611934611e8e565b84610d238560405180604001604052806014815260200173416c6c6f77616e63652062656c6f77207a65726f60601b815250601a6000611972611e8e565b6001600160a01b03908116825260208083019390935260409182016000908120918d168152925290205491906121e8565b601f546001600160a01b031681565b601f546001600160a01b031690565b60006001600160a01b038316611a1e576040805162461bcd60e51b815260206004820152601f60248201527f43616e6e6f74207472616e7366657220746f207a65726f206164647265737300604482015290519081900360640190fd5b610a71338484611fec565b611a31613469565b611a39613469565b505060408051608081018252600a548152600c54602082015260105491810191909152600e54606082015290565b611a6f611e8e565b6000546001600160a01b03908116911614611abf576040805162461bcd60e51b81526020600482018190526024820152600080516020613600833981519152604482015290519081900360640190fd5b601f8054821515600160a01b810260ff60a01b199092169190911790915560408051918252517f53726dfcaf90650aa7eb35524f4d3220f07413c8d6cb404cc8c18bf5591bc1599181900360200190a150565b611b1a611e8e565b6000546001600160a01b03908116911614611b6a576040805162461bcd60e51b81526020600482018190526024820152600080516020613600833981519152604482015290519081900360640190fd5b611b8a6064611b84836007546122f490919063ffffffff16565b9061234d565b60095550565b60095490565b6000816001600160a01b0316836001600160a01b03161415611be95760405162461bcd60e51b815260040180806020018281038252602481526020018061349d6024913960400191505060405180910390fd5b6001600160a01b038316611c32576040805162461bcd60e51b815260206004820152601c6024820152600080516020613656833981519152604482015290519081900360640190fd5b6001600160a01b038216611c8d576040805162461bcd60e51b815260206004820152601e60248201527f5370656e6465722063616e6e6f74206265207a65726f20616464726573730000604482015290519081900360640190fd5b506001600160a01b039182166000908152601a6020908152604080832093909416825291909152205490565b611cc1611e8e565b6000546001600160a01b03908116911614611d11576040805162461bcd60e51b81526020600482018190526024820152600080516020613600833981519152604482015290519081900360640190fd5b6001600160a01b03166000908152601b60205260409020805460ff19169055565b611d3a611e8e565b6000546001600160a01b03908116911614611d8a576040805162461bcd60e51b81526020600482018190526024820152600080516020613600833981519152604482015290519081900360640190fd5b6001600160a01b038116611dcf5760405162461bcd60e51b81526004018080602001828103825260268152602001806135316026913960400191505060405180910390fd5b600080546040516001600160a01b03808516939216917f8be0079c531659141344cd1fd0a4f28419497f9722a3daafe3b4186f6b6457e091a3600080546001600160a01b0319166001600160a01b0392909216919091179055565b601e546001600160a01b031681565b6000600854821115611e7c5760405162461bcd60e51b81526004018080602001828103825260358152602001806135aa6035913960400191505060405180910390fd5b6117b9611e8761247c565b839061234d565b3390565b6001600160a01b038316611edb576040805162461bcd60e51b815260206004820152601c6024820152600080516020613656833981519152604482015290519081900360640190fd5b6001600160a01b038216611f36576040805162461bcd60e51b815260206004820152601e60248201527f5370656e6465722063616e6e6f74206265207a65726f20616464726573730000604482015290519081900360640190fd5b6001600160a01b038084166000908152601a602090815260408083209386168352929052205415611f8a576001600160a01b038084166000908152601a602090815260408083209386168352929052908120555b6001600160a01b038084166000818152601a6020908152604080832094871680845294825291829020859055815185815291517f8c5be1e5ebec7d5bd14f71427d1e84f3dd0314c0f7b2291e5b200ac8c7c3b9259281900390910190a3505050565b6001600160a01b0383166120315760405162461bcd60e51b81526004018080602001828103825260248152602001806134c16024913960400191505060405180910390fd5b816001600160a01b0316836001600160a01b03161415612098576040805162461bcd60e51b815260206004820152601d60248201527f53656e64657220616e6420726563697069656e74207468652073616d65000000604482015290519081900360640190fd5b6120a06118b7565b6001600160a01b0316836001600160a01b0316141580156120da57506120c46118b7565b6001600160a01b0316826001600160a01b031614155b15612120576009548111156121205760405162461bcd60e51b81526004018080602001828103825260328152602001806135576032913960400191505060405180910390fd5b600061212b306116fa565b905060155481101580156121495750601f54600160a81b900460ff16155b80156121635750601f546001600160a01b03858116911614155b80156121785750601f54600160a01b900460ff165b1561218a575060155461218a8161249f565b6001600160a01b0384166000908152601b602052604090205460019060ff16806121cc57506001600160a01b0384166000908152601b602052604090205460ff165b156121d5575060005b6121e185858584612545565b5050505050565b600081848411156122775760405162461bcd60e51b81526004018080602001828103825283818151815260200191508051906020019080838360005b8381101561223c578181015183820152602001612224565b50505050905090810190601f1680156122695780820380516001836020036101000a031916815260200191505b509250505060405180910390fd5b505050900390565b600a55565b600c55565b600e55565b601055565b6000828201838110156122ed576040805162461bcd60e51b815260206004820152601b60248201527f536166654d6174683a206164646974696f6e206f766572666c6f770000000000604482015290519081900360640190fd5b9392505050565b60008261230357506000610a75565b8282028284828161231057fe5b04146122ed5760405162461bcd60e51b81526004018080602001828103825260218152602001806135df6021913960400191505060405180910390fd5b60006122ed83836040518060400160405280601a81526020017f536166654d6174683a206469766973696f6e206279207a65726f000000000000815250612667565b60035460ff16156123d15760405162461bcd60e51b815260040180806020018281038252604c8152602001806134e5604c913960600191505060405180910390fd5b6003805460ff191660011790556001600160a01b038116611dcf5760405162461bcd60e51b81526004018080602001828103825260268152602001806135316026913960400191505060405180910390fd5b600080600080600080600080612438896126cc565b939b50919950975095509350612459898888888861245461247c565b612722565b809350819450829550505050919395975091939597565b61101782600083611fec565b600080600061248961278a565b9092509050612498818361234d565b9250505090565b601f805460ff60a81b1916600160a81b17905560006124bf82600261234d565b905060006124cd83836128ed565b9050476124d98361292f565b60006124e547836128ed565b90506124f18382612add565b604080518581526020810183905280820185905290517f17bbfb9a6069321b6ded73bd96327c9e6b7212a5cd51ff219cd61370acafb5619181900360600190a15050601f805460ff60a81b19169055505050565b8061255257612552612baa565b6001600160a01b0384166000908152601c602052604090205460ff16801561259357506001600160a01b0383166000908152601c602052604090205460ff16155b156125a8576125a3848484612bf1565b612654565b6001600160a01b0384166000908152601c602052604090205460ff161580156125e957506001600160a01b0383166000908152601c602052604090205460ff165b156125f9576125a3848484612e04565b6001600160a01b0384166000908152601c602052604090205460ff16801561263957506001600160a01b0383166000908152601c602052604090205460ff165b15612649576125a3848484612f2b565b612654848484613089565b8061266157612661613142565b50505050565b600081836126b65760405162461bcd60e51b815260206004820181815283516024840152835190928392604490910191908501908083836000831561223c578181015183820152602001612224565b5060008385816126c257fe5b0495945050505050565b60008060008060006126dd8661315c565b93506126e886613178565b92506126f386613194565b91506126fe866131b0565b905061271881612712848187818c8b6128ed565b906128ed565b9693955091935091565b600080808061273188866122f4565b9050600061273f88876122f4565b9050600061274d88886122f4565b90506127598c886122f4565b95506127658b886122f4565b935061277981612712848187818c8b6128ed565b945050505096509650969350505050565b6007546008546000918291825b601d548110156128bb578160196000601d84815481106127b357fe5b60009182526020808320909101546001600160a01b03168352820192909252604001902054118061281857508260186000601d84815481106127f157fe5b60009182526020808320909101546001600160a01b03168352820192909252604001902054115b1561282f57600754600854945094505050506128e9565b61286f60186000601d848154811061284357fe5b60009182526020808320909101546001600160a01b0316835282019290925260400190205484906128ed565b92506128b160196000601d848154811061288557fe5b60009182526020808320909101546001600160a01b0316835282019290925260400190205483906128ed565b9150600101612797565b506007546008546128cb9161234d565b8110156128e3576007546008549350935050506128e9565b90925090505b9091565b60006122ed83836040518060400160405280601e81526020017f536166654d6174683a207375627472616374696f6e206f766572666c6f7700008152506121e8565b6040805160028082526060808301845292602083019080368337019050509050308160008151811061295d57fe5b6001600160a01b03928316602091820292909201810191909152601e54604080516315ab88c960e31b81529051919093169263ad5c4648926004808301939192829003018186803b1580156129b157600080fd5b505afa1580156129c5573d6000803e3d6000fd5b505050506040513d60208110156129db57600080fd5b50518151829060019081106129ec57fe5b6001600160a01b039283166020918202929092010152601e54612a129130911684611e92565b601e5460405163791ac94760e01b8152600481018481526000602483018190523060648401819052426084850181905260a060448601908152875160a487015287516001600160a01b039097169663791ac947968a968a9594939092909160c40190602080880191028083838b5b83811015612a98578181015183820152602001612a80565b505050509050019650505050505050600060405180830381600087803b158015612ac157600080fd5b505af1158015612ad5573d6000803e3d6000fd5b505050505050565b601e54612af59030906001600160a01b031684611e92565b601e546001600160a01b031663f305d719823085600080612b146118b7565b426040518863ffffffff1660e01b815260040180876001600160a01b03168152602001868152602001858152602001848152602001836001600160a01b0316815260200182815260200196505050505050506060604051808303818588803b158015612b7f57600080fd5b505af1158015612b93573d6000803e3d6000fd5b50505050506040513d606081101561266157600080fd5b600a54158015612bba5750600c54155b15612bc457612bef565b600a8054600b55600c8054600d55600e8054600f556010805460115560009384905591839055829055555b565b600080600080600080600080612c0689612423565b9750975097509750975097509750975082601960008d6001600160a01b03166001600160a01b03168152602001908152602001600020541015612c90576040805162461bcd60e51b815260206004820152601f60248201527f496e73756666696369656e74207265666c656374696f6e2062616c616e636500604482015290519081900360640190fd5b6001600160a01b038b16600090815260186020526040902054891115612cfd576040805162461bcd60e51b815260206004820152601a60248201527f496e73756666696369656e7420746f6b656e2062616c616e6365000000000000604482015290519081900360640190fd5b6001600160a01b038b16600090815260186020526040902054612d20908a6128ed565b6001600160a01b038c16600090815260186020908152604080832093909355601990522054612d4f90846128ed565b6001600160a01b03808d1660009081526019602052604080822093909355908c1681522054612d7e9083612293565b6001600160a01b038b16600090815260196020526040902055612da0866131cc565b612dac81888787613255565b896001600160a01b03168b6001600160a01b03167fddf252ad1be2c89b69c2b068fc378daa952ba7f163c4a11628f55a4df523b3ef8a6040518082815260200191505060405180910390a35050505050505050505050565b600080600080600080600080612e1989612423565b9750975097509750975097509750975082601960008d6001600160a01b03166001600160a01b03168152602001908152602001600020541015612ea3576040805162461bcd60e51b815260206004820152601f60248201527f496e73756666696369656e74207265666c656374696f6e2062616c616e636500604482015290519081900360640190fd5b6001600160a01b038b16600090815260196020526040902054612ec690846128ed565b6001600160a01b03808d16600090815260196020908152604080832094909455918d16815260189091522054612efc9089612293565b6001600160a01b038b16600090815260186020908152604080832093909355601990522054612d7e9083612293565b600080600080600080600080612f4089612423565b9750975097509750975097509750975082601960008d6001600160a01b03166001600160a01b03168152602001908152602001600020541015612fca576040805162461bcd60e51b815260206004820152601f60248201527f496e73756666696369656e74207265666c656374696f6e2062616c616e636500604482015290519081900360640190fd5b6001600160a01b038b16600090815260186020526040902054891115613037576040805162461bcd60e51b815260206004820152601a60248201527f496e73756666696369656e7420746f6b656e2062616c616e6365000000000000604482015290519081900360640190fd5b6001600160a01b038b1660009081526018602052604090205461305a908a6128ed565b6001600160a01b038c16600090815260186020908152604080832093909355601990522054612ec690846128ed565b60008060008060008060008061309e89612423565b9750975097509750975097509750975082601960008d6001600160a01b03166001600160a01b0316815260200190815260200160002054101561311f576040805162461bcd60e51b8152602060048201526014602482015273496e73756666696369656e742062616c616e636560601b604482015290519081900360640190fd5b6001600160a01b038b16600090815260196020526040902054612d4f90846128ed565b600b54600a55600d54600c55600f54600e55601154601055565b60006117b96064611b84600a54856122f490919063ffffffff16565b60006117b96064611b84600c54856122f490919063ffffffff16565b60006117b96064611b84600e54856122f490919063ffffffff16565b60006117b96064611b84601054856122f490919063ffffffff16565b60006131d661247c565b905060006131e483836122f4565b306000908152601960205260409020549091506132019082612293565b30600090815260196020908152604080832093909355601c9052205460ff1615613250573060009081526018602052604090205461323f9084612293565b306000908152601860205260409020555b505050565b60085461326290856128ed565b6008556012546132729084612293565b6012556014546132829083612293565b6014556013546132929082612293565b60135561329e826132a7565b61266181613369565b6000600e541180156132b95750600081115b15610b715760006132d26132cb61247c565b83906122f4565b6017546001600160a01b03166000908152601960205260409020549091506132fa9082612293565b601780546001600160a01b039081166000908152601960205260409020929092555416613325611e8e565b6001600160a01b03167fddf252ad1be2c89b69c2b068fc378daa952ba7f163c4a11628f55a4df523b3ef846040518082815260200191505060405180910390a35050565b600060105411801561337b5750600081115b15610b7157600061338a611e8e565b6001600160a01b03167fddf252ad1be2c89b69c2b068fc378daa952ba7f163c4a11628f55a4df523b3ef836040518082815260200191505060405180910390a350565b828054600181600116156101000203166002900490600052602060002090601f016020900481019282601f1061340e57805160ff191683800117855561343b565b8280016001018555821561343b579182015b8281111561343b578251825591602001919060010190613420565b50613447929150613487565b5090565b60405180606001604052806003906020820280368337509192915050565b60405180608001604052806004906020820280368337509192915050565b5b80821115613447576000815560010161348856fe4f776e657220616e64207370656e6465722063616e6e6f74206265207468652073616d655472616e7366657220696e697469617465642066726f6d207a65726f2061646472657373436f6e7472616374206f776e65722068617320616c7265616479206265656e207472616e7366657265642066726f6d20696e697469616c697a656420746f20746865206e6577204f776e65724f776e61626c653a206e6577206f776e657220697320746865207a65726f20616464726573735472616e7366657220616d6f756e742065786365656473206d6178696d756d207472616e73616374696f6e20616d6f756e745472616e7366657220616d6f756e74206578636565647320616c6c6f77616e63655265666c656374696f6e73206d757374206265206c657373207468616e20746f74616c207265666c656374696f6e20737570706c79536166654d6174683a206d756c7469706c69636174696f6e206f766572666c6f774f776e61626c653a2063616c6c6572206973206e6f7420746865206f776e65724368617269747920616464726573732063616e6e6f74206265207a65726f207768656e206368617269747920666565206973207365744f776e65722063616e6e6f74206265207a65726f206164647265737300000000a264697066735822122019fdbc8b089cf659255465175b3ac0bf905ae052a2b2357efb981968391098f864736f6c634300060c0033",
  "immutableReferences": {},
  "source": "// SPDX-License-Identifier: UNLICENSED\npragma solidity ^0.6.12;\n\nimport \"./StandardToken.sol\";\n\n/// @title an Initialized IERC20 Token\n/// @author harshrpg\n/// @notice It is the barebone of a FOT with an additional fee infrastructure\n/// @dev Provide the appropriate init information for all the different fee types\ncontract FotToken is IERC20, Context, Ownable {\n    using SafeMath for uint256;\n    using Address for address;\n\n    string private _name;\n    string private _symbol;\n    uint256 private _basicSupply;\n    uint256 private _totalTokenSupply;\n    uint256 private _totalReflectionSupply;\n    uint256 private _maxTxnAmount;\n    uint256 private _taxFee;\n    uint256 private _previousTaxFee;\n    uint256 private _liquidityFee;\n    uint256 private _previousLiquidityFee;\n    uint256 private _charityFee;\n    uint256 private _previousCharityFee;\n    uint256 private _burnFee;\n    uint256 private _previousBurnFee;\n    uint256 private _totalFeeCharged;\n    uint256 private _totalTokensBurned;\n    uint256 private _totalCharityPaid;\n    uint256 private _numTokensSellToAddToLiquidity;\n    uint256 private _decimals;\n    address private _charityAddress;\n\n    mapping(address => uint256) _balance;\n    mapping(address => uint256) _reflectionBalance;\n    mapping(address => mapping(address => uint256)) _tokensAllowed;\n    mapping(address => bool) private _isExcludedFromFee;\n    mapping(address => bool) private _isExcludedFromReward;\n    address[] private _excludedAccounts;\n\n    uint256 private constant MAX256 = ~uint256(0);\n\n    IUniswapV2Router02 public router;\n    address public pair;\n    bool swapAndLiquifyEnabled = true;\n    bool public inSwapAndLiquify;\n\n    event SwapAndLiquifyEnabledUpdated(bool enabled);\n    event SwapAndLiquify(\n        uint256 tokensSwapped,\n        uint256 ethReceived,\n        uint256 tokensIntoLiqudity\n    );\n    event DexPairCreated(address thisContract, address pairAddress);\n\n    modifier lockTheSwap() {\n        inSwapAndLiquify = true;\n        _;\n        inSwapAndLiquify = false;\n    }\n\n    function init(\n        string memory tokenName,\n        string memory tokenSymbol,\n        uint256 basicSupply,\n        uint256 maxTxnAmount,\n        uint256[4] memory fees,\n        address charityAddress,\n        address dexAddress,\n        address newOwner\n    ) public {\n        require(newOwner != address(0), \"ERC20: New Owner cannot be zero\");\n        _decimals = 9;\n        uint256 _minTokenSellValue = 5;\n        _name = tokenName;\n        _symbol = tokenSymbol;\n        _basicSupply = basicSupply;\n        _totalTokenSupply = _basicSupply.mul(10**6).mul(10**(_decimals)); // 1Q.10^9\n        _totalReflectionSupply = (MAX256 - (MAX256 % _totalTokenSupply)); // Maximum possible number divisible by 1Q\n        uint256 numMinTokensToSell = _minTokenSellValue.div(10**4).mul(_basicSupply);\n        _numTokensSellToAddToLiquidity =\n            numMinTokensToSell.mul(10**6).mul(10**(_decimals));\n        _maxTxnAmount = maxTxnAmount.mul(10**6).mul(10**(_decimals));\n        transferOwnershipFromInitialized(newOwner);\n        IUniswapV2Router02 _router = IUniswapV2Router02(dexAddress);\n        pair = IUniswapV2Factory(_router.factory()).createPair(\n            address(this),\n            _router.WETH()\n        );\n        router = _router;\n        _balance[newOwner] = _totalTokenSupply;\n        _reflectionBalance[newOwner] = _totalReflectionSupply;\n        _isExcludedFromFee[newOwner] = true;\n        _isExcludedFromFee[address(this)] = true;\n        setTaxFee(fees[0]);\n        setLiquidityFeePercent(fees[1]);\n        setCharityFeePercentage(fees[2]);\n        setBurnFeePercentage(fees[3]);\n        _charityAddress = charityAddress;\n        emit DexPairCreated(address(this), pair);\n    }\n\n    function name() public view returns (string memory) {\n        return _name;\n    }\n\n    function decimals() public view returns (uint256) {\n        return _decimals;\n    }\n\n    function symbol() public view returns (string memory) {\n        return _symbol;\n    }\n\n    function totalSupply() public view override returns (uint256) {\n        return _totalTokenSupply;\n    }\n\n    function pairAddress() public view returns (address) {\n        return pair;\n    }\n\n    function amountOfNativeCoinsHeldByContract()\n        external\n        view\n        onlyOwner\n        returns (uint256)\n    {\n        return _balance[address(this)];\n    }\n\n    function burnTokens(uint256 amount) external onlyOwner {\n        _burn(_msgSender(), amount);\n    }\n\n    function _burn(address from, uint256 amount) private {\n        _transfer(from, address(0), amount);\n    }\n\n    function balanceOf(address account) public view override returns (uint256) {\n        require(account != address(0), \"Balance request for zero address\");\n        if (_isExcludedFromReward[account]) {\n            return _balance[account];\n        }\n        return\n            calculateTokenBalanceFromReflectionBalance(\n                _reflectionBalance[account]\n            );\n    }\n\n    function isExcludedFromReward(address account)\n        external\n        view\n        returns (bool)\n    {\n        return _isExcludedFromReward[account];\n    }\n\n    function transfer(address recipient, uint256 amount)\n        public\n        override\n        returns (bool)\n    {\n        require(recipient != address(0), \"Cannot transfer to zero address\");\n        _transfer(msg.sender, recipient, amount);\n        return true;\n    }\n\n    function allowance(address owner, address spender)\n        public\n        view\n        override\n        returns (uint256)\n    {\n        require(owner != spender, \"Owner and spender cannot be the same\");\n        require(owner != address(0), \"Owner cannot be zero address\");\n        require(spender != address(0), \"Spender cannot be zero address\");\n        return _tokensAllowed[owner][spender];\n    }\n\n    function approve(address spender, uint256 amount)\n        public\n        override\n        returns (bool)\n    {\n        require(_msgSender() != address(0), \"Owner cannot be zero address\");\n        require(spender != address(0), \"Spender cannot be zero address\");\n        require(_balance[_msgSender()] >= amount, \"Insufficient balance\");\n        _approve(_msgSender(), spender, amount);\n        return true;\n    }\n\n    function transferFrom(\n        address spender,\n        address recipient,\n        uint256 amount\n    ) public override returns (bool) {\n        require(spender != address(0), \"Owner cannot be zero address\");\n        require(recipient != address(0), \"Recipient cannot be zero address\");\n        _transfer(spender, recipient, amount);\n        _approve(\n            spender,\n            _msgSender(),\n            _tokensAllowed[spender][_msgSender()].sub(\n                amount,\n                \"Transfer amount exceeds allowance\"\n            )\n        );\n        return true;\n    }\n\n    function increaseAllowance(address spender, uint256 addedValue)\n        public\n        returns (bool)\n    {\n        _approve(\n            _msgSender(),\n            spender,\n            _tokensAllowed[_msgSender()][spender].add(addedValue)\n        );\n        return true;\n    }\n\n    function decreaseAllowance(address spender, uint256 subtractedValue)\n        public\n        returns (bool)\n    {\n        _approve(\n            _msgSender(),\n            spender,\n            _tokensAllowed[_msgSender()][spender].sub(\n                subtractedValue,\n                \"Allowance below zero\"\n            )\n        );\n        return true;\n    }\n\n    function calculateReflectionBalanceFromTokenBalance(\n        uint256 txnAmountRequested,\n        bool deductTransferFee\n    ) public view returns (uint256) {\n        require(\n            txnAmountRequested <= _totalTokenSupply,\n            \"Amount must be less than supply\"\n        );\n        if (!deductTransferFee) {\n            (\n                ,\n                ,\n                ,\n                ,\n                ,\n                uint256 reflections,\n                ,\n\n            ) = _calculateTransactionAndReflectionsAfterFees(\n                    txnAmountRequested\n                );\n            return reflections;\n        } else {\n            (\n                ,\n                ,\n                ,\n                ,\n                ,\n                ,\n                uint256 reflectionTransfer,\n\n            ) = _calculateTransactionAndReflectionsAfterFees(\n                    txnAmountRequested\n                );\n            return reflectionTransfer;\n        }\n    }\n\n    function excludeFromReward(address account) public onlyOwner {\n        require(!_isExcludedFromReward[account], \"Account is already excluded\");\n        if (_reflectionBalance[account] > 0) {\n            _balance[account] = calculateTokenBalanceFromReflectionBalance(\n                _reflectionBalance[account]\n            );\n        }\n        _isExcludedFromReward[account] = true;\n        _excludedAccounts.push(account);\n    }\n\n    function includeInReward(address account) public onlyOwner {\n        require(_isExcludedFromReward[account], \"Account is already included\");\n        for (uint256 index = 0; index < _excludedAccounts.length; index++) {\n            if (_excludedAccounts[index] == account) {\n                _excludedAccounts[index] = _excludedAccounts[\n                    _excludedAccounts.length - 1\n                ];\n                _balance[account] = 0;\n                _isExcludedFromReward[account] = false;\n                _excludedAccounts.pop();\n                break;\n            }\n        }\n    }\n\n    function excludeFromFee(address account) external onlyOwner {\n        _isExcludedFromFee[account] = true;\n    }\n\n    function includeInFee(address account) external onlyOwner {\n        _isExcludedFromFee[account] = false;\n    }\n\n    function setCharityAddress(address payable charityAddress)\n        external\n        onlyOwner\n    {\n        if (_charityFee > 0) {\n            require(\n                charityAddress != address(0),\n                \"Charity address cannot be zero when charity fee is set\"\n            );\n            _charityAddress = charityAddress;\n            _isExcludedFromFee[_charityAddress] = true;\n        } else {\n            _charityAddress = address(0);\n        }\n    }\n\n    function setFees(uint256[] memory fees) external onlyOwner {\n        require(fees.length == 4, \"Not enough elements in array\");\n        setTaxFee(fees[0]);\n        setLiquidityFeePercent(fees[1]);\n        setCharityFeePercentage(fees[2]);\n        setBurnFeePercentage(fees[3]);\n    }\n\n    function setTaxFee(uint256 taxFee) private {\n        _taxFee = taxFee;\n    }\n\n    function setLiquidityFeePercent(uint256 liquidityFee) private {\n        _liquidityFee = liquidityFee;\n    }\n\n    function setCharityFeePercentage(uint256 charityFee) private {\n        _charityFee = charityFee;\n    }\n\n    function setBurnFeePercentage(uint256 burnFee) private {\n        _burnFee = burnFee;\n    }\n\n    function setMaxTxPercent(uint256 maxTxPercent) external onlyOwner {\n        _maxTxnAmount = _totalTokenSupply.mul(maxTxPercent).div(10**2);\n    }\n\n    function setSwapAndLiquifyEnabled(bool _enabled) external onlyOwner {\n        swapAndLiquifyEnabled = _enabled;\n        emit SwapAndLiquifyEnabledUpdated(_enabled);\n    }\n\n    function getAllFees() public view returns (uint256[4] memory) {\n        uint256[4] memory fees = [\n            _taxFee,\n            _liquidityFee,\n            _burnFee,\n            _charityFee\n        ];\n        return fees;\n    }\n\n    function getAllFeesChargedBurnedAndCharitized()\n        public\n        view\n        returns (uint256[3] memory)\n    {\n        uint256[3] memory feesCharged = [\n            _totalFeeCharged,\n            _totalTokensBurned,\n            _totalCharityPaid\n        ];\n        return feesCharged;\n    }\n\n    function getCharityAddress() public view returns (address) {\n        return _charityAddress;\n    }\n\n    function getWhaleProtection() public view returns (uint256) {\n        return _maxTxnAmount;\n    }\n\n    // Private methods\n\n    function _approve(\n        address owner,\n        address spender,\n        uint256 amount\n    ) private {\n        require(owner != address(0), \"Owner cannot be zero address\");\n        require(spender != address(0), \"Spender cannot be zero address\");\n        if (_tokensAllowed[owner][spender] != 0) {\n            _tokensAllowed[owner][spender] = 0;\n        }\n        _tokensAllowed[owner][spender] = amount;\n        emit Approval(owner, spender, amount);\n    }\n\n    function _transfer(\n        address from,\n        address to,\n        uint256 amount\n    ) private {\n        require(from != address(0), \"Transfer initiated from zero address\");\n        require(from != to, \"Sender and recipient the same\");\n        if (from != owner() && to != owner()) {\n            require(\n                amount <= _maxTxnAmount,\n                \"Transfer amount exceeds maximum transaction amount\"\n            );\n        }\n        // what is the contract's liquidity value?\n        uint256 contractTokenBalance = balanceOf(address(this));\n        if (\n            contractTokenBalance >= _numTokensSellToAddToLiquidity &&\n            !inSwapAndLiquify &&\n            from != pair &&\n            swapAndLiquifyEnabled\n        ) {\n            contractTokenBalance = _numTokensSellToAddToLiquidity;\n            swapAndLiquify(contractTokenBalance);\n        }\n        bool takeFee = true;\n        if (_isExcludedFromFee[from] || _isExcludedFromFee[to]) {\n            takeFee = false;\n        }\n        _transferTokens(from, to, amount, takeFee);\n    }\n\n    function swapAndLiquify(uint256 contractTokenBalance) private lockTheSwap {\n        uint256 half = contractTokenBalance.div(2);\n        uint256 otherHalf = contractTokenBalance.sub(half);\n        uint256 initialEthBalance = address(this).balance;\n        swapTokensForEth(half);\n        uint256 newEthBalance = address(this).balance.sub(initialEthBalance);\n        addLiquidity(otherHalf, newEthBalance);\n        emit SwapAndLiquify(half, newEthBalance, otherHalf);\n    }\n\n    function swapTokensForEth(uint256 tokens) private {\n        address[] memory path = new address[](2);\n        path[0] = address(this);\n        path[1] = router.WETH();\n\n        _approve(address(this), address(router), tokens);\n\n        router.swapExactTokensForETHSupportingFeeOnTransferTokens(\n            tokens,\n            0,\n            path,\n            address(this),\n            block.timestamp\n        );\n    }\n\n    function addLiquidity(uint256 tokens, uint256 eths) private {\n        _approve(address(this), address(router), tokens);\n        router.addLiquidityETH{value: eths}(\n            address(this),\n            tokens,\n            0,\n            0,\n            owner(),\n            block.timestamp\n        );\n    }\n\n    function _transferTokens(\n        address from,\n        address to,\n        uint256 amount,\n        bool takeFee\n    ) private {\n        if (!takeFee) {\n            removeAllFee();\n        }\n        if (_isExcludedFromReward[from] && !_isExcludedFromReward[to]) {\n            _transferFromExcludedAccount(from, to, amount);\n        } else if (!_isExcludedFromReward[from] && _isExcludedFromReward[to]) {\n            _transferToExcludedAccount(from, to, amount);\n        } else if (_isExcludedFromReward[from] && _isExcludedFromReward[to]) {\n            _transferBothExcludedAccount(from, to, amount);\n        } else {\n            _trasnferStandard(from, to, amount);\n        }\n\n        if (!takeFee) {\n            restoreAllFees();\n        }\n    }\n\n    function _transferFromExcludedAccount(\n        address from,\n        address to,\n        uint256 amount\n    ) private {\n        (\n            uint256 tokenTransfer,\n            uint256 tokenTransferFee,\n            uint256 tokenLiquidityFee,\n            uint256 tokenCharityFee,\n            uint256 tokenBurnFee,\n            uint256 reflections,\n            uint256 reflectionTransfer,\n            uint256 reflectionFee\n        ) = _calculateTransactionAndReflectionsAfterFees(amount);\n        require(\n            _reflectionBalance[from] >= reflections,\n            \"Insufficient reflection balance\"\n        );\n        require(_balance[from] >= amount, \"Insufficient token balance\");\n        _balance[from] = _balance[from].sub(amount);\n        _reflectionBalance[from] = _reflectionBalance[from].sub(reflections);\n        _reflectionBalance[to] = _reflectionBalance[to].add(reflectionTransfer);\n        _takeLiquidityFromTransaction(tokenLiquidityFee);\n        _reflectFee(\n            reflectionFee,\n            tokenTransferFee,\n            tokenCharityFee,\n            tokenBurnFee\n        );\n        emit Transfer(from, to, tokenTransfer);\n    }\n\n    function _transferToExcludedAccount(\n        address from,\n        address to,\n        uint256 amount\n    ) private {\n        (\n            uint256 tokenTransfer,\n            uint256 tokenTransferFee,\n            uint256 tokenLiquidityFee,\n            uint256 tokenCharityFee,\n            uint256 tokenBurnFee,\n            uint256 reflections,\n            uint256 reflectionTransfer,\n            uint256 reflectionFee\n        ) = _calculateTransactionAndReflectionsAfterFees(amount);\n        require(\n            _reflectionBalance[from] >= reflections,\n            \"Insufficient reflection balance\"\n        );\n        _reflectionBalance[from] = _reflectionBalance[from].sub(reflections);\n        _balance[to] = _balance[to].add(tokenTransfer);\n        _reflectionBalance[to] = _reflectionBalance[to].add(reflectionTransfer);\n        _takeLiquidityFromTransaction(tokenLiquidityFee);\n        _reflectFee(\n            reflectionFee,\n            tokenTransferFee,\n            tokenCharityFee,\n            tokenBurnFee\n        );\n        emit Transfer(from, to, tokenTransfer);\n    }\n\n    function _transferBothExcludedAccount(\n        address from,\n        address to,\n        uint256 amount\n    ) private {\n        (\n            uint256 tokenTransfer,\n            uint256 tokenTransferFee,\n            uint256 tokenLiquidityFee,\n            uint256 tokenCharityFee,\n            uint256 tokenBurnFee,\n            uint256 reflections,\n            uint256 reflectionTransfer,\n            uint256 reflectionFee\n        ) = _calculateTransactionAndReflectionsAfterFees(amount);\n        require(\n            _reflectionBalance[from] >= reflections,\n            \"Insufficient reflection balance\"\n        );\n        require(_balance[from] >= amount, \"Insufficient token balance\");\n        _balance[from] = _balance[from].sub(amount);\n        _reflectionBalance[from] = _reflectionBalance[from].sub(reflections);\n        _balance[to] = _balance[to].add(tokenTransfer);\n        _reflectionBalance[to] = _reflectionBalance[to].add(reflectionTransfer);\n        _takeLiquidityFromTransaction(tokenLiquidityFee);\n        _reflectFee(\n            reflectionFee,\n            tokenTransferFee,\n            tokenCharityFee,\n            tokenBurnFee\n        );\n        emit Transfer(from, to, tokenTransfer);\n    }\n\n    function _trasnferStandard(\n        address from,\n        address to,\n        uint256 amount\n    ) private {\n        (\n            uint256 tokenTransfer,\n            uint256 tokenTransferFee,\n            uint256 tokenLiquidityFee,\n            uint256 tokenCharityFee,\n            uint256 tokenBurnFee,\n            uint256 reflections,\n            uint256 reflectionTransfer,\n            uint256 reflectionFee\n        ) = _calculateTransactionAndReflectionsAfterFees(amount);\n        require(\n            _reflectionBalance[from] >= reflections,\n            \"Insufficient balance\"\n        );\n        _reflectionBalance[from] = _reflectionBalance[from].sub(reflections);\n        _reflectionBalance[to] = _reflectionBalance[to].add(reflectionTransfer);\n        _takeLiquidityFromTransaction(tokenLiquidityFee);\n        _reflectFee(\n            reflectionFee,\n            tokenTransferFee,\n            tokenCharityFee,\n            tokenBurnFee\n        );\n        emit Transfer(from, to, tokenTransfer);\n    }\n\n    // Utils\n\n    function removeAllFee() private {\n        if (_taxFee == 0 && _liquidityFee == 0) {\n            return;\n        }\n        _previousTaxFee = _taxFee;\n        _previousLiquidityFee = _liquidityFee;\n        _previousCharityFee = _charityFee;\n        _previousBurnFee = _burnFee;\n        _taxFee = 0;\n        _liquidityFee = 0;\n        _charityFee = 0;\n        _burnFee = 0;\n    }\n\n    function restoreAllFees() private {\n        _taxFee = _previousTaxFee;\n        _liquidityFee = _previousLiquidityFee;\n        _charityFee = _previousCharityFee;\n        _burnFee = _previousBurnFee;\n    }\n\n    function _calculateTransactionAndReflectionsAfterFees(\n        uint256 txnAmountRequested\n    )\n        private\n        view\n        returns (\n            uint256 tokenTransfer,\n            uint256 tokenTransferFee,\n            uint256 tokenLiquidityFee,\n            uint256 tokenCharityFee,\n            uint256 tokenBurnFee,\n            uint256 reflections,\n            uint256 reflectionTransfer,\n            uint256 reflectionFee\n        )\n    {\n        (\n            tokenTransfer,\n            tokenTransferFee,\n            tokenLiquidityFee,\n            tokenCharityFee,\n            tokenBurnFee\n        ) = _calculateTokenTransferAndFees(txnAmountRequested);\n        (\n            reflections,\n            reflectionTransfer,\n            reflectionFee\n        ) = _calculateReflectionTransfersAndFees(\n            txnAmountRequested,\n            tokenTransferFee,\n            tokenLiquidityFee,\n            tokenCharityFee,\n            tokenBurnFee,\n            _calculateRateOfSupply()\n        );\n    }\n\n    function _calculateTokenTransferAndFees(uint256 txnAmountRequested)\n        private\n        view\n        returns (\n            uint256 tokenTransfer,\n            uint256 tokenFee,\n            uint256 tokenLiquidityFee,\n            uint256 tokenCharityFee,\n            uint256 tokenBurnFee\n        )\n    {\n        tokenFee = _calculateTokenTaxFee(txnAmountRequested);\n        tokenLiquidityFee = _calculateTokenLiquidityFee(txnAmountRequested);\n        tokenCharityFee = _calculateTokenCharityFee(txnAmountRequested);\n        tokenBurnFee = _calculateTokenBurnFee(txnAmountRequested);\n        tokenTransfer = txnAmountRequested\n            .sub(tokenFee)\n            .sub(tokenLiquidityFee)\n            .sub(tokenCharityFee)\n            .sub(tokenBurnFee);\n    }\n\n    function _calculateReflectionTransfersAndFees(\n        uint256 txnAmountRequested,\n        uint256 tokenTransferFee,\n        uint256 tokenLiquidityFee,\n        uint256 tokenCharityFee,\n        uint256 tokenBurnFee,\n        uint256 currentRate\n    )\n        private\n        pure\n        returns (\n            uint256 reflections,\n            uint256 reflectionTransfer,\n            uint256 reflectionFee\n        )\n    {\n        uint256 reflectionLiquidity = tokenLiquidityFee.mul(currentRate);\n        uint256 reflectionCharity = tokenCharityFee.mul(currentRate);\n        uint256 reflectionBurn = tokenBurnFee.mul(currentRate);\n        reflections = txnAmountRequested.mul(currentRate);\n        reflectionFee = tokenTransferFee.mul(currentRate);\n        reflectionTransfer = reflections\n            .sub(reflectionFee)\n            .sub(reflectionLiquidity)\n            .sub(reflectionCharity)\n            .sub(reflectionBurn);\n    }\n\n    function _calculateTokenTaxFee(uint256 txnAmountRequested)\n        private\n        view\n        returns (uint256)\n    {\n        return txnAmountRequested.mul(_taxFee).div(10**2);\n    }\n\n    function _calculateTokenLiquidityFee(uint256 txnAmountRequested)\n        private\n        view\n        returns (uint256)\n    {\n        return txnAmountRequested.mul(_liquidityFee).div(10**2);\n    }\n\n    function _calculateTokenCharityFee(uint256 txnAmountRequested)\n        private\n        view\n        returns (uint256)\n    {\n        return txnAmountRequested.mul(_charityFee).div(10**2);\n    }\n\n    function _calculateTokenBurnFee(uint256 txnAmountRequested)\n        private\n        view\n        returns (uint256)\n    {\n        return txnAmountRequested.mul(_burnFee).div(10**2);\n    }\n\n    function _calculateRateOfSupply() private view returns (uint256) {\n        (\n            uint256 tokenSupply,\n            uint256 reflectionSupply\n        ) = _calculateCurrentSupply();\n        return reflectionSupply.div(tokenSupply);\n    }\n\n    function _calculateCurrentSupply() private view returns (uint256, uint256) {\n        uint256 tokenSupply = _totalTokenSupply;\n        uint256 reflectionSupply = _totalReflectionSupply;\n        for (uint256 index = 0; index < _excludedAccounts.length; index++) {\n            if (\n                _reflectionBalance[_excludedAccounts[index]] >\n                reflectionSupply ||\n                _balance[_excludedAccounts[index]] > tokenSupply\n            ) {\n                return (_totalTokenSupply, _totalReflectionSupply);\n            }\n            tokenSupply = tokenSupply.sub(_balance[_excludedAccounts[index]]);\n            reflectionSupply = reflectionSupply.sub(\n                _reflectionBalance[_excludedAccounts[index]]\n            );\n        }\n        if (reflectionSupply < _totalReflectionSupply.div(_totalTokenSupply)) {\n            return (_totalTokenSupply, _totalReflectionSupply);\n        }\n        return (tokenSupply, reflectionSupply);\n    }\n\n    function _takeLiquidityFromTransaction(uint256 tokenLiquidityFee) private {\n        uint256 currentRate = _calculateRateOfSupply();\n        uint256 reflectionLiquidity = tokenLiquidityFee.mul(currentRate);\n        _reflectionBalance[address(this)] = _reflectionBalance[address(this)]\n            .add(reflectionLiquidity);\n        if (_isExcludedFromReward[address(this)]) {\n            _balance[address(this)] = _balance[address(this)].add(\n                tokenLiquidityFee\n            );\n        }\n    }\n\n    function _reflectFee(\n        uint256 reflectionFee,\n        uint256 tokenTransferFee,\n        uint256 tokenCharityFee,\n        uint256 tokenBurnFee\n    ) private {\n        _totalReflectionSupply = _totalReflectionSupply.sub(reflectionFee);\n        _totalFeeCharged = _totalFeeCharged.add(tokenTransferFee);\n        _totalCharityPaid = _totalCharityPaid.add(tokenCharityFee);\n        _totalTokensBurned = _totalTokensBurned.add(tokenBurnFee);\n        sendToCharity(tokenCharityFee);\n        automaticBurn(tokenBurnFee);\n    }\n\n    function automaticBurn(uint256 amount) private {\n        if (_burnFee > 0 && amount > 0) {\n            emit Transfer(_msgSender(), address(0), amount);\n        }\n    }\n\n    function sendToCharity(uint256 amount) private {\n        if (_charityFee > 0 && amount > 0) {\n            uint256 reflectionCharity = amount.mul(_calculateRateOfSupply());\n            _reflectionBalance[_charityAddress] = _reflectionBalance[\n                _charityAddress\n            ].add(reflectionCharity);\n            emit Transfer(_msgSender(), _charityAddress, amount);\n        }\n    }\n\n    function calculateTokenBalanceFromReflectionBalance(\n        uint256 reflectionBalance\n    ) public view returns (uint256) {\n        require(\n            reflectionBalance <= _totalReflectionSupply,\n            \"Reflections must be less than total reflection supply\"\n        );\n        return reflectionBalance.div(_calculateRateOfSupply());\n    }\n}\n",
  "sourcePath": "/home/harsh/usr/projects_learning/projects/x2mars/smart-contracts/token-maker/contracts/FotToken.sol",
  "compiler": {
    "name": "solc",
    "version": "0.6.12+commit.27d51765.Emscripten.clang"
  },
  "schemaVersion": "3.3.4",
  "updatedAt": "2021-09-03T21:53:58.052Z",
  "devdoc": {
    "author": "harshrpg",
    "details": "Provide the appropriate init information for all the different fee types",
    "kind": "dev",
    "methods": {
      "allowance(address,address)": {
        "details": "Returns the remaining number of tokens that `spender` will be allowed to spend on behalf of `owner` through {transferFrom}. This is zero by default. This value changes when {approve} or {transferFrom} are called."
      },
      "approve(address,uint256)": {
        "details": "Sets `amount` as the allowance of `spender` over the caller's tokens. Returns a boolean value indicating whether the operation succeeded. IMPORTANT: Beware that changing an allowance with this method brings the risk that someone may use both the old and the new allowance by unfortunate transaction ordering. One possible solution to mitigate this race condition is to first reduce the spender's allowance to 0 and set the desired value afterwards: https://github.com/ethereum/EIPs/issues/20#issuecomment-263524729 Emits an {Approval} event."
      },
      "balanceOf(address)": {
        "details": "Returns the amount of tokens owned by `account`."
      },
      "owner()": {
        "details": "Returns the address of the current owner."
      },
      "renounceOwnership()": {
        "details": "Leaves the contract without owner. It will not be possible to call `onlyOwner` functions anymore. Can only be called by the current owner. NOTE: Renouncing ownership will leave the contract without an owner, thereby removing any functionality that is only available to the owner."
      },
      "transfer(address,uint256)": {
        "details": "Moves `amount` tokens from the caller's account to `recipient`. Returns a boolean value indicating whether the operation succeeded. Emits a {Transfer} event."
      },
      "transferOwnership(address)": {
        "details": "Transfers ownership of the contract to a new account (`newOwner`). Can only be called by the current owner."
      }
    },
    "title": "an Initialized IERC20 Token",
    "version": 1
  },
  "userdoc": {
    "kind": "user",
    "methods": {},
    "notice": "It is the barebone of a FOT with an additional fee infrastructure",
    "version": 1
  }
}