{
    "contractName": "FotTokenFactory",
    "abi": [
        {
            "inputs": [
                {
                    "internalType": "address payable",
                    "name": "contractToClone",
                    "type": "address"
                }
            ],
            "stateMutability": "nonpayable",
            "type": "constructor"
        },
        {
            "anonymous": false,
            "inputs": [
                {
                    "indexed": true,
                    "internalType": "address",
                    "name": "previousOwner",
                    "type": "address"
                },
                {
                    "indexed": true,
                    "internalType": "address",
                    "name": "newOwner",
                    "type": "address"
                }
            ],
            "name": "OwnershipTransferred",
            "type": "event"
        },
        {
            "anonymous": false,
            "inputs": [
                {
                    "indexed": false,
                    "internalType": "address",
                    "name": "id",
                    "type": "address"
                },
                {
                    "indexed": false,
                    "internalType": "address",
                    "name": "newTokenAddress",
                    "type": "address"
                }
            ],
            "name": "TokenCreated",
            "type": "event"
        },
        {
            "inputs": [],
            "name": "clone",
            "outputs": [
                {
                    "internalType": "address payable",
                    "name": "",
                    "type": "address"
                }
            ],
            "stateMutability": "view",
            "type": "function",
            "constant": true
        },
        {
            "inputs": [],
            "name": "owner",
            "outputs": [
                {
                    "internalType": "address",
                    "name": "",
                    "type": "address"
                }
            ],
            "stateMutability": "view",
            "type": "function",
            "constant": true
        },
        {
            "inputs": [],
            "name": "renounceOwnership",
            "outputs": [],
            "stateMutability": "nonpayable",
            "type": "function"
        },
        {
            "inputs": [
                {
                    "internalType": "address",
                    "name": "newOwner",
                    "type": "address"
                }
            ],
            "name": "transferOwnership",
            "outputs": [],
            "stateMutability": "nonpayable",
            "type": "function"
        },
        {
            "inputs": [
                {
                    "internalType": "string",
                    "name": "name",
                    "type": "string"
                },
                {
                    "internalType": "string",
                    "name": "symbol",
                    "type": "string"
                },
                {
                    "internalType": "uint256",
                    "name": "basicSupply",
                    "type": "uint256"
                },
                {
                    "internalType": "uint256",
                    "name": "decimals",
                    "type": "uint256"
                },
                {
                    "internalType": "uint256",
                    "name": "multiplier",
                    "type": "uint256"
                },
                {
                    "internalType": "uint256",
                    "name": "numMinTokensToSell",
                    "type": "uint256"
                },
                {
                    "internalType": "uint256",
                    "name": "maxTxnAmount",
                    "type": "uint256"
                },
                {
                    "internalType": "address",
                    "name": "dexAddress",
                    "type": "address"
                }
            ],
            "name": "createToken",
            "outputs": [],
            "stateMutability": "payable",
            "type": "function",
            "payable": true
        }
    ],
    "bytecode": "0x60806040526003805460ff1916905534801561001a57600080fd5b506040516107923803806107928339818101604052602081101561003d57600080fd5b505160006100496100be565b600080546001600160a01b0319166001600160a01b0383169081178255604051929350917f8be0079c531659141344cd1fd0a4f28419497f9722a3daafe3b4186f6b6457e0908290a350600380546001600160a01b0390921661010002610100600160a81b03199092169190911790556100c2565b3390565b6106c1806100d16000396000f3fe60806040526004361061004a5760003560e01c806309ed46071461004f578063715018a6146100805780638da5cb5b14610097578063ea7be261146100ac578063f2fde38b14610200575b600080fd5b34801561005b57600080fd5b50610064610233565b604080516001600160a01b039092168252519081900360200190f35b34801561008c57600080fd5b50610095610242565b005b3480156100a357600080fd5b506100646102f6565b61009560048036036101008110156100c357600080fd5b8101906020810181356401000000008111156100de57600080fd5b8201836020820111156100f057600080fd5b8035906020019184600183028401116401000000008311171561011257600080fd5b91908080601f016020809104026020016040519081016040528093929190818152602001838380828437600092019190915250929594936020810193503591505064010000000081111561016557600080fd5b82018360208201111561017757600080fd5b8035906020019184600183028401116401000000008311171561019957600080fd5b91908080601f0160208091040260200160405190810160405280939291908181526020018383808284376000920191909152509295505082359350505060208101359060408101359060608101359060808101359060a001356001600160a01b0316610305565b34801561020c57600080fd5b506100956004803603602081101561022357600080fd5b50356001600160a01b0316610505565b6005546001600160a01b031681565b61024a61060f565b6000546001600160a01b039081169116146102ac576040805162461bcd60e51b815260206004820181905260248201527f4f776e61626c653a2063616c6c6572206973206e6f7420746865206f776e6572604482015290519081900360640190fd5b600080546040516001600160a01b03909116907f8be0079c531659141344cd1fd0a4f28419497f9722a3daafe3b4186f6b6457e0908390a3600080546001600160a01b0319169055565b6000546001600160a01b031690565b60035461031f9061010090046001600160a01b0316610613565b600580546001600160a01b0319166001600160a01b039283161790819055166370222573898989898989898961035361060f565b6040518a63ffffffff1660e01b81526004018080602001806020018a8152602001898152602001888152602001878152602001868152602001856001600160a01b03168152602001846001600160a01b0316815260200183810383528c818151815260200191508051906020019080838360005b838110156103df5781810151838201526020016103c7565b50505050905090810190601f16801561040c5780820380516001836020036101000a031916815260200191505b5083810382528b5181528b516020918201918d019080838360005b8381101561043f578181015183820152602001610427565b50505050905090810190601f16801561046c5780820380516001836020036101000a031916815260200191505b509b505050505050505050505050600060405180830381600087803b15801561049457600080fd5b505af11580156104a8573d6000803e3d6000fd5b505050507fd5f9bdf12adf29dab0248c349842c3822d53ae2bb4f36352f301630d018c81396104d561060f565b600554604080516001600160a01b0393841681529290911660208301528051918290030190a15050505050505050565b61050d61060f565b6000546001600160a01b0390811691161461056f576040805162461bcd60e51b815260206004820181905260248201527f4f776e61626c653a2063616c6c6572206973206e6f7420746865206f776e6572604482015290519081900360640190fd5b6001600160a01b0381166105b45760405162461bcd60e51b81526004018080602001828103825260268152602001806106666026913960400191505060405180910390fd5b600080546040516001600160a01b03808516939216917f8be0079c531659141344cd1fd0a4f28419497f9722a3daafe3b4186f6b6457e091a3600080546001600160a01b0319166001600160a01b0392909216919091179055565b3390565b6000808260601b9050604051733d602d80600a3d3981f3363d3d373d3d3d363d7360601b81528160148201526e5af43d82803e903d91602b57fd5bf360881b60288201526037816000f094935050505056fe4f776e61626c653a206e6577206f776e657220697320746865207a65726f2061646472657373a2646970667358221220f30fe5dc36f657c459b5e3ec72f9c204090d5e48e6757a445aced352b1e7375d64736f6c634300060c0033",
    "immutableReferences": {},
    "source": "// SPDX-License-Identifier: UNLICENSED\npragma solidity 0.6.12;\n\nimport \"./FotToken.sol\";\nimport \"./StandardToken.sol\";\nimport \"./StandardTokenFactory.sol\";\n\ncontract FotTokenFactory is Ownable, CloneFactory {\n    address payable private masterContract;\n    event TokenCreated(address id, address newTokenAddress);\n    address newOwner;\n    address payable public clone;\n    constructor (address payable contractToClone) public {\n        masterContract = contractToClone;\n    }\n    function createToken(\n        string memory name,\n        string memory symbol,\n        uint256 basicSupply,\n        uint256 decimals,\n        uint256 multiplier,\n        uint256 numMinTokensToSell,\n        uint256 maxTxnAmount,\n        address dexAddress\n    ) public payable {\n        clone = createClone(masterContract);\n        FotToken(clone).init(\n            name,\n            symbol,\n            basicSupply,\n            decimals,\n            multiplier,\n            numMinTokensToSell,\n            maxTxnAmount,\n            dexAddress,\n            _msgSender()\n        );\n        emit TokenCreated(_msgSender(), clone);\n    }\n}\n",
    "sourcePath": "/home/harsh/usr/projects_learning/projects/x2mars/smart-contracts/token-maker/contracts/FotTokenFactory.sol",
    "compiler": {
        "name": "solc",
        "version": "0.6.12+commit.27d51765.Emscripten.clang"
    },
    "schemaVersion": "3.3.4",
    "updatedAt": "2021-09-03T09:50:59.813Z",
    "networkType": "ethereum",
    "devdoc": {
        "kind": "dev",
        "methods": {
            "owner()": {
                "details": "Returns the address of the current owner."
            },
            "renounceOwnership()": {
                "details": "Leaves the contract without owner. It will not be possible to call `onlyOwner` functions anymore. Can only be called by the current owner. NOTE: Renouncing ownership will leave the contract without an owner, thereby removing any functionality that is only available to the owner."
            },
            "transferOwnership(address)": {
                "details": "Transfers ownership of the contract to a new account (`newOwner`). Can only be called by the current owner."
            }
        },
        "version": 1
    },
    "userdoc": {
        "kind": "user",
        "methods": {},
        "version": 1
    }
}