{
  "contractName": "FotToken",
  "abi": [
    {
      "anonymous": false,
      "inputs": [
        {
          "indexed": true,
          "internalType": "address",
          "name": "owner",
          "type": "address"
        },
        {
          "indexed": true,
          "internalType": "address",
          "name": "spender",
          "type": "address"
        },
        {
          "indexed": false,
          "internalType": "uint256",
          "name": "value",
          "type": "uint256"
        }
      ],
      "name": "Approval",
      "type": "event"
    },
    {
      "anonymous": false,
      "inputs": [
        {
          "indexed": false,
          "internalType": "address",
          "name": "thisContract",
          "type": "address"
        },
        {
          "indexed": false,
          "internalType": "address",
          "name": "pairAddress",
          "type": "address"
        }
      ],
      "name": "DexPairCreated",
      "type": "event"
    },
    {
      "anonymous": false,
      "inputs": [
        {
          "indexed": true,
          "internalType": "address",
          "name": "previousOwner",
          "type": "address"
        },
        {
          "indexed": true,
          "internalType": "address",
          "name": "newOwner",
          "type": "address"
        }
      ],
      "name": "OwnershipTransferred",
      "type": "event"
    },
    {
      "anonymous": false,
      "inputs": [
        {
          "indexed": false,
          "internalType": "uint256",
          "name": "tokensSwapped",
          "type": "uint256"
        },
        {
          "indexed": false,
          "internalType": "uint256",
          "name": "ethReceived",
          "type": "uint256"
        },
        {
          "indexed": false,
          "internalType": "uint256",
          "name": "tokensIntoLiqudity",
          "type": "uint256"
        }
      ],
      "name": "SwapAndLiquify",
      "type": "event"
    },
    {
      "anonymous": false,
      "inputs": [
        {
          "indexed": false,
          "internalType": "bool",
          "name": "enabled",
          "type": "bool"
        }
      ],
      "name": "SwapAndLiquifyEnabledUpdated",
      "type": "event"
    },
    {
      "anonymous": false,
      "inputs": [
        {
          "indexed": true,
          "internalType": "address",
          "name": "from",
          "type": "address"
        },
        {
          "indexed": true,
          "internalType": "address",
          "name": "to",
          "type": "address"
        },
        {
          "indexed": false,
          "internalType": "uint256",
          "name": "value",
          "type": "uint256"
        }
      ],
      "name": "Transfer",
      "type": "event"
    },
    {
      "inputs": [],
      "name": "_name",
      "outputs": [
        {
          "internalType": "string",
          "name": "",
          "type": "string"
        }
      ],
      "stateMutability": "view",
      "type": "function"
    },
    {
      "inputs": [],
      "name": "inSwapAndLiquify",
      "outputs": [
        {
          "internalType": "bool",
          "name": "",
          "type": "bool"
        }
      ],
      "stateMutability": "view",
      "type": "function"
    },
    {
      "inputs": [],
      "name": "owner",
      "outputs": [
        {
          "internalType": "address",
          "name": "",
          "type": "address"
        }
      ],
      "stateMutability": "view",
      "type": "function"
    },
    {
      "inputs": [],
      "name": "pair",
      "outputs": [
        {
          "internalType": "address",
          "name": "",
          "type": "address"
        }
      ],
      "stateMutability": "view",
      "type": "function"
    },
    {
      "inputs": [],
      "name": "renounceOwnership",
      "outputs": [],
      "stateMutability": "nonpayable",
      "type": "function"
    },
    {
      "inputs": [],
      "name": "router",
      "outputs": [
        {
          "internalType": "contract IUniswapV2Router02",
          "name": "",
          "type": "address"
        }
      ],
      "stateMutability": "view",
      "type": "function"
    },
    {
      "inputs": [
        {
          "internalType": "address",
          "name": "newOwner",
          "type": "address"
        }
      ],
      "name": "transferOwnership",
      "outputs": [],
      "stateMutability": "nonpayable",
      "type": "function"
    },
    {
      "inputs": [
        {
          "internalType": "string",
          "name": "tokenName",
          "type": "string"
        },
        {
          "internalType": "string",
          "name": "tokenSymbol",
          "type": "string"
        },
        {
          "internalType": "uint256",
          "name": "basicSupply",
          "type": "uint256"
        },
        {
          "internalType": "uint256",
          "name": "maxTxnAmount",
          "type": "uint256"
        },
        {
          "internalType": "uint256[4]",
          "name": "fees",
          "type": "uint256[4]"
        },
        {
          "internalType": "address",
          "name": "charityAddress",
          "type": "address"
        },
        {
          "internalType": "address",
          "name": "dexAddress",
          "type": "address"
        },
        {
          "internalType": "address",
          "name": "newOwner",
          "type": "address"
        }
      ],
      "name": "init",
      "outputs": [],
      "stateMutability": "nonpayable",
      "type": "function"
    },
    {
      "inputs": [],
      "name": "name",
      "outputs": [
        {
          "internalType": "string",
          "name": "",
          "type": "string"
        }
      ],
      "stateMutability": "view",
      "type": "function"
    },
    {
      "inputs": [],
      "name": "decimals",
      "outputs": [
        {
          "internalType": "uint256",
          "name": "",
          "type": "uint256"
        }
      ],
      "stateMutability": "view",
      "type": "function"
    },
    {
      "inputs": [],
      "name": "symbol",
      "outputs": [
        {
          "internalType": "string",
          "name": "",
          "type": "string"
        }
      ],
      "stateMutability": "view",
      "type": "function"
    },
    {
      "inputs": [],
      "name": "totalSupply",
      "outputs": [
        {
          "internalType": "uint256",
          "name": "",
          "type": "uint256"
        }
      ],
      "stateMutability": "view",
      "type": "function"
    },
    {
      "inputs": [],
      "name": "pairAddress",
      "outputs": [
        {
          "internalType": "address",
          "name": "",
          "type": "address"
        }
      ],
      "stateMutability": "view",
      "type": "function"
    },
    {
      "inputs": [],
      "name": "amountOfNativeCoinsHeldByContract",
      "outputs": [
        {
          "internalType": "uint256",
          "name": "",
          "type": "uint256"
        }
      ],
      "stateMutability": "view",
      "type": "function"
    },
    {
      "inputs": [
        {
          "internalType": "uint256",
          "name": "amount",
          "type": "uint256"
        }
      ],
      "name": "burnTokens",
      "outputs": [],
      "stateMutability": "nonpayable",
      "type": "function"
    },
    {
      "inputs": [
        {
          "internalType": "address",
          "name": "account",
          "type": "address"
        }
      ],
      "name": "balanceOf",
      "outputs": [
        {
          "internalType": "uint256",
          "name": "",
          "type": "uint256"
        }
      ],
      "stateMutability": "view",
      "type": "function"
    },
    {
      "inputs": [
        {
          "internalType": "address",
          "name": "account",
          "type": "address"
        }
      ],
      "name": "isExcludedFromReward",
      "outputs": [
        {
          "internalType": "bool",
          "name": "",
          "type": "bool"
        }
      ],
      "stateMutability": "view",
      "type": "function"
    },
    {
      "inputs": [
        {
          "internalType": "address",
          "name": "recipient",
          "type": "address"
        },
        {
          "internalType": "uint256",
          "name": "amount",
          "type": "uint256"
        }
      ],
      "name": "transfer",
      "outputs": [
        {
          "internalType": "bool",
          "name": "",
          "type": "bool"
        }
      ],
      "stateMutability": "nonpayable",
      "type": "function"
    },
    {
      "inputs": [
        {
          "internalType": "address",
          "name": "owner",
          "type": "address"
        },
        {
          "internalType": "address",
          "name": "spender",
          "type": "address"
        }
      ],
      "name": "allowance",
      "outputs": [
        {
          "internalType": "uint256",
          "name": "",
          "type": "uint256"
        }
      ],
      "stateMutability": "view",
      "type": "function"
    },
    {
      "inputs": [
        {
          "internalType": "address",
          "name": "spender",
          "type": "address"
        },
        {
          "internalType": "uint256",
          "name": "amount",
          "type": "uint256"
        }
      ],
      "name": "approve",
      "outputs": [
        {
          "internalType": "bool",
          "name": "",
          "type": "bool"
        }
      ],
      "stateMutability": "nonpayable",
      "type": "function"
    },
    {
      "inputs": [
        {
          "internalType": "address",
          "name": "spender",
          "type": "address"
        },
        {
          "internalType": "address",
          "name": "recipient",
          "type": "address"
        },
        {
          "internalType": "uint256",
          "name": "amount",
          "type": "uint256"
        }
      ],
      "name": "transferFrom",
      "outputs": [
        {
          "internalType": "bool",
          "name": "",
          "type": "bool"
        }
      ],
      "stateMutability": "nonpayable",
      "type": "function"
    },
    {
      "inputs": [
        {
          "internalType": "address",
          "name": "spender",
          "type": "address"
        },
        {
          "internalType": "uint256",
          "name": "addedValue",
          "type": "uint256"
        }
      ],
      "name": "increaseAllowance",
      "outputs": [
        {
          "internalType": "bool",
          "name": "",
          "type": "bool"
        }
      ],
      "stateMutability": "nonpayable",
      "type": "function"
    },
    {
      "inputs": [
        {
          "internalType": "address",
          "name": "spender",
          "type": "address"
        },
        {
          "internalType": "uint256",
          "name": "subtractedValue",
          "type": "uint256"
        }
      ],
      "name": "decreaseAllowance",
      "outputs": [
        {
          "internalType": "bool",
          "name": "",
          "type": "bool"
        }
      ],
      "stateMutability": "nonpayable",
      "type": "function"
    },
    {
      "inputs": [
        {
          "internalType": "uint256",
          "name": "txnAmountRequested",
          "type": "uint256"
        },
        {
          "internalType": "bool",
          "name": "deductTransferFee",
          "type": "bool"
        }
      ],
      "name": "calculateReflectionBalanceFromTokenBalance",
      "outputs": [
        {
          "internalType": "uint256",
          "name": "",
          "type": "uint256"
        }
      ],
      "stateMutability": "view",
      "type": "function"
    },
    {
      "inputs": [
        {
          "internalType": "address",
          "name": "account",
          "type": "address"
        }
      ],
      "name": "excludeFromReward",
      "outputs": [],
      "stateMutability": "nonpayable",
      "type": "function"
    },
    {
      "inputs": [
        {
          "internalType": "address",
          "name": "account",
          "type": "address"
        }
      ],
      "name": "includeInReward",
      "outputs": [],
      "stateMutability": "nonpayable",
      "type": "function"
    },
    {
      "inputs": [
        {
          "internalType": "address",
          "name": "account",
          "type": "address"
        }
      ],
      "name": "excludeFromFee",
      "outputs": [],
      "stateMutability": "nonpayable",
      "type": "function"
    },
    {
      "inputs": [
        {
          "internalType": "address",
          "name": "account",
          "type": "address"
        }
      ],
      "name": "includeInFee",
      "outputs": [],
      "stateMutability": "nonpayable",
      "type": "function"
    },
    {
      "inputs": [
        {
          "internalType": "address payable",
          "name": "charityAddress",
          "type": "address"
        }
      ],
      "name": "setCharityAddress",
      "outputs": [],
      "stateMutability": "nonpayable",
      "type": "function"
    },
    {
      "inputs": [
        {
          "internalType": "uint256[]",
          "name": "fees",
          "type": "uint256[]"
        }
      ],
      "name": "setFees",
      "outputs": [],
      "stateMutability": "nonpayable",
      "type": "function"
    },
    {
      "inputs": [
        {
          "internalType": "uint256",
          "name": "maxTxnAmount",
          "type": "uint256"
        }
      ],
      "name": "setMaxTxAmount",
      "outputs": [],
      "stateMutability": "nonpayable",
      "type": "function"
    },
    {
      "inputs": [
        {
          "internalType": "bool",
          "name": "_enabled",
          "type": "bool"
        }
      ],
      "name": "setSwapAndLiquifyEnabled",
      "outputs": [],
      "stateMutability": "nonpayable",
      "type": "function"
    },
    {
      "inputs": [],
      "name": "getAllFees",
      "outputs": [
        {
          "internalType": "uint256[4]",
          "name": "",
          "type": "uint256[4]"
        }
      ],
      "stateMutability": "view",
      "type": "function"
    },
    {
      "inputs": [],
      "name": "getAllFeesChargedBurnedAndCharitized",
      "outputs": [
        {
          "internalType": "uint256[3]",
          "name": "",
          "type": "uint256[3]"
        }
      ],
      "stateMutability": "view",
      "type": "function"
    },
    {
      "inputs": [],
      "name": "getCharityAddress",
      "outputs": [
        {
          "internalType": "address",
          "name": "",
          "type": "address"
        }
      ],
      "stateMutability": "view",
      "type": "function"
    },
    {
      "inputs": [],
      "name": "getWhaleProtection",
      "outputs": [
        {
          "internalType": "uint256",
          "name": "",
          "type": "uint256"
        }
      ],
      "stateMutability": "view",
      "type": "function"
    },
    {
      "inputs": [
        {
          "internalType": "uint256",
          "name": "reflectionBalance",
          "type": "uint256"
        }
      ],
      "name": "calculateTokenBalanceFromReflectionBalance",
      "outputs": [
        {
          "internalType": "uint256",
          "name": "",
          "type": "uint256"
        }
      ],
      "stateMutability": "view",
      "type": "function"
    }
  ],
  "bytecode": "0x60806040526003805460ff19169055601e805460ff60a01b1916600160a01b17905534801561002d57600080fd5b506000610038610087565b600080546001600160a01b0319166001600160a01b0383169081178255604051929350917f8be0079c531659141344cd1fd0a4f28419497f9722a3daafe3b4186f6b6457e0908290a35061008b565b3390565b612fa8806200009b6000396000f3fe608060405234801561001057600080fd5b50600436106102775760003560e01c8063715018a611610160578063b20feaaf116100d8578063ea2f0b371161008c578063f2fde38b11610071578063f2fde38b146104b6578063f887ea40146104c9578063ffe50bfa146104d157610277565b8063ea2f0b3714610490578063ec28438a146104a357610277565b8063d28d8852116100bd578063d28d88521461046d578063d871e25214610475578063dd62ed3e1461047d57610277565b8063b20feaaf14610445578063c49b9a801461045a57610277565b806395d89b411161012f578063a8aa1b3111610114578063a8aa1b3114610422578063a8b089821461042a578063a9059cbb1461043257610277565b806395d89b4114610407578063a457c2d71461040f57610277565b8063715018a6146103cf5780637f72ab12146103d757806388f82020146103ec5780638da5cb5b146103ff57610277565b8063313ce567116101f357806352390c02116101c2578063690323f6116101a7578063690323f6146103965780636d1b229d146103a957806370a08231146103bc57610277565b806352390c021461037057806365b647141461038357610277565b8063313ce5671461032f5780633685d41914610337578063395093511461034a578063437823ec1461035d57610277565b806318160ddd1161024a578063220f66961161022f578063220f66961461030157806323b872dd146103095780632ae0357f1461031c57610277565b806318160ddd146102e45780631ad06393146102ec57610277565b806306fdde031461027c578063095ea7b31461029a5780630c9be46d146102ba578063118fb5d3146102cf575b600080fd5b6102846104e4565b60405161029191906128be565b60405180910390f35b6102ad6102a8366004612596565b610576565b60405161029191906128b3565b6102cd6102c83660046124e6565b6105e9565b005b6102d7610645565b6040516102919190612c61565b6102d7610658565b6102f461065e565b60405161029191906127f1565b6102ad61066d565b6102ad610317366004612556565b61067d565b6102cd61032a3660046125c1565b610705565b6102d76107e5565b6102cd6103453660046124e6565b6107eb565b6102ad610358366004612596565b610981565b6102cd61036b3660046124e6565b6109cf565b6102cd61037e3660046124e6565b6109f3565b6102cd610391366004612682565b610aec565b6102d76103a4366004612799565b610df5565b6102cd6103b7366004612781565b610e55565b6102d76103ca3660046124e6565b610e66565b6102cd610ed0565b6103df610f4f565b604051610291919061285a565b6102ad6103fa3660046124e6565b610f7c565b6102f4610f9a565b610284610fa9565b6102ad61041d366004612596565b610fb8565b6102f461103d565b6102f461104c565b6102ad610440366004612596565b61105b565b61044d611068565b604051610291919061288b565b6102cd610468366004612668565b61109d565b61028461111b565b6102d76111a9565b6102d761048b36600461251e565b6111af565b6102cd61049e3660046124e6565b61120f565b6102cd6104b1366004612781565b611230565b6102cd6104c43660046124e6565b611248565b6102f46112fe565b6102d76104df366004612781565b61130d565b6060600480546104f390612e90565b80601f016020809104026020016040519081016040528092919081815260200182805461051f90612e90565b801561056c5780601f106105415761010080835404028352916020019161056c565b820191906000526020600020905b81548152906001019060200180831161054f57829003601f168201915b5050505050905090565b60008160176000610585611321565b6001600160a01b03166001600160a01b031681526020019081526020016000205410156105cd5760405162461bcd60e51b81526004016105c490612ae2565b60405180910390fd5b6105df6105d8611321565b8484611325565b5060015b92915050565b600d541561063157601680546001600160a01b0319166001600160a01b038381169190911791829055166000908152601a60205260409020805460ff19166001179055610642565b601680546001600160a01b03191690555b50565b3060009081526017602052604090205490565b60065490565b6016546001600160a01b031690565b601e54600160a81b900460ff1681565b600061068a8484846113e1565b6106fa84610696611321565b6106f585604051806060016040528060218152602001612f52602191396001600160a01b038a166000908152601960205260408120906106d4611321565b6001600160a01b031681526020810191909152604001600020549190611563565b611325565b5060015b9392505050565b80516004146107265760405162461bcd60e51b81526004016105c490612c2a565b8060008151811061074757634e487b7160e01b600052603260045260246000fd5b60200260200101516009819055508060018151811061077657634e487b7160e01b600052603260045260246000fd5b6020026020010151600b81905550806003815181106107a557634e487b7160e01b600052603260045260246000fd5b6020026020010151600d81905550806002815181106107d457634e487b7160e01b600052603260045260246000fd5b6020026020010151600f8190555050565b60155490565b6001600160a01b0381166000908152601b602052604090205460ff166108235760405162461bcd60e51b81526004016105c490612b19565b60005b601c5481101561097d57816001600160a01b0316601c828154811061085b57634e487b7160e01b600052603260045260246000fd5b6000918252602090912001546001600160a01b0316141561096b57601c805461088690600190612e79565b815481106108a457634e487b7160e01b600052603260045260246000fd5b600091825260209091200154601c80546001600160a01b0390921691839081106108de57634e487b7160e01b600052603260045260246000fd5b600091825260208083209190910180546001600160a01b0319166001600160a01b039485161790559184168152601782526040808220829055601b90925220805460ff19169055601c80548061094457634e487b7160e01b600052603160045260246000fd5b600082815260209020810160001990810180546001600160a01b031916905501905561097d565b8061097581612ecb565b915050610826565b5050565b60006105df61098e611321565b846106f5856019600061099f611321565b6001600160a01b03908116825260208083019390935260409182016000908120918c16815292529020549061158f565b6001600160a01b03166000908152601a60205260409020805460ff19166001179055565b6001600160a01b0381166000908152601b602052604090205460ff1615610a2c5760405162461bcd60e51b81526004016105c490612aab565b6001600160a01b03811660009081526018602052604090205415610a86576001600160a01b038116600090815260186020526040902054610a6c9061130d565b6001600160a01b0382166000908152601760205260409020555b6001600160a01b03166000818152601b60205260408120805460ff19166001908117909155601c805491820181559091527f0e4562a10381dec21b205ed72637e6b1b523bdd0e4d4d50af5cd23dd4500a2110180546001600160a01b0319169091179055565b60126015558751600590610b079060049060208c019061238b565b508751610b1b9060059060208b019061238b565b50610b35601554600a610b2e9190612d8c565b889061159b565b6006819055610b4690600019612ee6565b610b5290600019612e79565b6007556000610b6d88610b67846127106115a7565b9061159b565b9050610b88601554600a610b819190612d8c565b829061159b565b601455601554610b9d90610b2e90600a612d8c565b600855610ba9836115b3565b6000849050806001600160a01b031663c45a01556040518163ffffffff1660e01b815260040160206040518083038186803b158015610be757600080fd5b505afa158015610bfb573d6000803e3d6000fd5b505050506040513d601f19601f82011682018060405250810190610c1f9190612502565b6001600160a01b031663c9c6539630836001600160a01b031663ad5c46486040518163ffffffff1660e01b815260040160206040518083038186803b158015610c6757600080fd5b505afa158015610c7b573d6000803e3d6000fd5b505050506040513d601f19601f82011682018060405250810190610c9f9190612502565b6040518363ffffffff1660e01b8152600401610cbc929190612805565b602060405180830381600087803b158015610cd657600080fd5b505af1158015610cea573d6000803e3d6000fd5b505050506040513d601f19601f82011682018060405250810190610d0e9190612502565b601e80546001600160a01b03199081166001600160a01b03938416178255601d805482168585161790556006548784166000908152601760209081526040808320939093556007546018825283832055601a8152828220805460ff1990811660019081179092553080855293859020805490911690911790558c516009558c0151600b5560608c0151600d558b820151600f55601680549093168b861617909255915491517f9e89f982e2561a2acd5603851db0695c2bcdf5ef5e1463c08cf70b79a3333b2b93610de0931690612805565b60405180910390a15050505050505050505050565b6000600654831115610e195760405162461bcd60e51b81526004016105c490612b50565b81610e3a576000610e2984611609565b509097506105e39650505050505050565b6000610e4584611609565b5097506105e39650505050505050565b610642610e60611321565b82611656565b6001600160a01b0381166000908152601b602052604081205460ff1615610ea657506001600160a01b038116600090815260176020526040902054610ecb565b6001600160a01b038216600090815260186020526040902054610ec89061130d565b90505b919050565b610ed8611321565b6000546001600160a01b03908116911614610f055760405162461bcd60e51b81526004016105c490612b87565b600080546040516001600160a01b03909116907f8be0079c531659141344cd1fd0a4f28419497f9722a3daafe3b4186f6b6457e0908390a3600080546001600160a01b0319169055565b610f5761240f565b5060408051606081018252601154815260125460208201526013549181019190915290565b6001600160a01b03166000908152601b602052604090205460ff1690565b6000546001600160a01b031690565b6060600580546104f390612e90565b60006105df610fc5611321565b846106f5856040518060400160405280601481526020017f416c6c6f77616e63652062656c6f77207a65726f0000000000000000000000008152506019600061100c611321565b6001600160a01b03908116825260208083019390935260409182016000908120918d16815292529020549190611563565b601e546001600160a01b031681565b601e546001600160a01b031690565b60006105df3384846113e1565b61107061242d565b50604080516080810182526009548152600b546020820152600f5491810191909152600d54606082015290565b601e80547fffffffffffffffffffffff00ffffffffffffffffffffffffffffffffffffffff1674010000000000000000000000000000000000000000831515021790556040517f53726dfcaf90650aa7eb35524f4d3220f07413c8d6cb404cc8c18bf5591bc159906111109083906128b3565b60405180910390a150565b6004805461112890612e90565b80601f016020809104026020016040519081016040528092919081815260200182805461115490612e90565b80156111a15780601f10611176576101008083540402835291602001916111a1565b820191906000526020600020905b81548152906001019060200180831161118457829003601f168201915b505050505081565b60085490565b6000816001600160a01b0316836001600160a01b031614156111e35760405162461bcd60e51b81526004016105c490612911565b506001600160a01b03918216600090815260196020908152604080832093909416825291909152205490565b6001600160a01b03166000908152601a60205260409020805460ff19169055565b611242601554600a610b819190612d8c565b60085550565b611250611321565b6000546001600160a01b0390811691161461127d5760405162461bcd60e51b81526004016105c490612b87565b6001600160a01b0381166112a35760405162461bcd60e51b81526004016105c4906129f1565b600080546040516001600160a01b03808516939216917f8be0079c531659141344cd1fd0a4f28419497f9722a3daafe3b4186f6b6457e091a3600080546001600160a01b0319166001600160a01b0392909216919091179055565b601d546001600160a01b031681565b6000610ec861131a611662565b83906115a7565b3390565b6001600160a01b0380841660009081526019602090815260408083209386168352929052205415611379576001600160a01b0380841660009081526019602090815260408083209386168352929052908120555b6001600160a01b0380841660008181526019602090815260408083209487168084529490915290819020849055517f8c5be1e5ebec7d5bd14f71427d1e84f3dd0314c0f7b2291e5b200ac8c7c3b925906113d4908590612c61565b60405180910390a3505050565b816001600160a01b0316836001600160a01b031614156114135760405162461bcd60e51b81526004016105c490612bbc565b61141b610f9a565b6001600160a01b0316836001600160a01b031614158015611455575061143f610f9a565b6001600160a01b0316826001600160a01b031614155b801561146357506000600854115b1561148a5760085481111561148a5760405162461bcd60e51b81526004016105c490612a4e565b600061149530610e66565b905060145481101580156114b35750601e54600160a81b900460ff16155b80156114cd5750601e546001600160a01b03858116911614155b80156114f35750601e5474010000000000000000000000000000000000000000900460ff165b15611505575060145461150581611685565b6001600160a01b0384166000908152601a602052604090205460019060ff168061154757506001600160a01b0384166000908152601a602052604090205460ff165b15611550575060005b61155c8585858461175c565b5050505050565b600081848411156115875760405162461bcd60e51b81526004016105c491906128be565b505050900390565b60006106fe8284612d1a565b60006106fe8284612e5a565b60006106fe8284612d32565b60035460ff16156115d65760405162461bcd60e51b81526004016105c49061296e565b6003805460ff191660011790556001600160a01b0381166112a35760405162461bcd60e51b81526004016105c4906129f1565b60008060008060008060008061161e8961187e565b939b5091995097509550935061163f898888888861163a611662565b6118d4565b809350819450829550505050919395975091939597565b61097d826000836113e1565b600080600061166f61193c565b909250905061167e81836115a7565b9250505090565b601e80547fffffffffffffffffffff00ffffffffffffffffffffffffffffffffffffffffff16600160a81b17905560006116c08260026115a7565b905060006116ce8383611af9565b9050476116da83611b05565b60006116e64783611af9565b90506116f28382611cbc565b7f17bbfb9a6069321b6ded73bd96327c9e6b7212a5cd51ff219cd61370acafb56184828560405161172593929190612cda565b60405180910390a15050601e80547fffffffffffffffffffff00ffffffffffffffffffffffffffffffffffffffffff169055505050565b8061176957611769611d67565b6001600160a01b0384166000908152601b602052604090205460ff1680156117aa57506001600160a01b0383166000908152601b602052604090205460ff16155b156117bf576117ba848484611dae565b61186b565b6001600160a01b0384166000908152601b602052604090205460ff1615801561180057506001600160a01b0383166000908152601b602052604090205460ff165b15611810576117ba848484611f1f565b6001600160a01b0384166000908152601b602052604090205460ff16801561185057506001600160a01b0383166000908152601b602052604090205460ff165b15611860576117ba848484611fe1565b61186b84848461209d565b80611878576118786120fa565b50505050565b600080600080600061188f86612114565b935061189a86612136565b92506118a586612152565b91506118b08661216e565b90506118ca816118c4848187818c8b611af9565b90611af9565b9693955091935091565b60008080806118e3888661159b565b905060006118f1888761159b565b905060006118ff888861159b565b905061190b8c8861159b565b95506119178b8861159b565b935061192b816118c4848187818c8b611af9565b945050505096509650969350505050565b6006546007546000918291825b601c54811015611ac7578160186000601c848154811061197957634e487b7160e01b600052603260045260246000fd5b60009182526020808320909101546001600160a01b0316835282019290925260400190205411806119f257508260176000601c84815481106119cb57634e487b7160e01b600052603260045260246000fd5b60009182526020808320909101546001600160a01b03168352820192909252604001902054115b15611a095760065460075494509450505050611af5565b611a5d60176000601c8481548110611a3157634e487b7160e01b600052603260045260246000fd5b60009182526020808320909101546001600160a01b031683528201929092526040019020548490611af9565b9250611ab360186000601c8481548110611a8757634e487b7160e01b600052603260045260246000fd5b60009182526020808320909101546001600160a01b031683528201929092526040019020548390611af9565b915080611abf81612ecb565b915050611949565b50600654600754611ad7916115a7565b811015611aef57600654600754935093505050611af5565b90925090505b9091565b60006106fe8284612e79565b6040805160028082526060820183526000926020830190803683370190505090503081600081518110611b4857634e487b7160e01b600052603260045260246000fd5b6001600160a01b03928316602091820292909201810191909152601d54604080517fad5c46480000000000000000000000000000000000000000000000000000000081529051919093169263ad5c4648926004808301939192829003018186803b158015611bb557600080fd5b505afa158015611bc9573d6000803e3d6000fd5b505050506040513d601f19601f82011682018060405250810190611bed9190612502565b81600181518110611c0e57634e487b7160e01b600052603260045260246000fd5b6001600160a01b039283166020918202929092010152601d54611c349130911684611325565b601d546040517f791ac9470000000000000000000000000000000000000000000000000000000081526001600160a01b039091169063791ac94790611c86908590600090869030904290600401612c6a565b600060405180830381600087803b158015611ca057600080fd5b505af1158015611cb4573d6000803e3d6000fd5b505050505050565b601d54611cd49030906001600160a01b031684611325565b601d546001600160a01b031663f305d719823085600080611cf3610f9a565b426040518863ffffffff1660e01b8152600401611d159695949392919061281f565b6060604051808303818588803b158015611d2e57600080fd5b505af1158015611d42573d6000803e3d6000fd5b50505050506040513d601f19601f8201168201806040525081019061155c91906127c4565b600954158015611d775750600b54155b15611d8157611dac565b60098054600a55600b8054600c55600d8054600e55600f805460105560009384905591839055829055555b565b600080600080600080600080611dc389611609565b9750975097509750975097509750975088601760008d6001600160a01b03166001600160a01b03168152602001908152602001600020541015611e185760405162461bcd60e51b81526004016105c490612bf3565b6001600160a01b038b16600090815260176020526040902054611e3b908a611af9565b6001600160a01b038c16600090815260176020908152604080832093909355601890522054611e6a9084611af9565b6001600160a01b03808d1660009081526018602052604080822093909355908c1681522054611e99908361158f565b6001600160a01b038b16600090815260186020526040902055611ebb8661218a565b611ec781888787612213565b896001600160a01b03168b6001600160a01b03167fddf252ad1be2c89b69c2b068fc378daa952ba7f163c4a11628f55a4df523b3ef8a604051611f0a9190612c61565b60405180910390a35050505050505050505050565b600080600080600080600080611f3489611609565b97509750975097509750975097509750611f7c83601860008e6001600160a01b03166001600160a01b0316815260200190815260200160002054611af990919063ffffffff16565b6001600160a01b03808d16600090815260186020908152604080832094909455918d16815260179091522054611fb2908961158f565b6001600160a01b038b16600090815260176020908152604080832093909355601890522054611e99908361158f565b600080600080600080600080611ff689611609565b9750975097509750975097509750975088601760008d6001600160a01b03166001600160a01b0316815260200190815260200160002054101561204b5760405162461bcd60e51b81526004016105c490612bf3565b6001600160a01b038b1660009081526017602052604090205461206e908a611af9565b6001600160a01b038c16600090815260176020908152604080832093909355601890522054611f7c9084611af9565b6000806000806000806000806120b289611609565b97509750975097509750975097509750611e6a83601860008e6001600160a01b03166001600160a01b0316815260200190815260200160002054611af990919063ffffffff16565b600a54600955600c54600b55600e54600d55601054600f55565b6000610ec860646121306009548561159b90919063ffffffff16565b906115a7565b6000610ec86064612130600b548561159b90919063ffffffff16565b6000610ec86064612130600d548561159b90919063ffffffff16565b6000610ec86064612130600f548561159b90919063ffffffff16565b6000612194611662565b905060006121a2838361159b565b306000908152601860205260409020549091506121bf908261158f565b30600090815260186020908152604080832093909355601b9052205460ff161561220e57306000908152601760205260409020546121fd908461158f565b306000908152601760205260409020555b505050565b6007546122209085611af9565b600755601154612230908461158f565b601155601354612240908361158f565b601355601254612250908261158f565b60125561225c82612265565b61187881612327565b6000600d541180156122775750600081115b15610642576000612290612289611662565b839061159b565b6016546001600160a01b03166000908152601860205260409020549091506122b8908261158f565b601680546001600160a01b0390811660009081526018602052604090209290925554166122e3611321565b6001600160a01b03167fddf252ad1be2c89b69c2b068fc378daa952ba7f163c4a11628f55a4df523b3ef8460405161231b9190612c61565b60405180910390a35050565b6000600f541180156123395750600081115b15610642576000612348611321565b6001600160a01b03167fddf252ad1be2c89b69c2b068fc378daa952ba7f163c4a11628f55a4df523b3ef836040516123809190612c61565b60405180910390a350565b82805461239790612e90565b90600052602060002090601f0160209004810192826123b957600085556123ff565b82601f106123d257805160ff19168380011785556123ff565b828001600101855582156123ff579182015b828111156123ff5782518255916020019190600101906123e4565b5061240b92915061244b565b5090565b60405180606001604052806003906020820280368337509192915050565b60405180608001604052806004906020820280368337509192915050565b5b8082111561240b576000815560010161244c565b8035610ecb81612f3c565b80358015158114610ecb57600080fd5b600082601f83011261248b578081fd5b813567ffffffffffffffff8111156124a5576124a5612f26565b6124b8601f8201601f1916602001612cf0565b8181528460208386010111156124cc578283fd5b816020850160208301379081016020019190915292915050565b6000602082840312156124f7578081fd5b81356106fe81612f3c565b600060208284031215612513578081fd5b81516106fe81612f3c565b60008060408385031215612530578081fd5b823561253b81612f3c565b9150602083013561254b81612f3c565b809150509250929050565b60008060006060848603121561256a578081fd5b833561257581612f3c565b9250602084013561258581612f3c565b929592945050506040919091013590565b600080604083850312156125a8578182fd5b82356125b381612f3c565b946020939093013593505050565b600060208083850312156125d3578182fd5b823567ffffffffffffffff808211156125ea578384fd5b818501915085601f8301126125fd578384fd5b81358181111561260f5761260f612f26565b838102915061261f848301612cf0565b8181528481019084860184860187018a1015612639578788fd5b8795505b8386101561265b57803583526001959095019491860191860161263d565b5098975050505050505050565b600060208284031215612679578081fd5b6106fe8261246b565b600080600080600080600080610160898b03121561269e578384fd5b883567ffffffffffffffff808211156126b5578586fd5b6126c18c838d0161247b565b995060209150818b0135818111156126d7578687fd5b6126e38d828e0161247b565b9950505060408a0135965060608a013595508a609f8b0112612703578485fd5b61270d6080612cf0565b8060808c016101008d018e811115612723578889fd5b885b600481101561274257823585529385019391850191600101612725565b5082985061274f81612460565b975050505050506127636101208a01612460565b91506127726101408a01612460565b90509295985092959890939650565b600060208284031215612792578081fd5b5035919050565b600080604083850312156127ab578182fd5b823591506127bb6020840161246b565b90509250929050565b6000806000606084860312156127d8578081fd5b8351925060208401519150604084015190509250925092565b6001600160a01b0391909116815260200190565b6001600160a01b0392831681529116602082015260400190565b6001600160a01b039687168152602081019590955260408501939093526060840191909152909216608082015260a081019190915260c00190565b60608101818360005b6003811015612882578151835260209283019290910190600101612863565b50505092915050565b60808101818360005b6004811015612882578151835260209283019290910190600101612894565b901515815260200190565b6000602080835283518082850152825b818110156128ea578581018301518582016040015282016128ce565b818111156128fb5783604083870101525b50601f01601f1916929092016040019392505050565b60208082526024908201527f4f776e657220616e64207370656e6465722063616e6e6f74206265207468652060408201527f73616d6500000000000000000000000000000000000000000000000000000000606082015260800190565b6020808252604c908201527f436f6e7472616374206f776e65722068617320616c7265616479206265656e2060408201527f7472616e7366657265642066726f6d20696e697469616c697a656420746f207460608201527f6865206e6577204f776e65720000000000000000000000000000000000000000608082015260a00190565b60208082526026908201527f4f776e61626c653a206e6577206f776e657220697320746865207a65726f206160408201527f6464726573730000000000000000000000000000000000000000000000000000606082015260800190565b60208082526032908201527f5472616e7366657220616d6f756e742065786365656473206d6178696d756d2060408201527f7472616e73616374696f6e20616d6f756e740000000000000000000000000000606082015260800190565b6020808252601b908201527f4163636f756e7420697320616c7265616479206578636c756465640000000000604082015260600190565b60208082526014908201527f496e73756666696369656e742062616c616e6365000000000000000000000000604082015260600190565b6020808252601b908201527f4163636f756e7420697320616c726561647920696e636c756465640000000000604082015260600190565b6020808252601f908201527f416d6f756e74206d757374206265206c657373207468616e20737570706c7900604082015260600190565b6020808252818101527f4f776e61626c653a2063616c6c6572206973206e6f7420746865206f776e6572604082015260600190565b6020808252601d908201527f53656e64657220616e6420726563697069656e74207468652073616d65000000604082015260600190565b6020808252601a908201527f496e73756666696369656e7420746f6b656e2062616c616e6365000000000000604082015260600190565b6020808252601c908201527f4e6f7420656e6f75676820656c656d656e747320696e20617272617900000000604082015260600190565b90815260200190565b600060a082018783526020878185015260a0604085015281875180845260c0860191508289019350845b81811015612cb95784516001600160a01b031683529383019391830191600101612c94565b50506001600160a01b03969096166060850152505050608001529392505050565b9283526020830191909152604082015260600190565b60405181810167ffffffffffffffff81118282101715612d1257612d12612f26565b604052919050565b60008219821115612d2d57612d2d612efa565b500190565b600082612d4157612d41612f10565b500490565b80825b6001808611612d585750612d83565b818704821115612d6a57612d6a612efa565b80861615612d7757918102915b9490941c938002612d49565b94509492505050565b60006106fe6000198484600082612da5575060016106fe565b81612db2575060006106fe565b8160018114612dc85760028114612dd257612dff565b60019150506106fe565b60ff841115612de357612de3612efa565b6001841b915084821115612df957612df9612efa565b506106fe565b5060208310610133831016604e8410600b8410161715612e32575081810a83811115612e2d57612e2d612efa565b6106fe565b612e3f8484846001612d46565b808604821115612e5157612e51612efa565b02949350505050565b6000816000190483118215151615612e7457612e74612efa565b500290565b600082821015612e8b57612e8b612efa565b500390565b600281046001821680612ea457607f821691505b60208210811415612ec557634e487b7160e01b600052602260045260246000fd5b50919050565b6000600019821415612edf57612edf612efa565b5060010190565b600082612ef557612ef5612f10565b500690565b634e487b7160e01b600052601160045260246000fd5b634e487b7160e01b600052601260045260246000fd5b634e487b7160e01b600052604160045260246000fd5b6001600160a01b038116811461064257600080fdfe5472616e7366657220616d6f756e74206578636565647320616c6c6f77616e6365a2646970667358221220a2b5259f56c3a09c32cf9fe165d81f33ca9eaaa98a3ccde142d4051aea97cc9b64736f6c63430008000033",
  "immutableReferences": {},
  "source": "// SPDX-License-Identifier: UNLICENSED\npragma solidity ^0.8.0;\n\nimport \"@openzeppelin/contracts/utils/Context.sol\";\nimport \"@openzeppelin/contracts/token/ERC20/IERC20.sol\";\nimport \"@openzeppelin/contracts/utils/math/SafeMath.sol\";\nimport \"@openzeppelin/contracts/utils/Address.sol\";\nimport \"@uniswap/v2-core/contracts/interfaces/IUniswapV2Factory.sol\";\nimport \"@uniswap/v2-core/contracts/interfaces/IUniswapV2Pair.sol\";\nimport \"@uniswap/v2-periphery/contracts/interfaces/IUniswapV2Router02.sol\";\nimport \"./StandardToken.sol\";\n\n/// @title an Initialized IERC20 Token\n/// @author harshrpg\n/// @notice It is the barebone of a FOT with an additional fee infrastructure\n/// @dev Provide the appropriate init information for all the different fee types\ncontract FotToken is IERC20, Ownable {\n    using SafeMath for uint256;\n    using Address for address;\n\n    string public _name;\n    string private _symbol;\n    uint256 private _totalTokenSupply;\n    uint256 private _totalReflectionSupply;\n    uint256 private _maxTxnAmount;\n    uint256 private _taxFee;\n    uint256 private _previousTaxFee;\n    uint256 private _liquidityFee;\n    uint256 private _previousLiquidityFee;\n    uint256 private _charityFee;\n    uint256 private _previousCharityFee;\n    uint256 private _burnFee;\n    uint256 private _previousBurnFee;\n    uint256 private _totalFeeCharged;\n    uint256 private _totalTokensBurned;\n    uint256 private _totalCharityPaid;\n    uint256 private _numTokensSellToAddToLiquidity;\n    uint256 private _decimals;\n    address private _charityAddress;\n\n    mapping(address => uint256) _balance;\n    mapping(address => uint256) _reflectionBalance;\n    mapping(address => mapping(address => uint256)) _tokensAllowed;\n    mapping(address => bool) private _isExcludedFromFee;\n    mapping(address => bool) private _isExcludedFromReward;\n    address[] private _excludedAccounts;\n\n    uint256 private constant MAX256 = ~uint256(0);\n\n    IUniswapV2Router02 public router;\n    address public pair;\n    bool swapAndLiquifyEnabled = true;\n    bool public inSwapAndLiquify;\n\n    event SwapAndLiquifyEnabledUpdated(bool enabled);\n    event SwapAndLiquify(\n        uint256 tokensSwapped,\n        uint256 ethReceived,\n        uint256 tokensIntoLiqudity\n    );\n    event DexPairCreated(address thisContract, address pairAddress);\n\n    modifier lockTheSwap() {\n        inSwapAndLiquify = true;\n        _;\n        inSwapAndLiquify = false;\n    }\n\n    function init(\n        string memory tokenName,\n        string memory tokenSymbol,\n        uint256 basicSupply,\n        uint256 maxTxnAmount,\n        uint256[4] memory fees,\n        address charityAddress,\n        address dexAddress,\n        address newOwner\n    ) public {\n        uint256 _minTokenSellValue = 5;\n        _decimals = 18;\n        _name = tokenName;\n        _symbol = tokenSymbol;\n        _totalTokenSupply = basicSupply.mul(10**(_decimals)); // 1Q.10^9\n        _totalReflectionSupply = (MAX256 - (MAX256 % _totalTokenSupply)); // Maximum possible number divisible by 1Q\n        uint256 numMinTokensToSell = _minTokenSellValue.div(10**4).mul(basicSupply);\n        _numTokensSellToAddToLiquidity =\n            numMinTokensToSell.mul(10**(_decimals));\n            // CHECK IF MAX TXN AMOUNT != 0\n        _maxTxnAmount = maxTxnAmount.mul(10**(_decimals));\n        transferOwnershipFromInitialized(newOwner);\n        IUniswapV2Router02 _router = IUniswapV2Router02(dexAddress);\n        pair = IUniswapV2Factory(_router.factory()).createPair(\n            address(this),\n            _router.WETH()\n        );\n        router = _router;\n        _balance[newOwner] = _totalTokenSupply;\n        _reflectionBalance[newOwner] = _totalReflectionSupply;\n        _isExcludedFromFee[newOwner] = true;\n        _isExcludedFromFee[address(this)] = true;\n        _taxFee = fees[0];\n        _liquidityFee = fees[1];\n        _charityFee =  fees[3];\n        _burnFee = fees[2];\n        _charityAddress = charityAddress;\n        emit DexPairCreated(address(this), pair);\n    }\n\n    function name() public view returns (string memory) {\n        return _name;\n    }\n\n    function decimals() public view returns (uint256) {\n        return _decimals;\n    }\n\n    function symbol() public view returns (string memory) {\n        return _symbol;\n    }\n\n    function totalSupply() public view override returns (uint256) {\n        return _totalTokenSupply;\n    }\n\n    function pairAddress() public view returns (address) {\n        return pair;\n    }\n\n    function amountOfNativeCoinsHeldByContract()\n        external\n        view\n        \n        returns (uint256)\n    {\n        return _balance[address(this)];\n    }\n\n    function burnTokens(uint256 amount) external  {\n        _burn(_msgSender(), amount);\n    }\n\n    function _burn(address from, uint256 amount) private {\n        _transfer(from, address(0), amount);\n    }\n\n    function balanceOf(address account) public view override returns (uint256) {\n        if (_isExcludedFromReward[account]) {\n            return _balance[account];\n        }\n        return\n            calculateTokenBalanceFromReflectionBalance(\n                _reflectionBalance[account]\n            );\n    }\n\n    function isExcludedFromReward(address account)\n        external\n        view\n        returns (bool)\n    {\n        return _isExcludedFromReward[account];\n    }\n\n    function transfer(address recipient, uint256 amount)\n        public\n        override\n        returns (bool)\n    {\n        _transfer(msg.sender, recipient, amount);\n        return true;\n    }\n\n    function allowance(address owner, address spender)\n        public\n        view\n        override\n        returns (uint256)\n    {\n        require(owner != spender, \"Owner and spender cannot be the same\");\n        return _tokensAllowed[owner][spender];\n    }\n\n    function approve(address spender, uint256 amount)\n        public\n        override\n        returns (bool)\n    {\n        require(_balance[_msgSender()] >= amount, \"Insufficient balance\");\n        _approve(_msgSender(), spender, amount);\n        return true;\n    }\n\n    function transferFrom(\n        address spender,\n        address recipient,\n        uint256 amount\n    ) public override returns (bool) {\n        _transfer(spender, recipient, amount);\n        _approve(\n            spender,\n            _msgSender(),\n            _tokensAllowed[spender][_msgSender()].sub(\n                amount,\n                \"Transfer amount exceeds allowance\"\n            )\n        );\n        return true;\n    }\n\n    function increaseAllowance(address spender, uint256 addedValue)\n        public\n        returns (bool)\n    {\n        _approve(\n            _msgSender(),\n            spender,\n            _tokensAllowed[_msgSender()][spender].add(addedValue)\n        );\n        return true;\n    }\n\n    function decreaseAllowance(address spender, uint256 subtractedValue)\n        public\n        returns (bool)\n    {\n        _approve(\n            _msgSender(),\n            spender,\n            _tokensAllowed[_msgSender()][spender].sub(\n                subtractedValue,\n                \"Allowance below zero\"\n            )\n        );\n        return true;\n    }\n\n    function calculateReflectionBalanceFromTokenBalance(\n        uint256 txnAmountRequested,\n        bool deductTransferFee\n    ) public view returns (uint256) {\n        require(\n            txnAmountRequested <= _totalTokenSupply,\n            \"Amount must be less than supply\"\n        );\n        if (!deductTransferFee) {\n            (\n                ,\n                ,\n                ,\n                ,\n                ,\n                uint256 reflections,\n                ,\n\n            ) = _calculateTransactionAndReflectionsAfterFees(\n                    txnAmountRequested\n                );\n            return reflections;\n        } else {\n            (\n                ,\n                ,\n                ,\n                ,\n                ,\n                ,\n                uint256 reflectionTransfer,\n\n            ) = _calculateTransactionAndReflectionsAfterFees(\n                    txnAmountRequested\n                );\n            return reflectionTransfer;\n        }\n    }\n\n    function excludeFromReward(address account) public  {\n        require(!_isExcludedFromReward[account], \"Account is already excluded\");\n        if (_reflectionBalance[account] > 0) {\n            _balance[account] = calculateTokenBalanceFromReflectionBalance(\n                _reflectionBalance[account]\n            );\n        }\n        _isExcludedFromReward[account] = true;\n        _excludedAccounts.push(account);\n    }\n\n    function includeInReward(address account) public  {\n        require(_isExcludedFromReward[account], \"Account is already included\");\n        for (uint256 index = 0; index < _excludedAccounts.length; index++) {\n            if (_excludedAccounts[index] == account) {\n                _excludedAccounts[index] = _excludedAccounts[\n                    _excludedAccounts.length - 1\n                ];\n                _balance[account] = 0;\n                _isExcludedFromReward[account] = false;\n                _excludedAccounts.pop();\n                break;\n            }\n        }\n    }\n\n    function excludeFromFee(address account) external  {\n        _isExcludedFromFee[account] = true;\n    }\n\n    function includeInFee(address account) external  {\n        _isExcludedFromFee[account] = false;\n    }\n\n    function setCharityAddress(address payable charityAddress)\n        external\n        \n    {\n        if (_charityFee > 0) {\n            _charityAddress = charityAddress;\n            _isExcludedFromFee[_charityAddress] = true;\n        } else {\n            _charityAddress = address(0);\n        }\n    }\n\n    function setFees(uint256[] memory fees) external  {\n        require(fees.length == 4, \"Not enough elements in array\");\n        _taxFee = fees[0];\n        _liquidityFee = fees[1];\n        _charityFee =  fees[3];\n        _burnFee = fees[2];\n    }\n\n    function setMaxTxAmount(uint256 maxTxnAmount) external  {\n        _maxTxnAmount = maxTxnAmount.mul(10**_decimals);\n    }\n\n    function setSwapAndLiquifyEnabled(bool _enabled) external  {\n        swapAndLiquifyEnabled = _enabled;\n        emit SwapAndLiquifyEnabledUpdated(_enabled);\n    }\n\n    function getAllFees() public view returns (uint256[4] memory) {\n        uint256[4] memory fees = [\n            _taxFee,\n            _liquidityFee,\n            _burnFee,\n            _charityFee\n        ];\n        return fees;\n    }\n\n    function getAllFeesChargedBurnedAndCharitized()\n        public\n        view\n        returns (uint256[3] memory)\n    {\n        uint256[3] memory feesCharged = [\n            _totalFeeCharged,\n            _totalTokensBurned,\n            _totalCharityPaid\n        ];\n        return feesCharged;\n    }\n\n    function getCharityAddress() public view returns (address) {\n        return _charityAddress;\n    }\n\n    function getWhaleProtection() public view returns (uint256) {\n        return _maxTxnAmount;\n    }\n\n    // Private methods\n\n    function _approve(\n        address owner,\n        address spender,\n        uint256 amount\n    ) private {\n        if (_tokensAllowed[owner][spender] != 0) {\n            _tokensAllowed[owner][spender] = 0;\n        }\n        _tokensAllowed[owner][spender] = amount;\n        emit Approval(owner, spender, amount);\n    }\n\n    function _transfer(\n        address from,\n        address to,\n        uint256 amount\n    ) private {\n        require(from != to, \"Sender and recipient the same\");\n        if (from != owner() && to != owner() && _maxTxnAmount > 0) {\n            require(\n                amount <= _maxTxnAmount,\n                \"Transfer amount exceeds maximum transaction amount\"\n            );\n        }\n        // what is the contract's liquidity value?\n        uint256 contractTokenBalance = balanceOf(address(this));\n        if (\n            contractTokenBalance >= _numTokensSellToAddToLiquidity &&\n            !inSwapAndLiquify &&\n            from != pair &&\n            swapAndLiquifyEnabled\n        ) {\n            contractTokenBalance = _numTokensSellToAddToLiquidity;\n            swapAndLiquify(contractTokenBalance);\n        }\n        bool takeFee = true;\n        if (_isExcludedFromFee[from] || _isExcludedFromFee[to]) {\n            takeFee = false;\n        }\n        _transferTokens(from, to, amount, takeFee);\n    }\n\n    function swapAndLiquify(uint256 contractTokenBalance) private lockTheSwap {\n        uint256 half = contractTokenBalance.div(2);\n        uint256 otherHalf = contractTokenBalance.sub(half);\n        uint256 initialEthBalance = address(this).balance;\n        swapTokensForEth(half);\n        uint256 newEthBalance = address(this).balance.sub(initialEthBalance);\n        addLiquidity(otherHalf, newEthBalance);\n        emit SwapAndLiquify(half, newEthBalance, otherHalf);\n    }\n\n    function swapTokensForEth(uint256 tokens) private {\n        address[] memory path = new address[](2);\n        path[0] = address(this);\n        path[1] = router.WETH();\n\n        _approve(address(this), address(router), tokens);\n\n        router.swapExactTokensForETHSupportingFeeOnTransferTokens(\n            tokens,\n            0,\n            path,\n            address(this),\n            block.timestamp\n        );\n    }\n\n    function addLiquidity(uint256 tokens, uint256 eths) private {\n        _approve(address(this), address(router), tokens);\n        router.addLiquidityETH{value: eths}(\n            address(this),\n            tokens,\n            0,\n            0,\n            owner(),\n            block.timestamp\n        );\n    }\n\n    function _transferTokens(\n        address from,\n        address to,\n        uint256 amount,\n        bool takeFee\n    ) private {\n        if (!takeFee) {\n            removeAllFee();\n        }\n        if (_isExcludedFromReward[from] && !_isExcludedFromReward[to]) {\n            _transferFromExcludedAccount(from, to, amount);\n        } else if (!_isExcludedFromReward[from] && _isExcludedFromReward[to]) {\n            _transferToExcludedAccount(from, to, amount);\n        } else if (_isExcludedFromReward[from] && _isExcludedFromReward[to]) {\n            _transferBothExcludedAccount(from, to, amount);\n        } else {\n            _trasnferStandard(from, to, amount);\n        }\n\n        if (!takeFee) {\n            restoreAllFees();\n        }\n    }\n\n    function _transferFromExcludedAccount(\n        address from,\n        address to,\n        uint256 amount\n    ) private {\n        (\n            uint256 tokenTransfer,\n            uint256 tokenTransferFee,\n            uint256 tokenLiquidityFee,\n            uint256 tokenCharityFee,\n            uint256 tokenBurnFee,\n            uint256 reflections,\n            uint256 reflectionTransfer,\n            uint256 reflectionFee\n        ) = _calculateTransactionAndReflectionsAfterFees(amount);\n        require(_balance[from] >= amount, \"Insufficient token balance\");\n        _balance[from] = _balance[from].sub(amount);\n        _reflectionBalance[from] = _reflectionBalance[from].sub(reflections);\n        _reflectionBalance[to] = _reflectionBalance[to].add(reflectionTransfer);\n        _takeLiquidityFromTransaction(tokenLiquidityFee);\n        _reflectFee(\n            reflectionFee,\n            tokenTransferFee,\n            tokenCharityFee,\n            tokenBurnFee\n        );\n        emit Transfer(from, to, tokenTransfer);\n    }\n\n    function _transferToExcludedAccount(\n        address from,\n        address to,\n        uint256 amount\n    ) private {\n        (\n            uint256 tokenTransfer,\n            uint256 tokenTransferFee,\n            uint256 tokenLiquidityFee,\n            uint256 tokenCharityFee,\n            uint256 tokenBurnFee,\n            uint256 reflections,\n            uint256 reflectionTransfer,\n            uint256 reflectionFee\n        ) = _calculateTransactionAndReflectionsAfterFees(amount);\n        _reflectionBalance[from] = _reflectionBalance[from].sub(reflections);\n        _balance[to] = _balance[to].add(tokenTransfer);\n        _reflectionBalance[to] = _reflectionBalance[to].add(reflectionTransfer);\n        _takeLiquidityFromTransaction(tokenLiquidityFee);\n        _reflectFee(\n            reflectionFee,\n            tokenTransferFee,\n            tokenCharityFee,\n            tokenBurnFee\n        );\n        emit Transfer(from, to, tokenTransfer);\n    }\n\n    function _transferBothExcludedAccount(\n        address from,\n        address to,\n        uint256 amount\n    ) private {\n        (\n            uint256 tokenTransfer,\n            uint256 tokenTransferFee,\n            uint256 tokenLiquidityFee,\n            uint256 tokenCharityFee,\n            uint256 tokenBurnFee,\n            uint256 reflections,\n            uint256 reflectionTransfer,\n            uint256 reflectionFee\n        ) = _calculateTransactionAndReflectionsAfterFees(amount);\n        require(_balance[from] >= amount, \"Insufficient token balance\");\n        _balance[from] = _balance[from].sub(amount);\n        _reflectionBalance[from] = _reflectionBalance[from].sub(reflections);\n        _balance[to] = _balance[to].add(tokenTransfer);\n        _reflectionBalance[to] = _reflectionBalance[to].add(reflectionTransfer);\n        _takeLiquidityFromTransaction(tokenLiquidityFee);\n        _reflectFee(\n            reflectionFee,\n            tokenTransferFee,\n            tokenCharityFee,\n            tokenBurnFee\n        );\n        emit Transfer(from, to, tokenTransfer);\n    }\n\n    function _trasnferStandard(\n        address from,\n        address to,\n        uint256 amount\n    ) private {\n        (\n            uint256 tokenTransfer,\n            uint256 tokenTransferFee,\n            uint256 tokenLiquidityFee,\n            uint256 tokenCharityFee,\n            uint256 tokenBurnFee,\n            uint256 reflections,\n            uint256 reflectionTransfer,\n            uint256 reflectionFee\n        ) = _calculateTransactionAndReflectionsAfterFees(amount);\n        _reflectionBalance[from] = _reflectionBalance[from].sub(reflections);\n        _reflectionBalance[to] = _reflectionBalance[to].add(reflectionTransfer);\n        _takeLiquidityFromTransaction(tokenLiquidityFee);\n        _reflectFee(\n            reflectionFee,\n            tokenTransferFee,\n            tokenCharityFee,\n            tokenBurnFee\n        );\n        emit Transfer(from, to, tokenTransfer);\n    }\n\n    // Utils\n\n    function removeAllFee() private {\n        if (_taxFee == 0 && _liquidityFee == 0) {\n            return;\n        }\n        _previousTaxFee = _taxFee;\n        _previousLiquidityFee = _liquidityFee;\n        _previousCharityFee = _charityFee;\n        _previousBurnFee = _burnFee;\n        _taxFee = 0;\n        _liquidityFee = 0;\n        _charityFee = 0;\n        _burnFee = 0;\n    }\n\n    function restoreAllFees() private {\n        _taxFee = _previousTaxFee;\n        _liquidityFee = _previousLiquidityFee;\n        _charityFee = _previousCharityFee;\n        _burnFee = _previousBurnFee;\n    }\n\n    function _calculateTransactionAndReflectionsAfterFees(\n        uint256 txnAmountRequested\n    )\n        private\n        view\n        returns (\n            uint256 tokenTransfer,\n            uint256 tokenTransferFee,\n            uint256 tokenLiquidityFee,\n            uint256 tokenCharityFee,\n            uint256 tokenBurnFee,\n            uint256 reflections,\n            uint256 reflectionTransfer,\n            uint256 reflectionFee\n        )\n    {\n        (\n            tokenTransfer,\n            tokenTransferFee,\n            tokenLiquidityFee,\n            tokenCharityFee,\n            tokenBurnFee\n        ) = _calculateTokenTransferAndFees(txnAmountRequested);\n        (\n            reflections,\n            reflectionTransfer,\n            reflectionFee\n        ) = _calculateReflectionTransfersAndFees(\n            txnAmountRequested,\n            tokenTransferFee,\n            tokenLiquidityFee,\n            tokenCharityFee,\n            tokenBurnFee,\n            _calculateRateOfSupply()\n        );\n    }\n\n    function _calculateTokenTransferAndFees(uint256 txnAmountRequested)\n        private\n        view\n        returns (\n            uint256 tokenTransfer,\n            uint256 tokenFee,\n            uint256 tokenLiquidityFee,\n            uint256 tokenCharityFee,\n            uint256 tokenBurnFee\n        )\n    {\n        tokenFee = _calculateTokenTaxFee(txnAmountRequested);\n        tokenLiquidityFee = _calculateTokenLiquidityFee(txnAmountRequested);\n        tokenCharityFee = _calculateTokenCharityFee(txnAmountRequested);\n        tokenBurnFee = _calculateTokenBurnFee(txnAmountRequested);\n        tokenTransfer = txnAmountRequested\n            .sub(tokenFee)\n            .sub(tokenLiquidityFee)\n            .sub(tokenCharityFee)\n            .sub(tokenBurnFee);\n    }\n\n    function _calculateReflectionTransfersAndFees(\n        uint256 txnAmountRequested,\n        uint256 tokenTransferFee,\n        uint256 tokenLiquidityFee,\n        uint256 tokenCharityFee,\n        uint256 tokenBurnFee,\n        uint256 currentRate\n    )\n        private\n        pure\n        returns (\n            uint256 reflections,\n            uint256 reflectionTransfer,\n            uint256 reflectionFee\n        )\n    {\n        uint256 reflectionLiquidity = tokenLiquidityFee.mul(currentRate);\n        uint256 reflectionCharity = tokenCharityFee.mul(currentRate);\n        uint256 reflectionBurn = tokenBurnFee.mul(currentRate);\n        reflections = txnAmountRequested.mul(currentRate);\n        reflectionFee = tokenTransferFee.mul(currentRate);\n        reflectionTransfer = reflections\n            .sub(reflectionFee)\n            .sub(reflectionLiquidity)\n            .sub(reflectionCharity)\n            .sub(reflectionBurn);\n    }\n\n    function _calculateTokenTaxFee(uint256 txnAmountRequested)\n        private\n        view\n        returns (uint256)\n    {\n        return txnAmountRequested.mul(_taxFee).div(10**2);\n    }\n\n    function _calculateTokenLiquidityFee(uint256 txnAmountRequested)\n        private\n        view\n        returns (uint256)\n    {\n        return txnAmountRequested.mul(_liquidityFee).div(10**2);\n    }\n\n    function _calculateTokenCharityFee(uint256 txnAmountRequested)\n        private\n        view\n        returns (uint256)\n    {\n        return txnAmountRequested.mul(_charityFee).div(10**2);\n    }\n\n    function _calculateTokenBurnFee(uint256 txnAmountRequested)\n        private\n        view\n        returns (uint256)\n    {\n        return txnAmountRequested.mul(_burnFee).div(10**2);\n    }\n\n    function _calculateRateOfSupply() private view returns (uint256) {\n        (\n            uint256 tokenSupply,\n            uint256 reflectionSupply\n        ) = _calculateCurrentSupply();\n        return reflectionSupply.div(tokenSupply);\n    }\n\n    function _calculateCurrentSupply() private view returns (uint256, uint256) {\n        uint256 tokenSupply = _totalTokenSupply;\n        uint256 reflectionSupply = _totalReflectionSupply;\n        for (uint256 index = 0; index < _excludedAccounts.length; index++) {\n            if (\n                _reflectionBalance[_excludedAccounts[index]] >\n                reflectionSupply ||\n                _balance[_excludedAccounts[index]] > tokenSupply\n            ) {\n                return (_totalTokenSupply, _totalReflectionSupply);\n            }\n            tokenSupply = tokenSupply.sub(_balance[_excludedAccounts[index]]);\n            reflectionSupply = reflectionSupply.sub(\n                _reflectionBalance[_excludedAccounts[index]]\n            );\n        }\n        if (reflectionSupply < _totalReflectionSupply.div(_totalTokenSupply)) {\n            return (_totalTokenSupply, _totalReflectionSupply);\n        }\n        return (tokenSupply, reflectionSupply);\n    }\n\n    function _takeLiquidityFromTransaction(uint256 tokenLiquidityFee) private {\n        uint256 currentRate = _calculateRateOfSupply();\n        uint256 reflectionLiquidity = tokenLiquidityFee.mul(currentRate);\n        _reflectionBalance[address(this)] = _reflectionBalance[address(this)]\n            .add(reflectionLiquidity);\n        if (_isExcludedFromReward[address(this)]) {\n            _balance[address(this)] = _balance[address(this)].add(\n                tokenLiquidityFee\n            );\n        }\n    }\n\n    function _reflectFee(\n        uint256 reflectionFee,\n        uint256 tokenTransferFee,\n        uint256 tokenCharityFee,\n        uint256 tokenBurnFee\n    ) private {\n        _totalReflectionSupply = _totalReflectionSupply.sub(reflectionFee);\n        _totalFeeCharged = _totalFeeCharged.add(tokenTransferFee);\n        _totalCharityPaid = _totalCharityPaid.add(tokenCharityFee);\n        _totalTokensBurned = _totalTokensBurned.add(tokenBurnFee);\n        sendToCharity(tokenCharityFee);\n        automaticBurn(tokenBurnFee);\n    }\n\n    function automaticBurn(uint256 amount) private {\n        if (_burnFee > 0 && amount > 0) {\n            emit Transfer(_msgSender(), address(0), amount);\n        }\n    }\n\n    function sendToCharity(uint256 amount) private {\n        if (_charityFee > 0 && amount > 0) {\n            uint256 reflectionCharity = amount.mul(_calculateRateOfSupply());\n            _reflectionBalance[_charityAddress] = _reflectionBalance[\n                _charityAddress\n            ].add(reflectionCharity);\n            emit Transfer(_msgSender(), _charityAddress, amount);\n        }\n    }\n\n    function calculateTokenBalanceFromReflectionBalance(\n        uint256 reflectionBalance\n    ) public view returns (uint256) {\n        return reflectionBalance.div(_calculateRateOfSupply());\n    }\n}\n",
  "sourcePath": "/home/harsh/usr/projects_learning/projects/x2mars/smart-contracts/token-maker/contracts/FotToken.sol",
  "compiler": {
    "name": "solc",
    "version": "0.8.0+commit.c7dfd78e.Emscripten.clang"
  },
  "schemaVersion": "3.3.4",
  "updatedAt": "2021-09-18T14:59:52.303Z",
  "devdoc": {
    "author": "harshrpg",
    "details": "Provide the appropriate init information for all the different fee types",
    "kind": "dev",
    "methods": {
      "allowance(address,address)": {
        "details": "Returns the remaining number of tokens that `spender` will be allowed to spend on behalf of `owner` through {transferFrom}. This is zero by default. This value changes when {approve} or {transferFrom} are called."
      },
      "approve(address,uint256)": {
        "details": "Sets `amount` as the allowance of `spender` over the caller's tokens. Returns a boolean value indicating whether the operation succeeded. IMPORTANT: Beware that changing an allowance with this method brings the risk that someone may use both the old and the new allowance by unfortunate transaction ordering. One possible solution to mitigate this race condition is to first reduce the spender's allowance to 0 and set the desired value afterwards: https://github.com/ethereum/EIPs/issues/20#issuecomment-263524729 Emits an {Approval} event."
      },
      "balanceOf(address)": {
        "details": "Returns the amount of tokens owned by `account`."
      },
      "owner()": {
        "details": "Returns the address of the current owner."
      },
      "renounceOwnership()": {
        "details": "Leaves the contract without owner. It will not be possible to call `onlyOwner` functions anymore. Can only be called by the current owner. NOTE: Renouncing ownership will leave the contract without an owner, thereby removing any functionality that is only available to the owner."
      },
      "totalSupply()": {
        "details": "Returns the amount of tokens in existence."
      },
      "transfer(address,uint256)": {
        "details": "Moves `amount` tokens from the caller's account to `recipient`. Returns a boolean value indicating whether the operation succeeded. Emits a {Transfer} event."
      },
      "transferOwnership(address)": {
        "details": "Transfers ownership of the contract to a new account (`newOwner`). Can only be called by the current owner."
      }
    },
    "title": "an Initialized IERC20 Token",
    "version": 1
  },
  "userdoc": {
    "kind": "user",
    "methods": {},
    "notice": "It is the barebone of a FOT with an additional fee infrastructure",
    "version": 1
  }
}