{
  "contractName": "StandardToken",
  "abi": [
    {
      "anonymous": false,
      "inputs": [
        {
          "indexed": true,
          "internalType": "address",
          "name": "owner",
          "type": "address"
        },
        {
          "indexed": true,
          "internalType": "address",
          "name": "spender",
          "type": "address"
        },
        {
          "indexed": false,
          "internalType": "uint256",
          "name": "value",
          "type": "uint256"
        }
      ],
      "name": "Approval",
      "type": "event"
    },
    {
      "anonymous": false,
      "inputs": [
        {
          "indexed": false,
          "internalType": "address",
          "name": "thisContract",
          "type": "address"
        },
        {
          "indexed": false,
          "internalType": "address",
          "name": "pairAddress",
          "type": "address"
        }
      ],
      "name": "DexPairCreated",
      "type": "event"
    },
    {
      "anonymous": false,
      "inputs": [
        {
          "indexed": true,
          "internalType": "address",
          "name": "previousOwner",
          "type": "address"
        },
        {
          "indexed": true,
          "internalType": "address",
          "name": "newOwner",
          "type": "address"
        }
      ],
      "name": "OwnershipTransferred",
      "type": "event"
    },
    {
      "anonymous": false,
      "inputs": [
        {
          "indexed": true,
          "internalType": "address",
          "name": "from",
          "type": "address"
        },
        {
          "indexed": true,
          "internalType": "address",
          "name": "to",
          "type": "address"
        },
        {
          "indexed": false,
          "internalType": "uint256",
          "name": "value",
          "type": "uint256"
        }
      ],
      "name": "Transfer",
      "type": "event"
    },
    {
      "inputs": [],
      "name": "_isPool",
      "outputs": [
        {
          "internalType": "bool",
          "name": "",
          "type": "bool"
        }
      ],
      "stateMutability": "view",
      "type": "function"
    },
    {
      "inputs": [
        {
          "internalType": "address",
          "name": "",
          "type": "address"
        },
        {
          "internalType": "address",
          "name": "",
          "type": "address"
        }
      ],
      "name": "allowances",
      "outputs": [
        {
          "internalType": "uint256",
          "name": "",
          "type": "uint256"
        }
      ],
      "stateMutability": "view",
      "type": "function"
    },
    {
      "inputs": [
        {
          "internalType": "address",
          "name": "",
          "type": "address"
        }
      ],
      "name": "balance",
      "outputs": [
        {
          "internalType": "uint256",
          "name": "",
          "type": "uint256"
        }
      ],
      "stateMutability": "view",
      "type": "function"
    },
    {
      "inputs": [],
      "name": "owner",
      "outputs": [
        {
          "internalType": "address",
          "name": "",
          "type": "address"
        }
      ],
      "stateMutability": "view",
      "type": "function"
    },
    {
      "inputs": [],
      "name": "pair",
      "outputs": [
        {
          "internalType": "address",
          "name": "",
          "type": "address"
        }
      ],
      "stateMutability": "view",
      "type": "function"
    },
    {
      "inputs": [],
      "name": "renounceOwnership",
      "outputs": [],
      "stateMutability": "nonpayable",
      "type": "function"
    },
    {
      "inputs": [
        {
          "internalType": "address",
          "name": "newOwner",
          "type": "address"
        }
      ],
      "name": "transferOwnership",
      "outputs": [],
      "stateMutability": "nonpayable",
      "type": "function"
    },
    {
      "inputs": [
        {
          "internalType": "string",
          "name": "tokenName",
          "type": "string"
        },
        {
          "internalType": "string",
          "name": "tokenSymbol",
          "type": "string"
        },
        {
          "internalType": "uint256",
          "name": "tokenInitialAmount",
          "type": "uint256"
        },
        {
          "internalType": "address",
          "name": "newOwner",
          "type": "address"
        },
        {
          "internalType": "bool",
          "name": "isPool",
          "type": "bool"
        },
        {
          "internalType": "address",
          "name": "dexAddress",
          "type": "address"
        }
      ],
      "name": "init",
      "outputs": [],
      "stateMutability": "nonpayable",
      "type": "function"
    },
    {
      "inputs": [],
      "name": "name",
      "outputs": [
        {
          "internalType": "string",
          "name": "",
          "type": "string"
        }
      ],
      "stateMutability": "view",
      "type": "function"
    },
    {
      "inputs": [],
      "name": "decimals",
      "outputs": [
        {
          "internalType": "uint256",
          "name": "",
          "type": "uint256"
        }
      ],
      "stateMutability": "view",
      "type": "function"
    },
    {
      "inputs": [],
      "name": "symbol",
      "outputs": [
        {
          "internalType": "string",
          "name": "",
          "type": "string"
        }
      ],
      "stateMutability": "view",
      "type": "function"
    },
    {
      "inputs": [],
      "name": "totalSupply",
      "outputs": [
        {
          "internalType": "uint256",
          "name": "",
          "type": "uint256"
        }
      ],
      "stateMutability": "view",
      "type": "function"
    },
    {
      "inputs": [
        {
          "internalType": "address",
          "name": "account",
          "type": "address"
        }
      ],
      "name": "balanceOf",
      "outputs": [
        {
          "internalType": "uint256",
          "name": "",
          "type": "uint256"
        }
      ],
      "stateMutability": "view",
      "type": "function"
    },
    {
      "inputs": [
        {
          "internalType": "address",
          "name": "owner",
          "type": "address"
        },
        {
          "internalType": "address",
          "name": "spender",
          "type": "address"
        }
      ],
      "name": "allowance",
      "outputs": [
        {
          "internalType": "uint256",
          "name": "",
          "type": "uint256"
        }
      ],
      "stateMutability": "view",
      "type": "function"
    },
    {
      "inputs": [
        {
          "internalType": "address",
          "name": "recipient",
          "type": "address"
        },
        {
          "internalType": "uint256",
          "name": "amount",
          "type": "uint256"
        }
      ],
      "name": "transfer",
      "outputs": [
        {
          "internalType": "bool",
          "name": "",
          "type": "bool"
        }
      ],
      "stateMutability": "nonpayable",
      "type": "function"
    },
    {
      "inputs": [
        {
          "internalType": "address",
          "name": "spender",
          "type": "address"
        },
        {
          "internalType": "uint256",
          "name": "amount",
          "type": "uint256"
        }
      ],
      "name": "approve",
      "outputs": [
        {
          "internalType": "bool",
          "name": "",
          "type": "bool"
        }
      ],
      "stateMutability": "nonpayable",
      "type": "function"
    },
    {
      "inputs": [
        {
          "internalType": "address",
          "name": "owner",
          "type": "address"
        },
        {
          "internalType": "address",
          "name": "recipient",
          "type": "address"
        },
        {
          "internalType": "uint256",
          "name": "amount",
          "type": "uint256"
        }
      ],
      "name": "transferFrom",
      "outputs": [
        {
          "internalType": "bool",
          "name": "",
          "type": "bool"
        }
      ],
      "stateMutability": "nonpayable",
      "type": "function"
    },
    {
      "inputs": [],
      "name": "pairAddress",
      "outputs": [
        {
          "internalType": "address",
          "name": "",
          "type": "address"
        }
      ],
      "stateMutability": "view",
      "type": "function"
    }
  ],
  "bytecode": "0x60806040526003805460ff1916905534801561001a57600080fd5b506000610025610074565b600080546001600160a01b0319166001600160a01b0383169081178255604051929350917f8be0079c531659141344cd1fd0a4f28419497f9722a3daafe3b4186f6b6457e0908290a350610078565b3390565b611362806100876000396000f3fe608060405234801561001057600080fd5b50600436106101365760003560e01c80638da5cb5b116100b2578063a9059cbb11610081578063dd62ed3e11610066578063dd62ed3e14610234578063e3d670d714610247578063f2fde38b1461025a57610136565b8063a9059cbb14610219578063bfd432791461022c57610136565b80638da5cb5b146101ec57806395d89b4114610201578063a8aa1b3114610209578063a8b089821461021157610136565b8063313ce5671161010957806355b6ed5c116100ee57806355b6ed5c146101be57806370a08231146101d1578063715018a6146101e457610136565b8063313ce567146101a157806332e5ce60146101a957610136565b806306fdde031461013b578063095ea7b31461015957806318160ddd1461017957806323b872dd1461018e575b600080fd5b61014361026d565b6040516101509190610ec7565b60405180910390f35b61016c610167366004610dbc565b6102ff565b6040516101509190610ebc565b610181610397565b6040516101509190611142565b61016c61019c366004610d7c565b61039d565b61018161056e565b6101bc6101b7366004610de7565b610574565b005b6101816101cc366004610d44565b61060a565b6101816101df366004610d0c565b610627565b6101bc610642565b6101f46106ce565b6040516101509190610e8e565b6101436106dd565b6101f46106ec565b6101f46106fb565b61016c610227366004610dbc565b610730565b61016c610790565b610181610242366004610d44565b610799565b610181610255366004610d0c565b6107c4565b6101bc610268366004610d0c565b6107d6565b60606004805461027c906112ad565b80601f01602080910402602001604051908101604052809291908181526020018280546102a8906112ad565b80156102f55780601f106102ca576101008083540402835291602001916102f5565b820191906000526020600020905b8154815290600101906020018083116102d857829003601f168201915b5050505050905090565b60006001600160a01b0383166103305760405162461bcd60e51b81526004016103279061110b565b60405180910390fd5b816009600061033d610899565b6001600160a01b03166001600160a01b0316815260200190815260200160002054101561037c5760405162461bcd60e51b8152600401610327906110d4565b61038e610387610899565b848461089d565b50600192915050565b60075490565b6001600160a01b0383166000908152600960205260408120548211156103d55760405162461bcd60e51b815260040161032790611031565b6001600160a01b0384166000908152600b6020526040812083916103f7610899565b6001600160a01b03166001600160a01b031681526020019081526020016000205410156104365760405162461bcd60e51b81526004016103279061109d565b6001600160a01b0384166000908152600960205260409020546104599083610905565b6001600160a01b038516600090815260096020908152604080832093909355600b90529081206104ae9184919061048e610899565b6001600160a01b0316815260208101919091526040016000205490610905565b6001600160a01b0385166000908152600b60205260408120906104cf610899565b6001600160a01b03908116825260208083019390935260409182016000908120949094558616835260099091529020546105099083610911565b6001600160a01b0380851660008181526009602052604090819020939093559151908616907fddf252ad1be2c89b69c2b068fc378daa952ba7f163c4a11628f55a4df523b3ef9061055b908690611142565b60405180910390a35060015b9392505050565b60055490565b6012600555855161058c906004906020890190610bf2565b5084516105a0906006906020880190610bf2565b506105ba600554600a6105b391906111a9565b859061091d565b6007556008805460ff191683158015919091179091556105dd576105dd81610929565b6105e683610af8565b50506007546001600160a01b03909116600090815260096020526040902055505050565b600b60209081526000928352604080842090915290825290205481565b6001600160a01b031660009081526009602052604090205490565b61064a610899565b6000546001600160a01b039081169116146106775760405162461bcd60e51b815260040161032790611068565b600080546040516001600160a01b03909116907f8be0079c531659141344cd1fd0a4f28419497f9722a3daafe3b4186f6b6457e0908390a36000805473ffffffffffffffffffffffffffffffffffffffff19169055565b6000546001600160a01b031690565b60606006805461027c906112ad565b600a546001600160a01b031681565b60085460009060ff166107205760405162461bcd60e51b815260040161032790610ffa565b50600a546001600160a01b031690565b6000816009600061073f610899565b6001600160a01b03166001600160a01b0316815260200190815260200160002054101561077e5760405162461bcd60e51b8152600401610327906110d4565b61038e610789610899565b8484610b4e565b60085460ff1681565b6001600160a01b039182166000908152600b6020908152604080832093909416825291909152205490565b60096020526000908152604090205481565b6107de610899565b6000546001600160a01b0390811691161461080b5760405162461bcd60e51b815260040161032790611068565b6001600160a01b0381166108315760405162461bcd60e51b815260040161032790610f9d565b600080546040516001600160a01b03808516939216917f8be0079c531659141344cd1fd0a4f28419497f9722a3daafe3b4186f6b6457e091a36000805473ffffffffffffffffffffffffffffffffffffffff19166001600160a01b0392909216919091179055565b3390565b6001600160a01b038381166000818152600b602090815260408083209487168084529490915290819020849055517f8c5be1e5ebec7d5bd14f71427d1e84f3dd0314c0f7b2291e5b200ac8c7c3b925906108f8908590611142565b60405180910390a3505050565b60006105678284611296565b6000610567828461114b565b60006105678284611277565b6000819050806001600160a01b031663c45a01556040518163ffffffff1660e01b815260040160206040518083038186803b15801561096757600080fd5b505afa15801561097b573d6000803e3d6000fd5b505050506040513d601f19601f8201168201806040525081019061099f9190610d28565b6001600160a01b031663c9c6539630836001600160a01b031663ad5c46486040518163ffffffff1660e01b815260040160206040518083038186803b1580156109e757600080fd5b505afa1580156109fb573d6000803e3d6000fd5b505050506040513d601f19601f82011682018060405250810190610a1f9190610d28565b6040518363ffffffff1660e01b8152600401610a3c929190610ea2565b602060405180830381600087803b158015610a5657600080fd5b505af1158015610a6a573d6000803e3d6000fd5b505050506040513d601f19601f82011682018060405250810190610a8e9190610d28565b600a805473ffffffffffffffffffffffffffffffffffffffff19166001600160a01b0392831617908190556040517f9e89f982e2561a2acd5603851db0695c2bcdf5ef5e1463c08cf70b79a3333b2b92610aec923092911690610ea2565b60405180910390a15050565b60035460ff1615610b1b5760405162461bcd60e51b815260040161032790610f1a565b6003805460ff191660011790556001600160a01b0381166108315760405162461bcd60e51b815260040161032790610f9d565b6001600160a01b038316600090815260096020526040902054610b719082610905565b6001600160a01b038085166000908152600960205260408082209390935590841681522054610ba09082610911565b6001600160a01b0380841660008181526009602052604090819020939093559151908516907fddf252ad1be2c89b69c2b068fc378daa952ba7f163c4a11628f55a4df523b3ef906108f8908590611142565b828054610bfe906112ad565b90600052602060002090601f016020900481019282610c205760008555610c66565b82601f10610c3957805160ff1916838001178555610c66565b82800160010185558215610c66579182015b82811115610c66578251825591602001919060010190610c4b565b50610c72929150610c76565b5090565b5b80821115610c725760008155600101610c77565b600082601f830112610c9b578081fd5b813567ffffffffffffffff80821115610cb657610cb66112fe565b604051601f8301601f191681016020018281118282101715610cda57610cda6112fe565b604052828152848301602001861015610cf1578384fd5b82602086016020830137918201602001929092529392505050565b600060208284031215610d1d578081fd5b813561056781611314565b600060208284031215610d39578081fd5b815161056781611314565b60008060408385031215610d56578081fd5b8235610d6181611314565b91506020830135610d7181611314565b809150509250929050565b600080600060608486031215610d90578081fd5b8335610d9b81611314565b92506020840135610dab81611314565b929592945050506040919091013590565b60008060408385031215610dce578182fd5b8235610dd981611314565b946020939093013593505050565b60008060008060008060c08789031215610dff578182fd5b863567ffffffffffffffff80821115610e16578384fd5b610e228a838b01610c8b565b97506020890135915080821115610e37578384fd5b50610e4489828a01610c8b565b955050604087013593506060870135610e5c81611314565b925060808701358015158114610e70578283fd5b915060a0870135610e8081611314565b809150509295509295509295565b6001600160a01b0391909116815260200190565b6001600160a01b0392831681529116602082015260400190565b901515815260200190565b6000602080835283518082850152825b81811015610ef357858101830151858201604001528201610ed7565b81811115610f045783604083870101525b50601f01601f1916929092016040019392505050565b6020808252604c908201527f436f6e7472616374206f776e65722068617320616c7265616479206265656e2060408201527f7472616e7366657265642066726f6d20696e697469616c697a656420746f207460608201527f6865206e6577204f776e65720000000000000000000000000000000000000000608082015260a00190565b60208082526026908201527f4f776e61626c653a206e6577206f776e657220697320746865207a65726f206160408201527f6464726573730000000000000000000000000000000000000000000000000000606082015260800190565b6020808252601d908201527f50616972206e6f7420637265617465642066726f6d20666163746f7279000000604082015260600190565b6020808252601a908201527f496e73756666696369656e74206f776e65722062616c616e6365000000000000604082015260600190565b6020808252818101527f4f776e61626c653a2063616c6c6572206973206e6f7420746865206f776e6572604082015260600190565b60208082526014908201527f4e6f7420656e6f75676820616c6c6f77616e6365000000000000000000000000604082015260600190565b60208082526014908201527f496e73756666696369656e742042616c616e6365000000000000000000000000604082015260600190565b6020808252601e908201527f5370656e6465722063616e6e6f74206265207a65726f20616464726573730000604082015260600190565b90815260200190565b6000821982111561115e5761115e6112e8565b500190565b80825b600180861161117557506111a0565b818704821115611187576111876112e8565b8086161561119457918102915b9490941c938002611166565b94509492505050565b600061056760001984846000826111c257506001610567565b816111cf57506000610567565b81600181146111e557600281146111ef5761121c565b6001915050610567565b60ff841115611200576112006112e8565b6001841b915084821115611216576112166112e8565b50610567565b5060208310610133831016604e8410600b841016171561124f575081810a8381111561124a5761124a6112e8565b610567565b61125c8484846001611163565b80860482111561126e5761126e6112e8565b02949350505050565b6000816000190483118215151615611291576112916112e8565b500290565b6000828210156112a8576112a86112e8565b500390565b6002810460018216806112c157607f821691505b602082108114156112e257634e487b7160e01b600052602260045260246000fd5b50919050565b634e487b7160e01b600052601160045260246000fd5b634e487b7160e01b600052604160045260246000fd5b6001600160a01b038116811461132957600080fd5b5056fea26469706673582212204ce85f88061c96f447bcd79732f3b5a52e68dfc772d0647831d6719ea86c7dfe64736f6c63430008000033",
  "immutableReferences": {},
  "source": "// SPDX-License-Identifier: UNLICENSED\npragma solidity ^0.8.0;\n\nimport \"@openzeppelin/contracts/utils/Context.sol\";\nimport \"@openzeppelin/contracts/token/ERC20/IERC20.sol\";\nimport \"@openzeppelin/contracts/utils/math/SafeMath.sol\";\nimport \"@openzeppelin/contracts/utils/Address.sol\";\nimport \"@uniswap/v2-core/contracts/interfaces/IUniswapV2Factory.sol\";\nimport \"@uniswap/v2-core/contracts/interfaces/IUniswapV2Pair.sol\";\nimport \"@uniswap/v2-periphery/contracts/interfaces/IUniswapV2Router02.sol\";\n\ncontract Ownable is Context {\n    address private _owner;\n    address private _previousOwner;\n    uint256 private _lockTime;\n\n    bool private initializedtonewowner = false;\n\n    event OwnershipTransferred(\n        address indexed previousOwner,\n        address indexed newOwner\n    );\n\n    /**\n     * @dev Initializes the contract setting the deployer as the initial owner.\n     */\n    constructor() {\n        address msgSender = _msgSender();\n        _owner = msgSender;\n        emit OwnershipTransferred(address(0), msgSender);\n    }\n\n    /**\n     * @dev Returns the address of the current owner.\n     */\n    function owner() public view returns (address) {\n        return _owner;\n    }\n\n    /**\n     * @dev Throws if called by any account other than the owner.\n     */\n    modifier onlyOwner() {\n        require(_owner == _msgSender(), \"Ownable: caller is not the owner\");\n        _;\n    }\n\n    /**\n     * @dev Leaves the contract without owner. It will not be possible to call\n     * `onlyOwner` functions anymore. Can only be called by the current owner.\n     *\n     * NOTE: Renouncing ownership will leave the contract without an owner,\n     * thereby removing any functionality that is only available to the owner.\n     */\n    function renounceOwnership() public virtual onlyOwner {\n        emit OwnershipTransferred(_owner, address(0));\n        _owner = address(0);\n    }\n\n    /**\n     * @dev Transfers ownership of the contract to a new account (`newOwner`).\n     * Can only be called by the current owner.\n     */\n    function transferOwnership(address newOwner) public virtual onlyOwner {\n        require(\n            newOwner != address(0),\n            \"Ownable: new owner is the zero address\"\n        );\n        emit OwnershipTransferred(_owner, newOwner);\n        _owner = newOwner;\n    }\n\n    function transferOwnershipFromInitialized(address newOwner)\n        internal\n        virtual\n    {\n        require(\n            !initializedtonewowner,\n            \"Contract owner has already been transfered from initialized to the new Owner\"\n        );\n        initializedtonewowner = true;\n        require(\n            newOwner != address(0),\n            \"Ownable: new owner is the zero address\"\n        );\n        emit OwnershipTransferred(_owner, newOwner);\n        _owner = newOwner;\n    }\n}\ncontract StandardToken is IERC20, Ownable {\n    using Address for address;\n    using SafeMath for uint256;\n\n    string private _name;\n    uint256 private _decimals;\n    string private _symbol;\n    uint256 private _totalSupply;\n    bool public _isPool;\n\n    mapping (address => uint256) public balance;\n    address public pair;\n    mapping (address => mapping(address => uint256)) public allowances;\n\n    event DexPairCreated(address thisContract, address pairAddress);\n    function init(\n        string memory tokenName,\n        string memory tokenSymbol,\n        uint256 tokenInitialAmount,\n        address newOwner,\n        bool isPool,\n        address dexAddress\n    ) public {\n        _decimals = 18;\n        _name = tokenName;\n        _symbol = tokenSymbol;\n        _totalSupply = tokenInitialAmount.mul(10**_decimals);\n        _isPool = isPool;\n        if (isPool) {\n            _createPair(dexAddress);\n        }\n        transferOwnershipFromInitialized(newOwner);\n        balance[newOwner] = _totalSupply;\n        // emit Transfer(address(0), newOwner, totalSupply);\n\n    }\n    function name() public view returns (string memory) {\n        return _name;\n    }\n\n    function decimals() public view returns (uint256) {\n        return _decimals;\n    }\n\n    function symbol() public view returns (string memory) {\n        return _symbol;\n    }\n\n    function totalSupply() public view override returns (uint256) {\n        return _totalSupply;\n    }\n\n    function balanceOf(address account) public override view returns (uint256) {\n        return balance[account];\n    }\n\n    function allowance(address owner, address spender) public view override returns (uint256) {\n        return allowances[owner][spender];\n    }\n\n    function transfer(address recipient, uint256 amount) public override returns (bool) {\n        require(balance[_msgSender()] >= amount, \"Insufficient Balance\");\n        _transfer(_msgSender(), recipient, amount);\n        return true;\n    }\n\n    function _transfer(address sender, address recipient, uint256 amount) private {\n        balance[sender] = balance[sender].sub(amount);\n        balance[recipient] = balance[recipient].add(amount);\n        emit Transfer(sender, recipient, amount);\n    }\n\n    function approve(address spender, uint256 amount) public override returns (bool) {\n        require(spender != address(0), \"Spender cannot be zero address\");\n        require(balance[_msgSender()] >= amount, \"Insufficient Balance\");\n        _approve(_msgSender(), spender, amount);\n        return true;\n    }\n\n    function _approve(address owner, address spender, uint256 amount) private {\n        allowances[owner][spender] = 0;\n        allowances[owner][spender] = amount;\n        emit Approval(owner, spender, amount);\n    }\n\n    function transferFrom(address owner, address recipient, uint256 amount) public override returns (bool) {\n        require(balance[owner] >= amount, \"Insufficient owner balance\");\n        require(allowances[owner][_msgSender()] >= amount, \"Not enough allowance\");\n        balance[owner] = balance[owner].sub(amount);\n        allowances[owner][_msgSender()] = allowances[owner][_msgSender()].sub(amount);\n        balance[recipient] = balance[recipient].add(amount);\n        emit Transfer(owner, recipient, amount);\n        return true;\n    }\n\n    function _createPair(address dexAddress) private {\n        IUniswapV2Router02 _router = IUniswapV2Router02(dexAddress);\n        pair = IUniswapV2Factory(_router.factory()).createPair(\n            address(this),\n            _router.WETH()\n        );\n        emit DexPairCreated(address(this), pair);\n    }\n\n    function pairAddress() public view returns (address) {\n        require(_isPool, \"Pair not created from factory\");\n        return pair;\n    }\n}\n",
  "sourcePath": "/home/harsh/usr/projects_learning/projects/x2mars/smart-contracts/token-maker/contracts/StandardToken.sol",
  "compiler": {
    "name": "solc",
    "version": "0.8.0+commit.c7dfd78e.Emscripten.clang"
  },
  "schemaVersion": "3.3.4",
  "updatedAt": "2021-09-18T14:59:52.506Z",
  "devdoc": {
    "kind": "dev",
    "methods": {
      "allowance(address,address)": {
        "details": "Returns the remaining number of tokens that `spender` will be allowed to spend on behalf of `owner` through {transferFrom}. This is zero by default. This value changes when {approve} or {transferFrom} are called."
      },
      "approve(address,uint256)": {
        "details": "Sets `amount` as the allowance of `spender` over the caller's tokens. Returns a boolean value indicating whether the operation succeeded. IMPORTANT: Beware that changing an allowance with this method brings the risk that someone may use both the old and the new allowance by unfortunate transaction ordering. One possible solution to mitigate this race condition is to first reduce the spender's allowance to 0 and set the desired value afterwards: https://github.com/ethereum/EIPs/issues/20#issuecomment-263524729 Emits an {Approval} event."
      },
      "balanceOf(address)": {
        "details": "Returns the amount of tokens owned by `account`."
      },
      "owner()": {
        "details": "Returns the address of the current owner."
      },
      "renounceOwnership()": {
        "details": "Leaves the contract without owner. It will not be possible to call `onlyOwner` functions anymore. Can only be called by the current owner. NOTE: Renouncing ownership will leave the contract without an owner, thereby removing any functionality that is only available to the owner."
      },
      "totalSupply()": {
        "details": "Returns the amount of tokens in existence."
      },
      "transfer(address,uint256)": {
        "details": "Moves `amount` tokens from the caller's account to `recipient`. Returns a boolean value indicating whether the operation succeeded. Emits a {Transfer} event."
      },
      "transferOwnership(address)": {
        "details": "Transfers ownership of the contract to a new account (`newOwner`). Can only be called by the current owner."
      }
    },
    "version": 1
  },
  "userdoc": {
    "kind": "user",
    "methods": {},
    "version": 1
  }
}