{
  "contractName": "TokenFactory",
  "abi": [
    {
      "inputs": [
        {
          "internalType": "address payable",
          "name": "standardContractToClone",
          "type": "address"
        },
        {
          "internalType": "address payable",
          "name": "fotContractToClone",
          "type": "address"
        }
      ],
      "stateMutability": "nonpayable",
      "type": "constructor"
    },
    {
      "anonymous": false,
      "inputs": [
        {
          "indexed": false,
          "internalType": "address",
          "name": "id",
          "type": "address"
        },
        {
          "indexed": false,
          "internalType": "string",
          "name": "name",
          "type": "string"
        },
        {
          "indexed": false,
          "internalType": "string",
          "name": "symbol",
          "type": "string"
        },
        {
          "indexed": false,
          "internalType": "uint256",
          "name": "basicSupply",
          "type": "uint256"
        },
        {
          "indexed": false,
          "internalType": "string",
          "name": "tokenType",
          "type": "string"
        },
        {
          "indexed": false,
          "internalType": "address",
          "name": "newTokenAddress",
          "type": "address"
        }
      ],
      "name": "FotTokenCreated",
      "type": "event"
    },
    {
      "anonymous": false,
      "inputs": [
        {
          "indexed": true,
          "internalType": "address",
          "name": "previousOwner",
          "type": "address"
        },
        {
          "indexed": true,
          "internalType": "address",
          "name": "newOwner",
          "type": "address"
        }
      ],
      "name": "OwnershipTransferred",
      "type": "event"
    },
    {
      "anonymous": false,
      "inputs": [
        {
          "indexed": false,
          "internalType": "address",
          "name": "id",
          "type": "address"
        },
        {
          "indexed": false,
          "internalType": "string",
          "name": "name",
          "type": "string"
        },
        {
          "indexed": false,
          "internalType": "string",
          "name": "symbol",
          "type": "string"
        },
        {
          "indexed": false,
          "internalType": "uint256",
          "name": "basicSupply",
          "type": "uint256"
        },
        {
          "indexed": false,
          "internalType": "string",
          "name": "tokenType",
          "type": "string"
        },
        {
          "indexed": false,
          "internalType": "bool",
          "name": "isPool",
          "type": "bool"
        },
        {
          "indexed": false,
          "internalType": "address",
          "name": "newTokenAddress",
          "type": "address"
        }
      ],
      "name": "StdTokenCreated",
      "type": "event"
    },
    {
      "inputs": [],
      "name": "clone",
      "outputs": [
        {
          "internalType": "address payable",
          "name": "",
          "type": "address"
        }
      ],
      "stateMutability": "view",
      "type": "function"
    },
    {
      "inputs": [],
      "name": "owner",
      "outputs": [
        {
          "internalType": "address",
          "name": "",
          "type": "address"
        }
      ],
      "stateMutability": "view",
      "type": "function"
    },
    {
      "inputs": [],
      "name": "renounceOwnership",
      "outputs": [],
      "stateMutability": "nonpayable",
      "type": "function"
    },
    {
      "inputs": [
        {
          "internalType": "address",
          "name": "newOwner",
          "type": "address"
        }
      ],
      "name": "transferOwnership",
      "outputs": [],
      "stateMutability": "nonpayable",
      "type": "function"
    },
    {
      "inputs": [
        {
          "internalType": "string",
          "name": "name",
          "type": "string"
        },
        {
          "internalType": "string",
          "name": "symbol",
          "type": "string"
        },
        {
          "internalType": "uint256",
          "name": "basicSupply",
          "type": "uint256"
        },
        {
          "internalType": "uint256",
          "name": "maxTxnAmount",
          "type": "uint256"
        },
        {
          "internalType": "uint256[4]",
          "name": "fees",
          "type": "uint256[4]"
        },
        {
          "internalType": "address",
          "name": "charityAddress",
          "type": "address"
        },
        {
          "internalType": "address",
          "name": "dexAddress",
          "type": "address"
        }
      ],
      "name": "createToken",
      "outputs": [],
      "stateMutability": "payable",
      "type": "function"
    },
    {
      "inputs": [
        {
          "internalType": "string",
          "name": "tokenName",
          "type": "string"
        },
        {
          "internalType": "string",
          "name": "tokenSymbol",
          "type": "string"
        },
        {
          "internalType": "uint256",
          "name": "tokenInitialAmount",
          "type": "uint256"
        },
        {
          "internalType": "bool",
          "name": "isPool",
          "type": "bool"
        },
        {
          "internalType": "address",
          "name": "dexAddress",
          "type": "address"
        }
      ],
      "name": "createStandardToken",
      "outputs": [],
      "stateMutability": "payable",
      "type": "function"
    }
  ],
  "bytecode": "0x60806040526003805460ff1916905534801561001a57600080fd5b50604051610d54380380610d548339818101604052604081101561003d57600080fd5b50805160209091015160006100506100d5565b600080546001600160a01b0319166001600160a01b0383169081178255604051929350917f8be0079c531659141344cd1fd0a4f28419497f9722a3daafe3b4186f6b6457e0908290a35060038054610100600160a81b0319166101006001600160a01b0394851602179055600480546001600160a01b031916919092161790556100d9565b3390565b610c6c806100e86000396000f3fe6080604052600436106100555760003560e01c806309ed46071461005a5780634e88f4331461008b5780635665817414610203578063715018a6146103425780638da5cb5b14610357578063f2fde38b1461036c575b600080fd5b34801561006657600080fd5b5061006f61039f565b604080516001600160a01b039092168252519081900360200190f35b61020160048036036101408110156100a257600080fd5b810190602081018135600160201b8111156100bc57600080fd5b8201836020820111156100ce57600080fd5b803590602001918460018302840111600160201b831117156100ef57600080fd5b91908080601f0160208091040260200160405190810160405280939291908181526020018383808284376000920191909152509295949360208101935035915050600160201b81111561014157600080fd5b82018360208201111561015357600080fd5b803590602001918460018302840111600160201b8311171561017457600080fd5b91908080601f0160208091040260200160405190810160405280939291908181526020018383808284376000920191909152505060408051608081810183529497863597602088013597919690955060c082019450919201906004908390839080828437600092019190915250919450505080356001600160a01b039081169250602090910135166103ae565b005b610201600480360360a081101561021957600080fd5b810190602081018135600160201b81111561023357600080fd5b82018360208201111561024557600080fd5b803590602001918460018302840111600160201b8311171561026657600080fd5b91908080601f0160208091040260200160405190810160405280939291908181526020018383808284376000920191909152509295949360208101935035915050600160201b8111156102b857600080fd5b8201836020820111156102ca57600080fd5b803590602001918460018302840111600160201b831117156102eb57600080fd5b91908080601f016020809104026020016040519081016040528093929190818152602001838380828437600092019190915250929550508235935050506020810135151590604001356001600160a01b03166106e5565b34801561034e57600080fd5b506102016109ed565b34801561036357600080fd5b5061006f610aa1565b34801561037857600080fd5b506102016004803603602081101561038f57600080fd5b50356001600160a01b0316610ab0565b6005546001600160a01b031681565b6004546103c3906001600160a01b0316610bba565b600580546001600160a01b0319166001600160a01b039283161790819055166365b64714888888888888886103f6610c0c565b6040518963ffffffff1660e01b815260040180806020018060200189815260200188815260200187600460200280838360005b83811015610441578181015183820152602001610429565b50505050905001866001600160a01b03168152602001856001600160a01b03168152602001846001600160a01b0316815260200183810383528b818151815260200191508051906020019080838360005b838110156104aa578181015183820152602001610492565b50505050905090810190601f1680156104d75780820380516001836020036101000a031916815260200191505b5083810382528a5181528a516020918201918c019080838360005b8381101561050a5781810151838201526020016104f2565b50505050905090810190601f1680156105375780820380516001836020036101000a031916815260200191505b509a5050505050505050505050600060405180830381600087803b15801561055e57600080fd5b505af1158015610572573d6000803e3d6000fd5b505050507fbaa441286f50261f1176d1415647814b15d1376cecefc1cc43cb3797079779e161059f610c0c565b888888620f424002600560009054906101000a90046001600160a01b031660405180866001600160a01b03168152602001806020018060200185815260200180602001856001600160a01b03168152602001848103845288818151815260200191508051906020019080838360005b8381101561062657818101518382015260200161060e565b50505050905090810190601f1680156106535780820380516001836020036101000a031916815260200191505b50848103835287518152875160209182019189019080838360005b8381101561068657818101518382015260200161066e565b50505050905090810190601f1680156106b35780820380516001836020036101000a031916815260200191505b50938403905250506003815262199bdd60ea1b602082015260408051918290030195509350505050a150505050505050565b6003546106ff9061010090046001600160a01b0316610bba565b600580546001600160a01b0319166001600160a01b039283161790819055166332e5ce6086868661072e610c0c565b87876040518763ffffffff1660e01b8152600401808060200180602001878152602001866001600160a01b031681526020018515158152602001846001600160a01b03168152602001838103835289818151815260200191508051906020019080838360005b838110156107ac578181015183820152602001610794565b50505050905090810190601f1680156107d95780820380516001836020036101000a031916815260200191505b5083810382528851815288516020918201918a019080838360005b8381101561080c5781810151838201526020016107f4565b50505050905090810190601f1680156108395780820380516001836020036101000a031916815260200191505b5098505050505050505050600060405180830381600087803b15801561085e57600080fd5b505af1158015610872573d6000803e3d6000fd5b505050507f6746bb8adc6b093b2b32408621599b0acafc6f8ef56446e9df16bb11f95b306961089f610c0c565b86868686600560009054906101000a90046001600160a01b031660405180876001600160a01b031681526020018060200180602001868152602001806020018615158152602001856001600160a01b03168152602001848103845289818151815260200191508051906020019080838360005b8381101561092a578181015183820152602001610912565b50505050905090810190601f1680156109575780820380516001836020036101000a031916815260200191505b5084810383528851815288516020918201918a019080838360005b8381101561098a578181015183820152602001610972565b50505050905090810190601f1680156109b75780820380516001836020036101000a031916815260200191505b509384039052505060088152671cdd185b99185c9960c21b60208201526040805191829003019650945050505050a15050505050565b6109f5610c0c565b6000546001600160a01b03908116911614610a57576040805162461bcd60e51b815260206004820181905260248201527f4f776e61626c653a2063616c6c6572206973206e6f7420746865206f776e6572604482015290519081900360640190fd5b600080546040516001600160a01b03909116907f8be0079c531659141344cd1fd0a4f28419497f9722a3daafe3b4186f6b6457e0908390a3600080546001600160a01b0319169055565b6000546001600160a01b031690565b610ab8610c0c565b6000546001600160a01b03908116911614610b1a576040805162461bcd60e51b815260206004820181905260248201527f4f776e61626c653a2063616c6c6572206973206e6f7420746865206f776e6572604482015290519081900360640190fd5b6001600160a01b038116610b5f5760405162461bcd60e51b8152600401808060200182810382526026815260200180610c116026913960400191505060405180910390fd5b600080546040516001600160a01b03808516939216917f8be0079c531659141344cd1fd0a4f28419497f9722a3daafe3b4186f6b6457e091a3600080546001600160a01b0319166001600160a01b0392909216919091179055565b6000808260601b9050604051733d602d80600a3d3981f3363d3d373d3d3d363d7360601b81528160148201526e5af43d82803e903d91602b57fd5bf360881b60288201526037816000f0949350505050565b339056fe4f776e61626c653a206e6577206f776e657220697320746865207a65726f2061646472657373a26469706673582212204a22cf59c1e9e36096a4a95cc35a8a97982ef44a37ae0138b6d5eeb3df1fa03d64736f6c634300060c0033",
  "immutableReferences": {},
  "source": "// SPDX-License-Identifier: UNLICENSED\npragma solidity 0.6.12;\n\nimport \"./FotToken.sol\";\nimport \"./StandardToken.sol\";\n\ncontract CloneFactory {\n    function createClone(address target)\n        internal\n        returns (address payable result)\n    {\n        bytes20 targetBytes = bytes20(target);\n        assembly {\n            let clone := mload(0x40)\n            mstore(\n                clone,\n                0x3d602d80600a3d3981f3363d3d373d3d3d363d73000000000000000000000000\n            )\n            mstore(add(clone, 0x14), targetBytes)\n            mstore(\n                add(clone, 0x28),\n                0x5af43d82803e903d91602b57fd5bf30000000000000000000000000000000000\n            )\n            result := create(0, clone, 0x37)\n        }\n    }\n\n    function isClone(address target, address query)\n        internal\n        view\n        returns (bool result)\n    {\n        bytes20 targetBytes = bytes20(target);\n        assembly {\n            let clone := mload(0x40)\n            mstore(\n                clone,\n                0x363d3d373d3d3d363d7300000000000000000000000000000000000000000000\n            )\n            mstore(add(clone, 0xa), targetBytes)\n            mstore(\n                add(clone, 0x1e),\n                0x5af43d82803e903d91602b57fd5bf30000000000000000000000000000000000\n            )\n\n            let other := add(clone, 0x40)\n            extcodecopy(query, other, 0, 0x2d)\n            result := and(\n                eq(mload(clone), mload(other)),\n                eq(mload(add(clone, 0xd)), mload(add(other, 0xd)))\n            )\n        }\n    }\n}\n\ncontract TokenFactory is Ownable, CloneFactory {\n    address payable private standardMasterContract;\n    address payable private fotMasterContract;\n    event FotTokenCreated(address id, string name, string symbol, uint256 basicSupply, string tokenType, address newTokenAddress);\n    event StdTokenCreated(address id, string name, string symbol, uint256 basicSupply, string tokenType, bool isPool, address newTokenAddress);\n    address payable public clone;\n    constructor (address payable standardContractToClone, address payable fotContractToClone) public {\n        standardMasterContract = standardContractToClone;\n        fotMasterContract = fotContractToClone;\n    }\n    function createToken(\n        string memory name,\n        string memory symbol,\n        uint256 basicSupply,\n        uint256 maxTxnAmount,\n        uint256[4] memory fees,\n        address charityAddress,\n        address dexAddress\n    ) public payable {\n        clone = createClone(fotMasterContract);\n        FotToken(clone).init(\n            name,\n            symbol,\n            basicSupply,\n            maxTxnAmount,\n            fees,\n            charityAddress,\n            dexAddress,\n            _msgSender()\n        );\n        emit FotTokenCreated(_msgSender(), name, symbol, basicSupply * (10**6), \"fot\",  clone);\n    }\n\n    function createStandardToken(\n        string memory tokenName,\n        string memory tokenSymbol,\n        uint256 tokenInitialAmount,\n        bool isPool,\n        address dexAddress\n    ) public payable {\n        clone = createClone(standardMasterContract);\n        StandardToken(clone).init(\n            tokenName,\n            tokenSymbol,\n            tokenInitialAmount,\n            _msgSender(),\n            isPool,\n            dexAddress\n        );\n        emit StdTokenCreated(_msgSender(), tokenName, tokenSymbol, tokenInitialAmount, \"standard\", isPool,  clone);\n    }\n}\n",
  "sourcePath": "/home/harsh/usr/projects_learning/projects/x2mars/smart-contracts/token-maker/contracts/TokenFactory.sol",
  "compiler": {
    "name": "solc",
    "version": "0.6.12+commit.27d51765.Emscripten.clang"
  },
  "schemaVersion": "3.3.4",
  "updatedAt": "2021-09-03T21:59:03.525Z",
  "devdoc": {
    "kind": "dev",
    "methods": {
      "owner()": {
        "details": "Returns the address of the current owner."
      },
      "renounceOwnership()": {
        "details": "Leaves the contract without owner. It will not be possible to call `onlyOwner` functions anymore. Can only be called by the current owner. NOTE: Renouncing ownership will leave the contract without an owner, thereby removing any functionality that is only available to the owner."
      },
      "transferOwnership(address)": {
        "details": "Transfers ownership of the contract to a new account (`newOwner`). Can only be called by the current owner."
      }
    },
    "version": 1
  },
  "userdoc": {
    "kind": "user",
    "methods": {},
    "version": 1
  }
}