{
  "contractName": "TokenFactory",
  "abi": [
    {
      "inputs": [
        {
          "internalType": "address payable",
          "name": "standardContractToClone",
          "type": "address"
        },
        {
          "internalType": "address payable",
          "name": "fotContractToClone",
          "type": "address"
        }
      ],
      "stateMutability": "nonpayable",
      "type": "constructor"
    },
    {
      "anonymous": false,
      "inputs": [
        {
          "indexed": false,
          "internalType": "address",
          "name": "id",
          "type": "address"
        },
        {
          "indexed": false,
          "internalType": "string",
          "name": "name",
          "type": "string"
        },
        {
          "indexed": false,
          "internalType": "string",
          "name": "symbol",
          "type": "string"
        },
        {
          "indexed": false,
          "internalType": "uint256",
          "name": "basicSupply",
          "type": "uint256"
        },
        {
          "indexed": false,
          "internalType": "string",
          "name": "tokenType",
          "type": "string"
        },
        {
          "indexed": false,
          "internalType": "address",
          "name": "newTokenAddress",
          "type": "address"
        }
      ],
      "name": "FotTokenCreated",
      "type": "event"
    },
    {
      "anonymous": false,
      "inputs": [
        {
          "indexed": false,
          "internalType": "address",
          "name": "id",
          "type": "address"
        },
        {
          "indexed": false,
          "internalType": "string",
          "name": "name",
          "type": "string"
        },
        {
          "indexed": false,
          "internalType": "string",
          "name": "symbol",
          "type": "string"
        },
        {
          "indexed": false,
          "internalType": "uint256",
          "name": "basicSupply",
          "type": "uint256"
        },
        {
          "indexed": false,
          "internalType": "string",
          "name": "tokenType",
          "type": "string"
        },
        {
          "indexed": false,
          "internalType": "bool",
          "name": "isPool",
          "type": "bool"
        },
        {
          "indexed": false,
          "internalType": "address",
          "name": "newTokenAddress",
          "type": "address"
        }
      ],
      "name": "StdTokenCreated",
      "type": "event"
    },
    {
      "inputs": [],
      "name": "clone",
      "outputs": [
        {
          "internalType": "address payable",
          "name": "",
          "type": "address"
        }
      ],
      "stateMutability": "view",
      "type": "function"
    },
    {
      "inputs": [
        {
          "internalType": "string",
          "name": "name",
          "type": "string"
        },
        {
          "internalType": "string",
          "name": "symbol",
          "type": "string"
        },
        {
          "internalType": "uint256",
          "name": "basicSupply",
          "type": "uint256"
        },
        {
          "internalType": "uint256",
          "name": "maxTxnAmount",
          "type": "uint256"
        },
        {
          "internalType": "uint256[4]",
          "name": "fees",
          "type": "uint256[4]"
        },
        {
          "internalType": "address",
          "name": "charityAddress",
          "type": "address"
        },
        {
          "internalType": "address",
          "name": "dexAddress",
          "type": "address"
        }
      ],
      "name": "createToken",
      "outputs": [],
      "stateMutability": "payable",
      "type": "function"
    },
    {
      "inputs": [
        {
          "internalType": "string",
          "name": "tokenName",
          "type": "string"
        },
        {
          "internalType": "string",
          "name": "tokenSymbol",
          "type": "string"
        },
        {
          "internalType": "uint256",
          "name": "tokenInitialAmount",
          "type": "uint256"
        },
        {
          "internalType": "bool",
          "name": "isPool",
          "type": "bool"
        },
        {
          "internalType": "address",
          "name": "dexAddress",
          "type": "address"
        }
      ],
      "name": "createStandardToken",
      "outputs": [],
      "stateMutability": "payable",
      "type": "function"
    }
  ],
  "bytecode": "0x608060405234801561001057600080fd5b5060405161091738038061091783398101604081905261002f9161007c565b600080546001600160a01b039384166001600160a01b031991821617909155600180549290931691161790556100ae565b80516001600160a01b038116811461007757600080fd5b919050565b6000806040838503121561008e578182fd5b61009783610060565b91506100a560208401610060565b90509250929050565b61085a806100bd6000396000f3fe6080604052600436106100345760003560e01c806309ed4607146100395780634e88f433146100645780635665817414610079575b600080fd5b34801561004557600080fd5b5061004e61008c565b60405161005b91906105a4565b60405180910390f35b61007761007236600461045e565b61009b565b005b6100776100873660046103cc565b6101c4565b6002546001600160a01b031681565b6001546100b0906001600160a01b03166102dc565b600280547fffffffffffffffffffffffff0000000000000000000000000000000000000000166001600160a01b0392831617908190556040517f65b647140000000000000000000000000000000000000000000000000000000081529116906365b6471490610131908a908a908a908a908a908a908a90339060040161071e565b600060405180830381600087803b15801561014b57600080fd5b505af115801561015f573d6000803e3d6000fd5b505050507fbaa441286f50261f1176d1415647814b15d1376cecefc1cc43cb3797079779e133888888620f424061019691906107e3565b6002546040516101b395949392916001600160a01b031690610643565b60405180910390a150505050505050565b6000546101d9906001600160a01b03166102dc565b600280547fffffffffffffffffffffffff0000000000000000000000000000000000000000166001600160a01b0392831617908190556040517f32e5ce600000000000000000000000000000000000000000000000000000000081529116906332e5ce6090610256908890889088903390899089906004016106c8565b600060405180830381600087803b15801561027057600080fd5b505af1158015610284573d6000803e3d6000fd5b50506002546040517f6746bb8adc6b093b2b32408621599b0acafc6f8ef56446e9df16bb11f95b306993506102cd9250339189918991899189916001600160a01b0316906105b8565b60405180910390a15050505050565b6000808260601b90506040517f3d602d80600a3d3981f3363d3d373d3d3d363d7300000000000000000000000081528160148201527f5af43d82803e903d91602b57fd5bf3000000000000000000000000000000000060288201526037816000f0949350505050565b80356001600160a01b038116811461035c57600080fd5b919050565b600082601f830112610371578081fd5b813567ffffffffffffffff81111561038b5761038b61080e565b61039e601f8201601f19166020016107b9565b8181528460208386010111156103b2578283fd5b816020850160208301379081016020019190915292915050565b600080600080600060a086880312156103e3578081fd5b853567ffffffffffffffff808211156103fa578283fd5b61040689838a01610361565b9650602088013591508082111561041b578283fd5b5061042888828901610361565b9450506040860135925060608601358015158114610444578182fd5b915061045260808701610345565b90509295509295909350565b6000806000806000806000610140888a031215610479578182fd5b873567ffffffffffffffff80821115610490578384fd5b61049c8b838c01610361565b985060209150818a0135818111156104b2578485fd5b6104be8c828d01610361565b98505050604089013595506060890135945089609f8a01126104de578283fd5b6104e860806107b9565b8060808b016101008c018d8111156104fe578687fd5b865b600481101561051d57823585529385019391850191600101610500565b5082975061052a81610345565b9650505050505061053e6101208901610345565b905092959891949750929550565b6001600160a01b03169052565b60008151808452815b8181101561057e57602081850181015186830182015201610562565b8181111561058f5782602083870101525b50601f01601f19169290920160200192915050565b6001600160a01b0391909116815260200190565b60006001600160a01b03808916835260e060208401526105db60e0840189610559565b83810360408501526105ed8189610559565b6060850197909752508286036080840152600886527f7374616e64617264000000000000000000000000000000000000000000000000602087015293151560a083015250911660c0909101526040019392505050565b60006001600160a01b03808816835260c0602084015261066660c0840188610559565b83810360408501526106788188610559565b6060850196909652508285036080840152600385527f666f74000000000000000000000000000000000000000000000000000000000060208601529290921660a090910152506040019392505050565b600060c082526106db60c0830189610559565b82810360208401526106ed8189610559565b604084019790975250506001600160a01b039384166060820152911515608083015290911660a09091015292915050565b60006101608083526107328184018c610559565b9050602083820381850152610747828c610559565b92508960408501528860608501526080840191508760005b600481101561077c5781518452928201929082019060010161075f565b505050506001600160a01b03851661010083015261079e61012083018561054c565b6107ac61014083018461054c565b9998505050505050505050565b60405181810167ffffffffffffffff811182821017156107db576107db61080e565b604052919050565b600081600019048311821515161561080957634e487b7160e01b81526011600452602481fd5b500290565b634e487b7160e01b600052604160045260246000fdfea2646970667358221220b4394646acc56a43009098713e040730795bf3aacad7c3aec4d10433fce35dbc64736f6c63430008000033",
  "immutableReferences": {},
  "source": "// SPDX-License-Identifier: UNLICENSED\npragma solidity ^0.8.0;\n\nimport \"./FotToken.sol\";\nimport \"./StandardToken.sol\";\n\ncontract CloneFactory {\n    function createClone(address target)\n        internal\n        returns (address payable result)\n    {\n        bytes20 targetBytes = bytes20(target);\n        assembly {\n            let clone := mload(0x40)\n            mstore(\n                clone,\n                0x3d602d80600a3d3981f3363d3d373d3d3d363d73000000000000000000000000\n            )\n            mstore(add(clone, 0x14), targetBytes)\n            mstore(\n                add(clone, 0x28),\n                0x5af43d82803e903d91602b57fd5bf30000000000000000000000000000000000\n            )\n            result := create(0, clone, 0x37)\n        }\n    }\n\n    function isClone(address target, address query)\n        internal\n        view\n        returns (bool result)\n    {\n        bytes20 targetBytes = bytes20(target);\n        assembly {\n            let clone := mload(0x40)\n            mstore(\n                clone,\n                0x363d3d373d3d3d363d7300000000000000000000000000000000000000000000\n            )\n            mstore(add(clone, 0xa), targetBytes)\n            mstore(\n                add(clone, 0x1e),\n                0x5af43d82803e903d91602b57fd5bf30000000000000000000000000000000000\n            )\n\n            let other := add(clone, 0x40)\n            extcodecopy(query, other, 0, 0x2d)\n            result := and(\n                eq(mload(clone), mload(other)),\n                eq(mload(add(clone, 0xd)), mload(add(other, 0xd)))\n            )\n        }\n    }\n}\n\ncontract TokenFactory is CloneFactory {\n    address payable private standardMasterContract;\n    address payable private fotMasterContract;\n    event FotTokenCreated(address id, string name, string symbol, uint256 basicSupply, string tokenType, address newTokenAddress);\n    event StdTokenCreated(address id, string name, string symbol, uint256 basicSupply, string tokenType, bool isPool, address newTokenAddress);\n    address payable public clone;\n    constructor (address payable standardContractToClone, address payable fotContractToClone) {\n        standardMasterContract = standardContractToClone;\n        fotMasterContract = fotContractToClone;\n    }\n    function createToken(\n        string memory name,\n        string memory symbol,\n        uint256 basicSupply,\n        uint256 maxTxnAmount,\n        uint256[4] memory fees,\n        address charityAddress,\n        address dexAddress\n    ) public payable {\n        clone = createClone(fotMasterContract);\n        FotToken(clone).init(\n            name,\n            symbol,\n            basicSupply,\n            maxTxnAmount,\n            fees,\n            charityAddress,\n            dexAddress,\n            msg.sender\n        );\n        emit FotTokenCreated(msg.sender, name, symbol, basicSupply * (10**6), \"fot\",  clone);\n    }\n\n    function createStandardToken(\n        string memory tokenName,\n        string memory tokenSymbol,\n        uint256 tokenInitialAmount,\n        bool isPool,\n        address dexAddress\n    ) public payable {\n        clone = createClone(standardMasterContract);\n        StandardToken(clone).init(\n            tokenName,\n            tokenSymbol,\n            tokenInitialAmount,\n            msg.sender,\n            isPool,\n            dexAddress\n        );\n        emit StdTokenCreated(msg.sender, tokenName, tokenSymbol, tokenInitialAmount, \"standard\", isPool,  clone);\n    }\n}\n",
  "sourcePath": "/home/harsh/usr/projects_learning/projects/x2mars/smart-contracts/token-maker/contracts/TokenFactory.sol",
  "compiler": {
    "name": "solc",
    "version": "0.8.0+commit.c7dfd78e.Emscripten.clang"
  },
  "schemaVersion": "3.3.4",
  "updatedAt": "2021-09-18T14:59:52.524Z",
  "devdoc": {
    "kind": "dev",
    "methods": {},
    "version": 1
  },
  "userdoc": {
    "kind": "user",
    "methods": {},
    "version": 1
  }
}